:020000040800F2
:1000000000080220990200080F150008BF1400081C
:100010000D15000849030008311E0008000000000B
:1000200000000000000000000000000013150008A0
:10003000D50300080000000011150008B5150008E0
:10004000B3020008B3020008B3020008B3020008BC
:10005000B3020008B3020008B3020008B3020008AC
:10006000B3020008B3020008B3020008B30200089C
:10007000B3020008B3020008B3020008B30200088C
:10008000B3020008B3020008B3020008B30200087C
:10009000B3020008B3020008B3020008B30200086C
:1000A000B3020008B3020008B3020008B30200085C
:1000B000B3020008B3020008B3020008B30200084C
:1000C000B3020008B3020008B3020008B30200083C
:1000D000B3020008D51D0008B3020008B3020008EF
:1000E000B3020008B3020008B3020008B30200081C
:1000F000B3020008B3020008B3020008B30200080C
:10010000B3020008B3020008B3020008B3020008FB
:10011000B3020008B3020008B3020008B3020008EB
:10012000B3020008B3020008B3020008B3020008DB
:10013000B3020008B3020008B3020008B3020008CB
:10014000B3020008B3020008B3020008B3020008BB
:10015000B3020008B3020008B3020008B3020008AB
:10016000B3020008B3020008B3020008B30200089B
:10017000B3020008B3020008B30200080000000048
:10018000B3020008B3020008B3020008B30200087B
:10019000B3020008B3020008B3020008B30200086B
:1001A000B3020008B3020008B3020008B30200085B
:1001B000B3020008B3020008B3020008B30200084B
:1001C000B3020008B302000800000000B3020008F8
:1001D000B3020008B3020008B3020008B30200082B
:1001E000B3020008B3020008B3020008B30200081B
:1001F000B3020008B302000800F002F800F03CF877
:100200000AA090E8000C82448344AAF10107DA4571
:1002100001D100F031F8AFF2090EBAE80F0013F087
:10022000010F18BFFB1A43F001031847201D0000FF
:10023000401D0000103A24BF78C878C1FAD8520790
:1002400024BF30C830C144BF04680C607047000050
:100250000023002400250026103A28BF78C1FBD8CF
:10026000520728BF30C148BF0B6070471FB501F06F
:100270005BFE1FBD10B510BD00F033F81146FFF74F
:10028000F5FF01F007FE00F051F803B4FFF7F2FFAD
:1002900003BC01F0CEFD0000094880470948004733
:1002A000FEE7FEE7FEE7FEE7FEE7FEE7FEE7FEE726
:1002B000FEE7FEE704480549054A064B7047000083
:1002C000B9150008F9010008000202200008022008
:1002D00000040220000402207047704770477047F6
:1002E0007047754600F02CF8AE4605006946534647
:1002F00020F00700854618B020B5FFF7DBFFBDE80A
:1003000020404FF000064FF000074FF000084FF07C
:10031000000B21F00701AC46ACE8C009ACE8C0090D
:10032000ACE8C009ACE8C0098D46704710B504467A
:10033000AFF300802046BDE81040FFF7A6BF0000E5
:1003400000487047A0010220FEE7000070B4BFF330
:100350004F8FBFF36F8F1A4900200860194D29682D
:1003600041F400312960BFF34F8FBFF36F8F1649FF
:100370000860BFF34F8F081F006843F6FF76134AEB
:10038000C0F34E3CC0F3C90406EA4C11204641EAD2
:1003900080731360401EFAD2BCF1010CF4D2BFF39B
:1003A0004F8F286840F480302860BFF34F8FBFF331
:1003B0006F8F0748016841F00401016070BC70470D
:1003C00050EF00E014ED00E084ED00E060EF00E0AD
:1003D0009CEF00E0704790F83510022903D080218F
:1003E000416501207047052180F8351000680168DB
:1003F00021F0010101600020704700002DE9F84F55
:10040000DFF81C920022DFF814820F2709F1040A9A
:100410004FF0010E0B680EFA02F52B40AB4240F094
:10042000F780D1F804C0BCF1020F18BFBCF1120F65
:1004300012D14FEAD20C00EB8C0CDCF82060540790
:10044000E40E07FA04FB26EA0B06D1F810B00BFA0B
:1004500004F43443CCF8204006684FEA420C91F88B
:1004600004B003240BF0030B04FA0CF4A6430BFABC
:100470000CFB4BEA060606604E68012E18BF022EE2
:1004800003D0112E18BF122E11D18668D1F80CB0EE
:10049000A6430BFA0CFB4BEA06068660466826EA82
:1004A00005050E79C6F30016964035434560C568CC
:1004B00025EA04048D6805FA0CFC4CEA040CC0F82B
:1004C0000CC0D1F804C01CF0805F7CD0D8F800C00C
:1004D0004CF4804CC8F800C0D8F800C00CF4804C34
:1004E000CDF800C022F0030C0CF1804505F59835DD
:1004F000D5F808C89407240F07FA04F62CEA060674
:10050000A0F1804CBCF5003C48D0A0F1804CBCF57B
:10051000013C08BF4FF0010C40D0A0F1804CBCF56D
:10052000023C08BF4FF0020C38D0A0F1804CBCF563
:10053000033C08BF4FF0030C30D0A0F1804CBCF559
:10054000043C08BF4FF0040C28D0A0F1804CBCF54F
:10055000053C08BF4FF0050C20D0A0F1804CBCF545
:10056000063C08BF4FF0060C18D0A0F1804CBCF53B
:10057000073C08BF4FF0070C10D0A0F1804CBCF531
:10058000083C08BF4FF0080C08D0A0F1804CBCF527
:10059000093C0CBF4FF0090C4FF00A0C0CFA04FC9C
:1005A0004CEA060CC5F808C8D9F800C04C682CEA1B
:1005B000030C14F4803F18BF4CEA030CC9F800C0C8
:1005C000DAF800C000E023E04C682CEA030C14F4D5
:1005D000003F18BF4CEA030CCAF800C0114CD4F815
:1005E00000C04D682CEA030C15F4801F18BF4CEABC
:1005F000030CC4F800C00C4CD4F800C04D682CEAC1
:10060000030C15F4001F18BF4CEA030CC4F800C01B
:10061000521C102AFFF4FEAEBDE8F88F44380240A9
:10062000003C0140083C01400C3C0140002A08BF4E
:1006300009048161704700000148006870470000AC
:100640000400022002480168491C01607047000054
:1006500004000220074810B5016841F400710160F0
:10066000052000F05DF80F2000F006F800F018F803
:10067000002010BD003C024010B5044607484FF46E
:100680007A720068B0FBF2F000F0C6FB002221464F
:10069000501E00F013F8002010BD000000000220E2
:1006A0007047012200F01F0102FA01F140098000A9
:1006B00000F1E020C0F8001170470000174B4DF822
:1006C000044D1B68C3F30223C3F1070CBCF1040FF4
:1006D00088BF4FF0040C1C1D072C34BF0023DB1E09
:1006E000012404FA0CFCACF1010C0CEA0101994064
:1006F00004FA03F35B1E1A40114300284FEA01116C
:10070000B8BF00F00F0000F1E020B4BF80F8141D66
:1007100080F800145DF8044B704700000CED00E019
:10072000074A00F0070011684FF6FF03194041EA3D
:10073000002040F0FD7040F08060106070470000C5
:100740000CED00E01C4838B5016841F080510160B3
:1007500000681A4C00F080500090206840F480300F
:100760002060FFF769FF0546606810F4803F09D1FB
:10077000FFF762FF401BB0F57A7F14D8606810F471
:10078000803FF5D0206840F400302060FFF754FF30
:100790000546606810F4003F0BD1FFF74DFF401B8A
:1007A000B0F57A7F01D9032038BD606810F4003FAE
:1007B000F3D0002038BD00004038024000700040F7
:1007C0002DE9F047DFF8688104460D46D8F80000AF
:1007D00000F00F00A8420CD2D8F8000020F00F0063
:1007E0002843C8F80000D8F8000000F00F00A84225
:1007F00070D120784F4F10F0020F05D03868A168F3
:1008000020F0F00008433860207810F0010F4ED03F
:1008100060684949012820D00968022822D011F0D7
:10082000020F57D0396821F0030108433860FFF701
:1008300003FF0646606841F28839012816D0022875
:10084000386800F00C0021D0F8B1FFF7F5FE801BEE
:10085000484528D90320BDE8F087096811F4003F16
:10086000E0D137E011F0007FDCD133E0386800F0F0
:100870000C0004281BD0FFF7DFFE801B4845E9D899
:10088000386800F00C000428F5D110E008280ED0DC
:10089000FFF7D2FE801B4845DCD8386800F00C001A
:1008A0000828F5D103E0386810F00C0FCDD1D8F846
:1008B000000000F00F00A8420FD9D8F8000020F087
:1008C0000F002843C8F80000D8F8000000F00F001F
:1008D000A84202D00120BDE8F087207810F0040F74
:1008E00005D03868E16820F4E0500843386020788B
:1008F00010F0080F06D03868216920F4604040EA03
:10090000C100386000F04EF83968F02292FAA2F285
:1009100001F0F001B2FA82F2D140084A515CC840BD
:10092000074908600F20FFF7A7FE0020BDE8F08709
:10093000003C02400838024000380240321F0008E4
:100940000000022008480949006809684FF4E05295
:1009500092FAA2F201F4E051B2FA82F2D140044AD2
:10096000515CC84070470000000002200838024077
:10097000421F000808480949006809684FF46042AE
:1009800092FAA2F201F46041B2FA82F2D140044A32
:10099000515CC84070470000000002200838024047
:1009A000421F00082148006810F00C01204808BFD1
:1009B0007047DFF880C0042904BF604670470829EB
:1009C00018BF70474DF8044D1B4A1168136801F0B9
:1009D0003F0113F4800F47F6C0730BD0BCFBF1F05E
:1009E0001168194093FAA3F3B3FA83F3D94000FBDB
:1009F00001F00AE0B0FBF1F01168194093FAA3F39B
:100A0000B3FA83F3D94000FB01F011684FF4403290
:100A10005DF8044B92FAA2F201F44031B2FA82F28C
:100A2000D140491C4900B0FBF1F070470838024042
:100A30000024F40040787D01043802402DE9F84F8D
:100A4000DFF8A88304460078A8F1040710F0010F2E
:100A5000A7F104055AD0D8F8000000F00C000428D3
:100A600009D0D8F8000000F00C0008280CD1386834
:100A700010F4800F08D0286810F4003F46D060685A
:100A8000002800F0AF8141E06068B0F5803F04BF0E
:100A9000286840F480300AD010B1B0F5A02F11D0F2
:100AA000286820F480302860286820F4802028609E
:100AB0006068D0B1FFF7C0FD0646286810F4003F1B
:100AC00008D023E0286840F480202860286840F49B
:100AD0008030ECE7FFF7B0FD801B642800F2258131
:100AE000286810F4003FF5D010E0FFF7A5FD06469A
:100AF000286810F4003F09D0FFF79EFD801B642892
:100B000000F21381286810F4003FF5D1207810F02E
:100B1000020F50D0D8F800004FF0F80910F00C0F79
:100B200018D0D8F8000000F00C00082804BF38687E
:100B300010F4800F0ED0E0680028286828D040F01C
:100B400001002860FFF778FD0646286810F0020FC4
:100B500009D011E0286810F0020F1CBFE0680128DE
:100B60000AD000F03FB9FFF767FD801B02287DD84F
:100B7000286810F0020FF6D0286899FAA9F22169C6
:100B8000B2FA82F220F0F80091400843286012E0A7
:100B900020F001002860FFF74FFD0646286810F09E
:100BA000020F08D0FFF748FD801B02285ED8286896
:100BB00010F0020FF6D1207810F0080F33D0DFF8D4
:100BC000309260690028D9F8000016D040F001008A
:100BD000C9F80000FFF730FD0646D9F8000010F014
:100BE000020F20D1FFF728FD801B02283ED8D9F83C
:100BF000000010F0020FF5D015E020F00100C9F858
:100C00000000FFF719FD0646D9F8000010F0020FAA
:100C100009D0FFF711FD801B022827D8D9F8000062
:100C200010F0020FF5D1207810F0040F63D0714856
:100C3000016841F08051016000686F4E00F0805003
:100C40000090306840F480703060FFF7F5FC81461A
:100C5000306810F4807F0BD1FFF7EEFCA0EB0900A9
:100C6000642862D8306810F4807F00E05DE0F3D043
:100C7000A068624E012804BF306840F0010009D02E
:100C800008B1052813D0306820F0010030603068CA
:100C900020F004003060A06841F2883AD0B1FFF73C
:100CA000CBFC8146306810F0020F08D023E030689A
:100CB00040F004003060306840F00100EAE7FFF7E0
:100CC000BBFCA0EB090050452FD8306810F0020F94
:100CD000F5D010E0FFF7B0FC8146306810F0020F4D
:100CE00009D0FFF7A9FCA0EB090050451DD83068DA
:100CF00010F0020FF5D1A069E8B3D8F8001001F0A8
:100D00000C0108296ED00228286820F08070286025
:100D10000ED0FFF791FC0446286810F0007F5ED0EB
:100D2000FFF78AFC001B022855D90320BDE8F88F85
:100D3000FFF782FC0646286810F0007F08D0FFF716
:100D40007BFC801B0228F0D8286810F0007FF6D1C9
:100D5000D4E9070147F6C0724FF0FF3392FAA2F2CE
:100D60000843616AB2FA82F29140A26A03EB52022E
:100D70004FF4403300E032E093FAA3F3B3FA83F385
:100D80009A4011434FF070620843E16A92FAA2F26E
:100D9000B2FA82F291404FF0E0420843216B92FA9E
:100DA000A2F2B2FA82F2914008433860286840F01B
:100DB00080702860FFF740FC0446286810F0007F30
:100DC0000DD1FFF739FC001B0228AED8286810F0BF
:100DD000007FF6D003E0286810F0007FA0D100204B
:100DE000BDE8F88F0120BDE8F88F00000838024008
:100DF00074380240403802400070004070380240B1
:100E00004FF0E021042808690CBF40F0040020F0F6
:100E10000400086170470000401EB0F1807F24BFCD
:100E2000012070474FF0E0214861F020044A82F829
:100E3000140D002088610720086100207047000021
:100E40000FE000E02DE9F041044690F838000D462F
:100E500001280DBF0220012684F83860BDE8F0812A
:100E6000022084F839000C2A47D006DC6AB1042A33
:100E70001DD0082A2FD000F0BFB8DFF88CC1102A8F
:100E8000624F4ED0142A7DD0B6E0206800F055FCA9
:100E90002068816941F0080181612068816921F041
:100EA00004018161206881692A69114311E0206889
:100EB00000F077FC2068816941F40061816120685D
:100EC000816921F480618161206881692A6941EA30
:100ED0000221816190E0206800F09BFC2068C169DC
:100EE00041F00801C1612068C16921F00401C161BC
:100EF0002068C1692A69114311E0206800F0C1FC33
:100F00002068C16941F40061C1612068C16921F4B0
:100F10008061C1612068C1692A6941EA0221C16119
:100F20006AE02068016A21F480310162036A416845
:100F3000426D23F40033D5F80080604522F0700242
:100F400022F4803248EA0202B5F8088043EA0843F6
:100F500018BFB84205D1D5F814C021F4803141EA58
:100F60000C21416042656968816503622068416DBA
:100F700041F0080141652068416D21F0040141659F
:100F8000206800E003E0416D2A69114333E02068E6
:100F9000016A21F480110162036A4168426D23F401
:100FA0000013D5F80080604522F4E04222F0807200
:100FB00042EA0822B5F8088043EA085318BFB8424D
:100FC00005D1D5F814C021F4802141EA8C2141607B
:100FD00042656968C16503622068416D41F4006142
:100FE00041652068416D21F4806141652068416D53
:100FF0002A6941EA0221416584F83960002084F8B9
:101000003800BDE8F081000000000140000401400C
:10101000002804BF0120704710B5044690F839003D
:1010200028B9002084F83800204600F00DF802208E
:1010300084F839002068211D00F010FB012084F89D
:101040003900002010BD000012484DF804ED87B0B3
:10105000016841F002010160006800F002000590A3
:101060000D48016841F0020101600068012100F0B3
:1010700002000590402000900220CDE901010321EB
:10108000CDE9031005486946FFF7B8F907B05DF8E8
:1010900004FB0000403802403038024000000240AB
:1010A00010B501220446006800F03AFB2168A1F166
:1010B0008040B0F580301CBFA1F18040B0F5823097
:1010C00003D1486C40F4004048642068016841F056
:1010D00001010160002010BD704790F8691090F880
:1010E0006A0008437047000070B501680446C8698B
:1010F0000A688B6810F00F0F4FF0200551D040F2B6
:10110000011C13EA0C0F7DD010F0010F18BF12F470
:10111000807F07D04FF0010CC1F820C0E16E41F094
:101120000101E16610F0020F18BF13F0010F08D0A3
:10113000D4F800C00221CCF82010E16E41F0040187
:10114000E16610F0040F18BF13F0010F08D0D4F8B7
:1011500000C00421CCF82010E16E41F00201E166EC
:1011600010F0080F0CD002F0200103F00103194326
:1011700006D0236808211962E16E41F00801E1669A
:10118000E16E002908BF70BD10F0200F1EBF12F0E5
:10119000200F204600F051FCE06E10F0080F10D137
:1011A0000AE010F0200F18BF12F0200F39D02046AF
:1011B000BDE8704000F041BC2068806810F0400F2E
:1011C00029D02068016821F490710160206881684D
:1011D00021F00101816084F86A502068816811F073
:1011E000400F14D0816821F040018160606E70B1C1
:1011F0002D490165606EFFF7EEF8002808BF70BD4D
:10120000606E00E00DE0016DBDE8704008472046CB
:10121000FFF762FF70BD2046FFF75EFF0020E0662B
:1012200070BD10F0800F18BF12F0800F2CD094F812
:101230006900212818BF70BDB4F8520090B1A068B1
:10124000B0F5805F04BF20690028E06C14D0411C19
:10125000E164216800788862B4F85200401EA4F866
:10126000520070BD086820F08000086020680168A6
:1012700041F04001016070BD0088C0F30800886241
:10128000E06C801CE064E7E710F0400F14BF12F040
:10129000400F70BD20460A6822F040020A6084F8C0
:1012A000695000F00BF970BD271A0008002804BF30
:1012B0000120704710B5044690F8690028B9002055
:1012C00084F86800204600F029F8242084F869009A
:1012D0002068016821F001010160204600F0ECFB6C
:1012E000012808BF10BD606A00281CBF204600F01E
:1012F000FDFA2068416821F49041416020688168CE
:1013000021F02A0181602068016841F0010101603B
:101310002046BDE8104000F056BB000010B5006844
:1013200086B0A0F18041B1F588311CBF06B010BD78
:101330001848016841F001010160006800F00100F7
:1013400005901548016841F0100101600068012115
:10135000124C00F0100005904FF400700090022035
:10136000CDE9010103900720694604902046FFF76C
:1013700045F82115204600916946FFF73FF82520E2
:10138000FFF78FF9032225201146FFF797F906B0E2
:1013900010BD0000303802404438024000000240D6
:1013A00090F86A30202B49D1002912BF002A012071
:1013B000704790F86830012B40D0012380F86830E6
:1013C0004165A0F85820A0F85A20FF228168B1F5A5
:1013D000805F05D07F2351B1B1F1805F0CD012E066
:1013E0000169002908BF40F2FF1102D109E001693B
:1013F00009BBA0F85C2006E00169002918BF3F2165
:1014000019D0A0F85C100021C166222280F86A2061
:1014100080F8681001680A6842F480720A60016806
:101420008A6842F001028A600068016841F0200188
:10143000016000207047A0F85C30E4E702207047AC
:101440004DF8044D0068A0F18041B1F588311CBF12
:101450005DF8044B7047174A508810F4004F1CBFCA
:101460005DF8044B704710F4804F4FF000031149B2
:10147000097808D00A2908BF40F4004016D05380EC
:101480005DF8044B70470D2908BF40F480400DD033
:10149000094CC0F30D0C401C80B2C72804F80C1096
:1014A00050809CBF5DF8044B7047E8E750805DF8C2
:1014B000044B70470C000220100002207047FEE72A
:1014C000104810B586B0016841F002010160006863
:1014D00001210D4C00F0020005900320CDE9000130
:1014E000CDE9021069462046FEF788FF012220461A
:1014F0001146FFF79BF8012220460221FFF796F8DC
:1015000006B010BD3038024000040240FEE77047CC
:1015100070477047DFF894C010B594B0DCF8004015
:1015200044F08054CCF80040DCF800C00CF0805C43
:10153000CDF848C0DFF878C0DCF8004044F44044FF
:10154000CCF80040DCF800C002240CF4404CCDF88C
:1015500048C04FF0010CCDF800C04FF4803CCDF8EE
:1015600004C04FF4800CCDE90810CDE90A23CDE981
:10157000064C6846FFF762FA00B1FEE7FFF7E2F8B3
:1015800000B1FEE70F20CDE90D0400200F904FF4CD
:10159000A05010904FF48050119007210DA8FFF734
:1015A0000FF9002804BF14B010BDFEE74038024018
:1015B00000700040FFF746B80F48016841F4700121
:1015C00001600E48016841F0010101600C4A0021F0
:1015D0001160026822F4102222F080720260031D62
:1015E000084A1A60026822F48022026006480160FC
:1015F000580606490860704788ED00E00038024050
:1016000008380240103000240C38024008ED00E099
:10161000104A10B504460E48C2E900010020C2E994
:10162000020410611046FFF7F3FC0B486021002212
:101630000160610841600221816001463C38FFF78A
:1016400001FCBDE8104003480021FFF729BD000060
:10165000000400404801022084010220F0B4026826
:101660002A4BDFF8ACC02B4D98422B4E2B4C18BFA9
:10167000B0F1804F07D0604518BFA84203D0B042F8
:1016800018BFA04203D14F6822F070023A4398423B
:1016900018BFB0F1804F25D0604518BFA84221D0B7
:1016A000B04218BFA0421DD0A0F1804CBCF5A03CB8
:1016B0001CBFA0F1804CBCF5A23C13D0A0F1804C23
:1016C000BCF5A43C1CBFA0F1804CBCF5C05C09D0AB
:1016D000A0F1804CBCF5E05C1CBFA0F1804CBCF5D7
:1016E000005C05D1D1F80CC022F440724CEA020231
:1016F00002608A68C2620A688262984212BFA0428F
:101700000969016301214161F0BC7047000001409B
:101710000004004000080040000C004000040140AC
:101720000123D0F820C08B402CEA03030362036A34
:1017300002FA01F11943016270474DF8044D026A43
:1017400022F001020262036A4268D0F818C023F056
:1017500002030C682CF0730C2CF4803C44EA0C0C53
:101760008C682343A0F18044B4F580341CBFA0F101
:101770008044B4F582340BD1CC6823F0080322F402
:10178000407223434C6923F0040322438C692243B3
:101790004260C0F818C04968416303625DF8044BB9
:1017A00070474DF8044D026A22F010020262036A8B
:1017B0004268D0F818C023F020030C682CF4E64CE3
:1017C0002CF0807C4CEA042C8C6843EA0413A0F1D2
:1017D0008044B4F580341CBFA0F18044B4F5823459
:1017E0000ED1CC6823F0800322F4406243EA041354
:1017F0004C6923F0400342EA84028C6942EA840285
:101800004260C0F818C04968816303625DF8044B08
:1018100070474DF8044D026A22F480720262036A36
:101820004268D0F81CC023F400730C682CF0730CD1
:101830002CF4803C44EA0C0C8C6843EA0423A0F1AD
:101840008044B4F580341CBFA0F18044B4F58234E8
:101850000ED1CC6823F4006322F4405243EA0423FF
:101860004C6923F4806342EA04128C6942EA041250
:101870004260C0F81CC04968C16303625DF8044B54
:1018800070474DF8044D026A22F480520262D0F88B
:1018900020C04268C3692CF4005C0C6823F4E64362
:1018A00023F0807343EA04238C684CEA043CA0F1E3
:1018B0008044B4F580341CBFA0F18044B4F5823478
:1018C00004D14C6922F4804242EA84124260C3612E
:1018D00049680164C0F820C05DF8044B70470000FF
:1018E00001490860704700003404004090F824105B
:1018F00011F0010F06D001684A68836A22F40032B1
:101900001A434A6090F8241011F0020F06D00168C3
:101910004A68C36A22F480321A434A6090F824105D
:1019200011F0040F06D001684A68036B22F480228C
:101930001A434A6090F8241011F0080F06D001688D
:101940004A68436B22F400421A434A6090F824101C
:1019500011F0100F06D001688A68836B22F4805260
:101960001A438A6090F8241011F0200F06D0016805
:101970008A68C36B22F400521A438A6090F82410DC
:1019800011F0400F11D001684A68036C22F48012F4
:101990001A434A60016CB1F5801F06D101684A689C
:1019A000436C22F4C0021A434A6090F8241011F0EC
:1019B000800F08BF704701684A68806C22F40022DB
:1019C000104348607047F8B500260446C666FEF727
:1019D00033FE0746206800686FF07E4510F0080F60
:1019E00008D000223B464FF400112046009500F03D
:1019F000B7F968B92068006810F0040F0AD0002217
:101A00003B464FF480012046009500F0A9F908B14B
:101A10000320F8BD202084F8690084F86A000020C3
:101A200084F86860F8BD10B5806B0021A0F85A10EA
:101A3000A0F85210FFF750FB10BD10B5B0F85C20B5
:101A400090F86A300168222B05D0886940F00800C0
:101A50008861022010BD8368B3F5805F04BF03690D
:101A6000002B20D0496A0A40416D4B1C43650A7027
:101A7000B0F85A10491E0904090CA0F85A101CBFEE
:101A8000002010BD01680A6822F490720A600168A3
:101A90008A6822F001028A60202180F86A10FFF72C
:101AA000CFFC002010BD436D496A11401980416D83
:101AB000891C4165DCE7000070B504468068102190
:101AC000002223691546D4F81CC01843636943EA11
:101AD0000C0303432068D0F800C09D4E0CEA060CAE
:101AE0004CEA0303036020684368D4F80CC023F475
:101AF000405343EA0C034360236AA0690343206810
:101B0000D0F808C02CF4306C4CEA030383602068E2
:101B1000904BA0F1804CBCF5883C23D0A0F1804CC8
:101B2000BCF5884C29D0A0F1804CBCF5904C2FD04E
:101B3000A0F1804CBCF5984C35D0A0F1804CBCF5A0
:101B4000A04C3BD0A0F1804CBCF58A3C44D0A0F125
:101B5000804CBCF5F04C4FD0A0F1804CBCF5F84C5B
:101B600058D06CE01B6813F0030343D0012B63D003
:101B7000022B5FD0032B61D061E01B6813F00C03D4
:101B800056D0042B58D0082B54D00C2B56D056E0EE
:101B90001B6813F030034BD0102B4DD0202B49D0B5
:101BA000302B4BD04BE01B6813F0C00340D0402BD0
:101BB00042D0802B3ED0C02B40D040E01B6813F4B5
:101BC000407335D0B3F5807F36D0B3F5007F31D088
:101BD000B3F5407F32D032E01B6813F4406309D084
:101BE000B3F5806F28D0B3F5006F23D0B3F5406F05
:101BF00024D024E0012122E01B6813F4405317D0C5
:101C0000B3F5805F18D0B3F5005F13D0B3F5405F34
:101C100014D014E01B6813F4404309D0B3F5804F8F
:101C20000AD0B3F5004F05D0B3F5404F06D006E01B
:101C3000002104E0022102E0042100E00821E36920
:101C4000B3F5004F08D009297FD2DFE801F04652F2
:101C50005E7E677E7E7E7400092935D2DFE801F062
:101C6000050F1934213434342B00FEF76BFE41008C
:101C7000606801EB5001B1FBF0F082B225E0FEF7A5
:101C800079FE4100606801EB5001B1FBF0F082B2D7
:101C90001BE06068304901EB5001B1FBF0F082B20B
:101CA00013E0FEF77FFE4100606801EB5001B1FBDD
:101CB000F0F082B209E060684FF4803101EB50012E
:101CC000B1FBF0F082B200E0012522F00F00C2F378
:101CD000420108432168C86038E0FEF733FE014640
:101CE000606801EB5001B1FBF0F0216880B2C86080
:101CF0002CE0FEF73FFE0146606801EB5001B1FBAE
:101D0000F0F0216880B2C86020E06168134A02EBFD
:101D10005102B2FBF1F189B2C16017E0FEF742FE59
:101D20000146606801EB5001B1FBF0F0216880B220
:101D3000C8600BE009E061684FF4004202EB510219
:101D4000B2FBF1F189B2C16000E00125284670BD07
:101D5000F369FFEF903802400048E8010024F400E6
:101D60002DE9F041044600681E461746069D884648
:101D7000C06931EA00000CBF01200020B84226D122
:101D8000B5F1FF3F1AD025B1FEF756FC801BA842E3
:101D900014D32068016821F4D07101602068816843
:101DA00021F001018160202084F8690084F86A0034
:101DB000002084F868000320BDE8F0812068C06935
:101DC00038EA00000CBF01200020B842D8D0002023
:101DD000BDE8F08170B5134D00241348FFF784F976
:101DE0001148FFF77AF9202807D0641CAC4204D8C8
:101DF0000D48FFF772F92028F7D10C4900240A4852
:101E00000122FFF7CDFA002808BF70BD641CAC4268
:101E100088BF70BD012205490348FFF7C1FA0028B9
:101E2000F4D170BDFFFF0100D80002200C00022099
:101E3000FEE7704710B504460420FEF7E1FF0148B5
:101E4000046010BD08000220F0B4002400289CBFEC
:101E5000F0BC70470E494FF47A724FF0E0260968E3
:101E600001FB02F5D6F814C00021B369B2699A42A9
:101E7000FCD026BFACEB02073B449B1A1944134627
:101E8000A942F3D3641C8442ECD3F0BC7047000039
:101E90000800022001250024FEF758FAFEF7DAFBBD
:101EA0000923022219214FF4D870FFF733FBD82001
:101EB000FFF7C0FF4FF4E13000F01AF8FFF700FB26
:101EC0006B2140F2F310FFF7A3FB0A20FFF7BCFFE2
:101ED000002D14BF601C601E84B2B4F5967F88BFCD
:101EE0000025002C08BF01252046FFF7F9FCECE790
:101EF0000B490A4A10B5C1E9002000208860C8607B
:101F0000086188610C2048610846FFF7CFF9BDE8F9
:101F10001040044901220248FFF742BA0010014074
:101F2000D80002200C0002204FF04070E1EE100AB1
:101F300070470000000000000000010203040607D3
:101F40000809000000000102030400006C1F0008E3
:101F50000000022010000000340200087C1F00086E
:101F600010000220F0070000500200080024F400D6
:0C1F700000000000000000000000000065
:04000005080001F9F5
:00000001FF
