:020000040800F2
:10000000A0C00420F50200086DB90008A78D000803
:10001000F5B80008950F000855030108000000001E
:100020000000000000000000000000003BC60008C7
:10003000B11600080000000099BC0008C1C6000805
:100040000F0300080F0300080F0300080F03000848
:100050000F0300080F0300080F0300080F03000838
:100060000F0300080F0300080F0300080F03000828
:100070000F0300080F0300080F0300080F03000818
:100080000F0300080F0300080F0300080F03000808
:100090000F0300080F0300080F0300080F030008F8
:1000A0000F0300080F0300080F0300080F030008E8
:1000B0000F0300089DEE0008D5EE00080F030008AE
:1000C0000F0300080F0300080F0300080F030008C8
:1000D0000F030008110301080F0300080F030008B5
:1000E0000F0300080F0300080F0300080F030008A8
:1000F0000F0300080F0300080F0300080F03000898
:100100000F0300080F0300080F0300080F03000887
:100110000F0300080F0300080F0300080F03000877
:100120000F0300080F0300080F0300080F03000867
:100130000F0300080F0300080F0300080F03000857
:100140000F0300080F0300080F0300080F03000847
:100150000F0300080F0300080F0300080F03000837
:100160000F0300080F0300080F0300080F03000827
:100170000F0300080F0300080F0300080000000031
:100180000F0300080F0300080F0300080F03000807
:100190000F0300080F0300080F0300080F030008F7
:1001A0000F0300080F0300080F0300080F030008E7
:1001B0000F0300080F0300080F0300080F030008D7
:1001C0000F0300080F030008000000000F030008E1
:1001D0000F0300080F0300080F0300080F030008B7
:1001E0000F0300080F0300080F0300080F030008A7
:1001F0000F0300080F03000800F002F800F06AF88F
:100200000AA090E8000C82448344AAF10107DA4571
:1002100001D100F05FF8AFF2090EBAE80F0013F059
:10022000010F18BFFB1A43F001031847744F020077
:10023000944F02000A444FF0000C10F8013B13F0F9
:10024000070408BF10F8014B1D1108BF10F8015B2F
:10025000641E05D010F8016B641E01F8016BF9D122
:1002600013F0080F1EBF10F8014BAD1C0C1B09D179
:100270006D1E58BF01F801CBFAD505E014F8016BEB
:1002800001F8016B6D1EF9D59142D6D3704700007D
:100290000023002400250026103A28BF78C1FBD88F
:1002A000520728BF30C148BF0B607047642900F077
:1002B000AD80752900F0AA80782900F0E3807329C9
:1002C00000F01283002070471FB518F059FE1FBDC3
:1002D00010B510BD00F0A2FB1146FFF7F5FF18F0B6
:1002E00057FD00F0C0FB03B4FFF7F2FF03BC18F0AA
:1002F00011FD00000948804709480047FEE7FEE776
:10030000FEE7FEE7FEE7FEE7FEE7FEE7FEE7FEE7C5
:1003100004480549054A064B70470000C5C6000859
:10032000F9010008A0B40420A0C00420A0B6042055
:10033000A0B60420704700000FB4044910B503AA0A
:10034000029800F0D5FA10BC5DF814FB10000220F2
:100350002DE9F0410E460446002020622046E16867
:10036000884730B3252805D0D4E901219047206A79
:10037000401CF2E7E168204600278847050018D0B6
:10038000A5F14100192802D820354FF40067324604
:10039000294620462760FFF789FF40B1012804D095
:1003A000F61D26F007060836D8E7361DD6E728469C
:1003B000DAE7206ABDE8F08170B50C460546012AEF
:1003C00005D02878800600D5EA69002302E00123E1
:1003D00005E05B1C934202D2E05C0028F9D1A869D9
:1003E000E618C01AA861286A184428622846AFF3A4
:1003F000008004E0D5E9012114F8010B9047B442D4
:10040000F8D32846AFF3008070BD00002DE9F0411D
:100410000646002410687529314616A510D0AFF3A2
:100420000080002802DA404213A507E031688A07FD
:1004300001D512A502E0490704D511A5012401E068
:10044000AFF3008000210A2206F1240709E0B0FB87
:10045000F2FCB0FBF2F302FB1C003030785418467B
:10046000491C0028F3D123462A463046BDE8F04116
:1004700000F0CFB9000000002D0000002B000000AC
:100480002000000070B504460D4621461068AFF309
:1004900000802188090502D50F4A7A4402E00E4AFD
:1004A0007A440E32002104F1240305E000F00F0627
:1004B0000009965D5E54491C0028F7D1207800237E
:1004C000000704D5702D02D009B102231132204655
:1004D000BDE8704000F09DB9024C020040EA010303
:1004E00010B59B070FD1042A0DD310C808C9121FDD
:1004F0009C42F8D020BA19BA884201D9012010BD17
:100500004FF0FF3010BD1AB1D30703D0521C07E0E3
:10051000002010BD10F8013B11F8014B1B1B07D147
:1005200010F8013B11F8014B1B1B01D1921EF1D1B8
:10053000184610BD40EA0103024630B59B0710D1B2
:100540004FF0013400E008C208C91D1B9D4315EAA5
:10055000C41FF8D013F0FF0102F8011B0DD01B0AD5
:10056000F8E711F8013B002B02F8013B05D011F828
:10057000013B002B02F8013BF3D130BD10B5431C09
:1005800002E010F8011B71B18107FAD14FF001327E
:1005900002C88C1A8C4314EAC211F9D0C01A0A0698
:1005A00003D0C01E10BDC01A10BD0A0401D0801EA9
:1005B00010BD0902FCD0401E10BD032A40F230805D
:1005C00010F0030C00F0158011F8013BBCF1020F94
:1005D000624498BF11F801CB00F8013B38BF11F815
:1005E000013BA2F1040298BF00F801CB38BF00F82C
:1005F000013B11F0030300F06780083AC0F0088067
:1006000051F8043B083A51F804CBA0E80810F5E78C
:10061000121D5CBF51F8043B40F8043BAFF300806F
:10062000D20724BF11F8013B11F801CB48BF11F8E4
:10063000012B24BF00F8013B00F801CB48BF00F8B4
:10064000012B7047431A28BF9A427FF6B6AF032AA0
:100650001044114440F2268010F0030F1EBF11F821
:10066000013D521E00F8013D10F0030F7FF4F6AF7C
:1006700011F0030300F06181083AC0F00B8051F8DB
:10068000043D083A51F804CD40F8043D40F804CD4B
:10069000FFF7F3BF121D5CBF51F8043D40F8043D65
:1006A000AFF30080D20724BF11F8013D11F801CD4E
:1006B00048BF11F8012C24BF00F8013D00F801CD1E
:1006C00048BF00F8012C704710B5203AC0F00B80ED
:1006D000B1E81850203AA0E81850B1E81850A0E846
:1006E0001850BFF4F5AF5FEA027C24BFB1E81850A0
:1006F000A0E8185044BF18C918C0BDE810405FEA10
:10070000827C24BF51F8043B40F8043B08BF70478B
:10071000D20728BF31F8023B48BF11F8012B28BF90
:1007200020F8023B48BF00F8012B704702F0FF039E
:1007300043EA032242EA024200F02BB94FF00002E2
:1007400000B5134694469646203922BFA0E80C50C7
:10075000A0E80C50B1F12001BFF4F7AF090728BFA2
:10076000A0E80C5048BF0CC05DF804EB890028BF1E
:1007700040F8042B08BF704748BF20F8022B11F047
:10078000804F18BF00F8012B704700004FF0013C6C
:1007900050F8042B51F8043B9A4215D1A2EB0C03FC
:1007A000934313EACC130BD150F8042B51F8043BBC
:1007B0009A4209D1A2EB0C03934313EACC13E7D07E
:1007C0004FF00000704700BFD01A01BAB1FA81F1B2
:1007D00001F0180122FA01F0CB40C1F12001DBB297
:1007E000C0B2C01A2CFA01F3D11A914311EAC31115
:1007F000E6D17047704770477047704710B500F0FA
:10080000E9F8006810BD10B5044600F0E3F8046094
:1008100010BD2DE9F0470D4699469246044600F179
:1008200024080168880604D5E06921F010012160E0
:1008300000E00120A84201DD471B00E00027A1697C
:100840007A1902EB0900081AA0612078C00602D4C8
:100850002046AFF30080002608E0D4E901211AF811
:1008600006009047206A401C761C20624E45F4DB4F
:100870002078C0060AD52046AFF3008006E0D4E910
:10088000012130209047206A401C2062381EA7F1C9
:100890000107F4DC07E0D4E9012118F805009047CE
:1008A000206A401C2062281EA5F10105F3DC2046C9
:1008B000AFF300802078000602D50220BDE8F08763
:1008C0000120FBE710B5436913B1AFF3008001E0ED
:1008D000FFF772FD012010BD127800F124010A70AB
:1008E00000224A700122EDE711684FF0FF32E9E77C
:1008F000074B70B50D467B4400F075F8044628465A
:1009000000F084F810B14FF0FF3070BD204670BD8C
:1009100083840100431A28BF9A427FF6D5AE104463
:1009200010F0030F11441EBF11F8013D521E00F8D4
:10093000013D10F0030F7FF4F6AF103AC0F00A80CB
:1009400010B531E91850103A20E91850BFF4F9AF4A
:10095000BDE81040530724BF31E9081020E9081012
:1009600044BF51F8043D40F8043D12F0030F08BFA6
:100970007047D20728BF31F8023D48BF11F8012C5B
:1009800028BF20F8023D48BF00F8012C70474FF007
:1009900000020429C0F0128010F0030C3FF4D0AE26
:1009A000CCF1040CBCF1020F18BF00F8012BA8BF5A
:1009B00020F8022BA1EB0C01FFF7C2BE5FEAC17C5D
:1009C00024BF00F8012B00F8012B48BF00F8012BD1
:1009D00070470000004870473CB4042001694A1C7D
:1009E00002610878704700B58FB0CDE90131002170
:1009F000059105497944CDE9031011466846FFF792
:100A0000A7FC0FB000BD0000E5FFFFFF007B00F07A
:100A100080007047004870473CB404207546FFF7DB
:100A2000F9FFAE4605006946534620F007008546AB
:100A300018B020B5FFF76CFCBDE820404FF0000671
:100A40004FF000074FF000084FF0000B21F00701B6
:100A5000AC46ACE8C009ACE8C009ACE8C009ACE8F9
:100A6000C0098D4670470446AFF300802046FFF76B
:100A70003AFC08F0C1B92DE9F0410D4601460020CD
:100A80004E19044608E00702301B401E80B200F0F9
:100A900007F8641C3844E4B2AC42F4D3BDE8F081FA
:100AA00010B5044608F062FA200AA02101EB4000CC
:100AB000C0B208F025FA08F0A9FAE0B208F020FA6E
:100AC00008F0A4FA08F052FAA12008F019FA08F088
:100AD0009DFA002008F0E0F9044608F06FFA20467D
:100AE00010BD2DE9F041002416460D46074609E0E9
:100AF000E00025FA00F0C1B2381980B200F006F823
:100B0000641CE4B2B442F3D3BDE8F08170B50D4685
:100B1000044608F02BFA200AA02101EB4000C0B2E5
:100B200008F0EEF908F072FAE0B208F0E9F908F01E
:100B30006DFA284608F0E4F908F068FA08F03EFA81
:100B4000BDE870400A2018F0F1B8002800DC4042EF
:100B50007047000038B545680446014628460FF046
:100B600013FC00282BD02068304A11280DD006DC59
:100B70000B2825D00E2833D00F2852D112E0282878
:100B800049D0B0F5107F4CD108E09268002A16D009
:100B90002146284601B0BDE830401047214628468E
:100BA0005268F7E7284603F0A7F80090406E046803
:100BB000684603F00BF9002C01D02846A04738BD49
:100BC000284603F099F80090683002F0EBFF009897
:100BD00003216C3002F0F4FF684603F0F7F820E0E0
:100BE000E168486809680D2902D0202913D105E081
:100BF000002810DD284615F0F2FC06E0002804DD90
:100C00002846BDE8384015F0EABC2846BDE8384023
:100C1000022115F0FABCE06818B90021284600F05E
:100C200083F92046BDE838400FF084BEBC020220A4
:100C3000F0B5044685B08069B4F90850668A00278B
:100C4000CDE90265CDE900170490B4F90C00B4F9C0
:100C50001060C118B4F90A00B4F90E5010443346BC
:100C60002A4600F007F80546616800F066F905B00D
:100C70002846F0BD2DE9F04F85B01F46DDE911B4DF
:100C8000DDE90E5690468946824603F08FFF1648EE
:100C90004C34CDE90204CDE900563B464246494674
:100CA00050460FF08FFD040018D003F025F81022F5
:100CB000594604900FF0C8FC049830220B49343098
:100CC000FFF702FD094D04990C3D2868486604A809
:100CD00003F07CF8286841682046884705F0DEF973
:100CE00005B02046BDE8F08F550B0008C802022071
:100CF000F0B5044680688B4989B051F8205060688F
:100D000000287DD0052804D006287AD0122879D171
:100D1000AEE0E86900284FD095E80E008DE80F009E
:100D200004F110010FC905F0B5FD002655F82600A5
:100D300004F02FFDA169E8690A1A2169014460697C
:100D4000304403F0D3FCA169E8690A1A216901441F
:100D5000E069801B03F0CAFCE169E8690A1A61696D
:100D600001442069304403F077FDE169E8690A1A1B
:100D700061690144A069801B03F06EFD761C022EA0
:100D8000D4DBA86804F005FDE069E9696669431AE7
:100D9000206942183144801C521E03F0A7FDE1690E
:100DA000E869A2690B1A61690144101A401C921E7D
:100DB00003F09CFDEE6913E05FF0000655F8260095
:100DC00004F0E7FCE069831BA069821B606981195C
:100DD0002069304403F000FD761C022EEEDB022673
:100DE000D5E90301CDE900016169E06908444310D8
:100DF000A069891C821B2069304403F03BFC02E09F
:100E000089E012E08AE0D5E90501CDE90001E36956
:100E100060690121184401EB6001A0699B1E821BDF
:100E20002069304403F026FC78E0206802F064FF7B
:100E30000490206811F0B0F940B1A06808B100201A
:100E400008E00498006F28B1012003E00498406F87
:100E500000B10220049901EB8000C56E04A802F0E5
:100E6000B5FF00231A462846216803F041FA55E0F1
:100E7000206802F041FF0490866EEEB3B0F95C701A
:100E8000A168D1B3032942D05FF0000100EB8101DA
:100E9000406D0C6C04F09AFC204604F07AFC05A826
:100EA00003F0E6FDBDF81410A88B0144ADF8141052
:100EB000BDF81810081AADF81800BDF81600801C0F
:100EC000ADF81600BDF81A00801EADF81A0004989F
:100ED000B0F96020B0F95E1005A804F051FB04A839
:100EE00002F074FF022004F0DDFC304602F004FF43
:100EF0003A4605A9079001E00BE006E003F042FA4C
:100F00000DF11C0002F062FF08E00121BEE70221A2
:100F1000BCE704A8F6E7206810F074FD09B00020D3
:100F2000F0BD0000045002084FF480720029114601
:100F300001D00FF0BDBA0FF00EBA2DE9FF410E46F9
:100F400005004FF0010421D003F030FE284602F0E6
:100F5000D3FE0190876E01A8009702F037FF31465B
:100F6000684605F059FF78B100980024B84208D0CF
:100F7000284602F0C1FE01900099816601A802F0A6
:100F800025FF284610F042FA05F088F804B0204604
:100F9000BDE8F081FEE7F8B5446805460146204605
:100FA0000FF0F2F9002836D028680B2839D00E2827
:100FB00005D00F2821D0B0F5107F3CD12CE0204681
:100FC00002F09AFE009010F8746F4778684602F0BD
:100FD000FDFE204611F0E0F810B3E86841680029F2
:100FE00029DD0068202826D17F1CB7FBF6F006FB20
:100FF0001071204600F035F91DE02546204602F02C
:101000007BFE0090006F0468684602F0DFFE002C53
:1010100001D02846A047F8BD2946204615F01AFD04
:1010200009E0204602F068FE0090783002F0BAFD38
:10103000684602F0CBFE2846BDE8F8400FF07ABCC7
:10104000F0B585B0B0F90850468A84690296CDE9BA
:1010500003540027CDE90017B0F90C10B0F9105077
:10106000B0F90E40B0F90A00194410442B4622464C
:1010700000F002F805B0F0BD2DE9F04F85B01D4637
:10108000DDE90E9716468A468346DDF8488003F070
:101090008DFD254C0EB135B10AE0206880680068EE
:1010A00080470646F7E72068806800688047054665
:1010B0001D486FF07041001DC068884201D147F0A3
:1010C000010708F15400194ACDE90220CDE9009743
:1010D0002B463246514658460FF074FB05001CD093
:1010E00002F00AFE1022049011990FF0ADFA0E4999
:1010F00004983C22091D3430FFF7E6FA0498216871
:101100000167022180F874100F21C16704A802F062
:101110005DFE206841682846884704F0BFFF05B09F
:101120002846BDE8F08F0000F8020220970F000863
:101130002DE9FF470446006810B111F02DF868B1A1
:101140000022314850F8221060680A2841D007DC9C
:10115000F0B306280DD0072854D106E00122F0E7AD
:1011600012280AD019284DD137E0204611F0B8FFD7
:1011700048E0204613F036F944E0206802F0BCFD58
:101180000290B0F9548090F85650476C466B02A814
:1011900002F01CFE206800F039F8814668460FF026
:1011A000E9FCBDF8001009EB05000844ADF80000AB
:1011B000246A304604F00AFB022004F073FB384630
:1011C00004F0E7FA42466946204603F0DBF819E0EE
:1011D00007E0204613F082F914E0886904B0BDE806
:1011E000F087206810F00EFC206802F085FD039067
:1011F000B0F90610B0F90220891A491CC16703A88A
:1012000002F0E4FD0020E9E77C50020838B504460E
:1012100003F0CCFC204602F06FFD0090C46F6846DE
:1012200002F0D4FD04F03AFF204638BD38B5050081
:101230004FF000040CD003F0B9FC284602F05CFD2E
:10124000009090F87540684602F0C0FD04F026FF5B
:10125000204638BD10B5FFF7E9FF012800D0002077
:1012600010BD38B50C4605001BD003F09FFC284686
:1012700002F042FD009090F87410A1420CD980F861
:101280007540684602F0A2FD284610F0BFF805211F
:10129000284610F07BF902E0684602F097FD04F062
:1012A000FDFE38BDFEB50D46040022D0002D20D035
:1012B00003F07CFC204602F01FFD0190866F01A820
:1012C000009602F083FD2946684605F0A5FD70B141
:1012D0000098B04208D0204602F00EFD019000991F
:1012E000816701A802F072FD204610F08FF804F02B
:1012F000D5FEFEBD00B589B024216846FFF71EFA71
:101300001920019003480068806841686846884752
:1013100009B000BDF802022070B5144D0022402132
:10132000284605F09EFF124C206820F0C000206087
:10133000206840F040002060022017F005FD0022E8
:101340002046082105F08DFF022017F0FDFC012248
:101350002846402105F085FF022017F0F5FC2846BD
:10136000BDE870400022402105F07BBF001C024018
:1013700000200240124800B587B0016841F08001AA
:101380000160016801F080010591016841F48071FC
:1013900001600068694600F480700590402000906C
:1013A00001200190029003200390064805F066FE9C
:1013B000082000900448694605F060FE07B000BDB3
:1013C00030380240001C02400020024070B5144D2D
:1013D00000224021284605F044FF124C206820F0EE
:1013E000C0002060206840F040002060022017F01C
:1013F000ABFC01222046082105F033FF022017F044
:10140000A3FC01222846402105F02BFF022017F003
:101410009BFC2846BDE870400022402105F021BF1A
:10142000001C0240002002402DE9F041184E074602
:101430000024306820F0C0003060306830601E202A
:1014400017F082FCB046134E0025002230464021A2
:1014500005F007FF022017F077FC012230464021FB
:1014600005F0FFFE60060821040E404605F0F4FE7C
:1014700008B1641CE4B26D1CEDB2082DE5D327B1B0
:10148000FFF74AFF2046BDE8F081FFF79FFFF9E72D
:1014900000200240001C02402DE9F0411A4F054691
:1014A000386820F0C0003860386840F0400038608C
:1014B000164E00224021304605F0D3FE022017F0E0
:1014C00043FC0024280601D5012200E00022384612
:1014D000082105F0C6FE68060122050E30464021AF
:1014E00005F0BFFE022017F02FFC002230464021FD
:1014F00005F0B7FE022017F027FC641CE4B2082CAC
:10150000E0D3BDE8F081000000200240001C024052
:1015100070B5134C206820F0C0002060206840F0B7
:101520004000206001222046082105F09AFE0D4D62
:1015300001224021284605F094FE1E2017F004FCED
:1015400000222046082105F08CFE022017F0FCFB4B
:101550002846BDE870400022402105F082BE000010
:1015600000200240001C024010B5104C206820F002
:10157000C0002060206840F0400020600C4801223C
:10158000402105F06EFE1E2017F0DEFB00222046F3
:10159000082105F066FE022017F0D6FB0122204646
:1015A000BDE81040082105F05CBE000000200240AC
:1015B000001C024070B5164D00242846296821F011
:1015C000C0012960296829600122082105F049FE2F
:1015D000104E01224021304605F043FE07E0641C16
:1015E000E4B2FA2C03D9FFF7BFFF012070BD02203F
:1015F00017F0AAFB0821284605F02EFE0028EED1A0
:1016000000223046402105F02CFE002070BD000075
:1016100000200240001C0240F0B5BFF34F8FBFF323
:101620006F8F184900200860174C216841F4003181
:101630002160BFF34F8FBFF36F8F13497031086084
:10164000BFF34F8F081F006843F6FF750D4E10362D
:10165000C0F34E31C0F3C90305EA4112184642EA0D
:1016600080773760401EFAD2491EF5D2BFF34F8F04
:10167000206840F480302060BFF34F8FBFF36F8F3E
:10168000F0BD000050EF00E014ED00E01CB50FF0DD
:101690009FFA0346044A0020009001900921034864
:1016A00002F00EFD1CBD00003D8A0108F0D80108C3
:1016B0007047000070B5B3F5804F05D06FF07041F2
:1016C00040F82210002070BD50F82230084C234012
:1016D000D1E900458E8944EA05148D6889692D0297
:1016E00045EA06452C430C431C4340F82240E9E7F9
:1016F0000000F0CFF0B50C6850F824501A4A15409D
:10170000D1E90123D1E903671A433E4332434E69CD
:1017100032438E693243CE6932430E6A32434E6A97
:1017200032438E6A3243CE6A32430E6B32438E6B43
:1017300032434E6B32432A43082B01D142F0400220
:1017400040F824200A6BB2F5801F05D10A684AB11F
:10175000026842F4801202600A681AB10268496B9A
:101760000A4302600020F0BD8004C0FF00EB82024B
:10177000F0B553688E8903F04044D1E9003543EA5F
:1017800005138D682D0245EA06450E8A2B430D4D43
:1017900005EB065633430E7D6F0107EB06663343B8
:1017A0008E693343234353600268D20207D54268EF
:1017B000098A22F4700205EB0151114341600020B7
:1017C000F0BD00000000F0FF30B5D1E901230D6845
:1017D0001A43D1E9033423431A434B691A438B69F3
:1017E0001A43D1E90734496A012D056807D01A4325
:1017F00022430A436FF30E052A4302600AE025F4F0
:10180000F845234329430B43416803606FF30E01FE
:101810000A434260002030BD426942EA4101416111
:1018200000207047F8B514460546D1E900026FF074
:101830001F0310438A68C96803EB421242EA412140
:1018400008430090286105F011FD064609E0601C80
:1018500007D024B105F00AFD801BA04201D9032066
:10186000F8BDA8698006F2D40020F8BDF0B5D1E932
:1018700000346FF00F055B1E2E0105EB04142343AB
:101880008C682F034FEA054C0D8A06EB04248E8AE0
:101890002343CC68097E4FF07F4E012A07EB0545B4
:1018A0000CEB06560EEB01610CD082683F1107EB82
:1018B000043423432B4333430B4302F0704213435E
:1018C00083600FE08768084A17402203C468A2F5C6
:1018D000805232433A4382602B430B4304F07044FE
:1018E0002343C3600020F0BDFF0F0FFF2DE9F04739
:1018F000044640688EB00027804602F0FDF9009053
:10190000B0F87CA0D0F86890D0F88060D0F888500B
:10191000C06D00B10768684602F058FA05E06968D2
:1019200020468847002843D12D68002DF7D1206834
:10193000172853D00CDC0F283DD004DC0B2877D0BF
:101940000D2825D18BE0112810D0142820D13BE0A0
:10195000262846D004DC1E2851D0202818D18AE041
:101960002A2816D0B0F5107F12D128E04046E5684D
:1019700002F0C2F90290697A39B9297A012904D1B1
:1019800030F87C1F41F48071018002A802F01EFA39
:1019900075E0404602F0B0F90090E16811B1C0F87E
:1019A000841002E0D0F88400E060684602F00EFA8D
:1019B0000EB0BDE8F087D7B34046B8475FE0214698
:1019C000404614F0A3FFF3E705A9404600F05AFB98
:1019D000E0680699016007994160E9E7C4F80C9056
:1019E000E6E7E0680228E3D1CDF83080E0680D90AA
:1019F00027200A900AA9A06810F0C8FDD8E7E0687F
:101A0000012804D00021404600F0BBFAD0E7304660
:101A10000FF065FD68B130460FF06EFF30460FF0F5
:101A200021FC98B1012130460EF042FD0EE026E087
:101A30002FE048460FF0B4FF0646404602F05CF93E
:101A40000090C0F88060684602F0C0F9012140466D
:101A500000F097FA002EABD10020E060A8E75FEA23
:101A60000A700CD4E068C06848B1007A38B14046CA
:101A70000FF042FF03E02146404614F0E3FD21460B
:101A800040460EF081FC002892D020460EF052FF16
:101A90008EE7404602F030F90090703002F082F894
:101AA000684673E7F0B587B0B0F908400DF10C0C4B
:101AB0000C9E876945688CE8F000448A0025CDE9D2
:101AC00000150294B0F90C10B0F91050B0F90E40A6
:101AD000B0F90A00194410442B46224600F002F8DF
:101AE00007B0F0BD2DE9F04F8BB09846DDE91556F3
:101AF00091468A468346149F1A9C03F057F8334850
:101B0000603445F48055CDE90204CDE900754346C3
:101B10004A46514658460EF055FE04004FD002F09A
:101B2000EBF83022049017990EF08EFD04982822CD
:101B300027493430FEF7C8FD04981999244F4166AF
:101B4000A0F87C600026C0F88060C666083FC0F838
:101B500088607968C16504A802F038F905A92046B3
:101B600000F090FA1B4841F2827103960094CDE98F
:101B70000110BDF91E00BDF91A10BDF91C20431A51
:101B8000BDF918005B1C121A521C0EF01BFE064613
:101B90007868416820468847204602F0ADF80490F6
:101BA000866604A802F012F942F20400054202D14E
:101BB00020460EF06FFF2046189900F027FA04F037
:101BC0006DFA0BB02046BDE8F08F0000ED1800085C
:101BD0003C0102208D2300082DE9F041044694B019
:101BE000006800F0B7F908B1D94D01E0D84D2C35A7
:101BF000606815281ED00CDC0B281FD004DC0028E0
:101C00007ED005287DD12FE10E287BD01228F9D176
:101C100041E1162806D0172808D0182808D01C281B
:101C2000F0D109E0E86914B0BDE8F081286AFAE76C
:101C3000686AF8E7A86AF6E76869F4E720680B9035
:101C40001C200C90206802F057F80390016D0BA83F
:101C50008847064603A802F0B9F8022E0FDB95E884
:101C600007008DE80700D4E904023346A16904F0B7
:101C7000D7FD20698719A069A0EB06082CE0286829
:101C800003F087FD2169E8690A18521E606902F0B5
:101C90002DFDA269E869111A491C606902F026FD50
:101CA000D4E904077F1C394602F070FD3946A0696B
:101CB00002F06CFD686803F06CFD20693946401C39
:101CC00002F064FDA0693946401E02F05FFDA06984
:101CD0002769A0F10208BF1C286803F05AFD42469C
:101CE0003946606902F002FD686803F052FD6069E0
:101CF00042463946401C02F0F9FC686A022802E0BC
:101D000015E1B0E000E10BDDA86803F042FD616978
:101D10006A6A881C8B180146424638465B1E27E0DB
:101D2000296AB14226DD6069022E074600F10208E9
:101D300001DB374401E007F10207206901DB304491
:101D400001E000F1020022693B460A444146A2F14B
:101D5000010202F0CBFD022E02DBA069821B01E032
:101D6000A269921EA069E9693B46401A4146401C9F
:101D700002F0BCFD022E02DB6069064401E06669E8
:101D8000B61CE76928687F1E03F003FD3A4631461A
:101D9000206902F061FD3A463146A06902F05CFD1F
:101DA000E7696868BF1E03F0F4FC20693A463146D3
:101DB000401C02F051FDA0693A463146401E02F037
:101DC0004BFDE869022802DC286A022823DDA86AA4
:101DD000022802DDE1690F1A01E0E769BF1EA86869
:101DE00003F0D7FCE969022909DD20693B46421866
:101DF00000F1020C31466046521E02F077FD286A5F
:101E0000022808DDA269E8693B46101A3146401CE9
:101E1000921E02F06BFD286803F0BBFCD4E906209B
:101E2000216902F063FC686803F0B3FCD4E9062082
:101E30002169401E491C521E02F058FCA86A022863
:101E400011DDA1692669E469A1F10208271AA41E1F
:101E5000B61C7F1CA86803F09CFC2346424639460A
:101E6000304602F043FD71E0208A00B2ADF8140064
:101E7000A18A09B2ADF81610228B12B2ADF8182063
:101E8000A38B1BB2ADF81A302C69ED68CDE9005474
:101E900002F0F0FB5AE0208A298B0844ADF81400C8
:101EA000A08AADF81600208B298B401AADF81800D7
:101EB000A08BADF81A00206801F01EFF0390006FA0
:101EC000F0B1022003F0EEFC039890F87C10C1F30F
:101ED000C00100EB8100006C03F05BFC0398406BD9
:101EE00003F074FC0398006F01F006FF039909905A
:101EF000B1F95A2005A902F045FA09A801F066FFD8
:101F000003A801F063FF21E0208AADF81400A08A45
:101F1000ADF81600208BADF81800A08BADF81A00B4
:101F2000A86803F036FC05A802F00CFD0EE020685E
:101F300001F0E2FE039030F85A1F41F00C010180DD
:101F400003A801F043FF20680FF05CFD00206AE663
:101F50004C03022038B505004FF000040FD002F00A
:101F600025FE284601F0C8FE009090F87C0000078E
:101F700000D50124684601F029FF04F08FF82046BF
:101F800038BD70B50D46040009D002F00FFE294699
:101F9000204615F0EDFABDE8704004F07FB870BD42
:101FA0002DE9FC410D46804602F000FE5FEA080084
:101FB00028D001F0A1FE0190C16D8C6800F0C9F835
:101FC00007460198456301A801F000FF226801213E
:101FD0004046904706462268032140469047054602
:101FE00022680021404690470446404600F097F999
:101FF0002B46324639464046009400F020F94046D0
:102000000FF004FA04F04AF8BDE8FC817CB50D46F7
:1020100004001DD002F0CAFD204601F06DFE0090C4
:10202000006F0190684601F0D1FE294601A804F036
:10203000F3FE58B1204601F05FFE00900199016760
:10204000684601F0C3FE20460FF0E0F904F026F8E0
:102050007CBD38B50C46050013D002F0A7FD28461C
:1020600001F04AFE0090B0F95A10A14204D0A0F845
:102070005A4028460FF0CAF9684601F0A7FE04F05E
:102080000DF838BD2DE9F34F85B000270C46B84652
:10209000059801F031FE0090C06D0121856805981A
:1020A0002A68904782462A68032105989047049041
:1020B0002A6802210598904703902A680021059814
:1020C0009047064600980FF0E5FE834600980FF013
:1020D000E8FE8146009890F83210890601D5B0F9E3
:1020E000588000F036F805460098C06E10B10EF02A
:1020F000D5FE074625806780A4F804A0049AABEBC0
:10210000020006EB0802401E2A4420813A44E28085
:10211000039BA9EB0302521E6281A4F80CA020824B
:102120007019E681401E6082684601F04FFEB4F9E6
:102130000C000190B4F91000029002AA01A90598C0
:1021400000F03AF80198A0810298208207B0BDE81B
:10215000F08F10B50146002091F83220920607D585
:10216000B1F95400002803D1486B02F0DCFC801C5C
:1021700010BD70B58AB00C46054601F0BDFD099052
:10218000C06D866809A801F021FE009534B1012CCC
:1021900006D0022C0BD0032C04D10AE0182000E05A
:1021A000162001907168684688470AB070BD1520F6
:1021B000F7E71720F5E700002DE9FC4117468846B0
:1021C000044601F099FD0090C16D056868468E686F
:1021D00001F0FCFD3268002120469047064620466B
:1021E0000EF01DFD27E000BF01F086FD0190B0F963
:1021F00000102AB2B0F90430891A9A1AB0F90230E4
:10220000A3EB2543B34210D190F82800000605D572
:102210003868884209DB491E396006E0D8F80000BA
:10222000904202DC521CC8F8002001A801F0CEFD4B
:1022300020460EF0A1FD0400D6D1BDE8FC812DE9B9
:10224000FF4F83B00E460746DDF8409001F054FD85
:102250000190C16D8D68FFF77CFF044601A801F075
:10226000B5FD2A6801213846904783462A68032134
:102270003846904782462A680021384690470546EE
:10228000B44207D105998B4504D106998A4501D1FD
:102290004D4541D0A41B0026B04638460EF0BFFC89
:1022A00038E001F029FD0090806A010601D5800523
:1022B00002E0810528D50006002825DB24B122464E
:1022C000114638460FF09FF9009890F82800000654
:1022D0000AD50698A5EB0902A0EB0A0004FB16013B
:1022E0003846761C0FF043F90098008D80050BD519
:1022F0000599A5EB0902ABEB010004FB080108F10D
:10230000010838460FF033F9684601F05FFD3846A2
:102310000EF032FD0700C4D107B0BDE8F08F70B5F4
:1023200086B0064601F0E8FC0590D0E91A4505A8FC
:1023300001F04CFD54EA050026D069463046FFF70F
:10234000A1FEACB1BDF90620BDF9041020460FF086
:10235000E1F8BDF90A00BDF90610421ABDF90800FE
:10236000BDF90410521C411A2046491C0FF09FFB76
:10237000002D09D0BDF90600BDF90210421ABDF9C1
:10238000041028460FF0C6F806B070BD2DE9F043E2
:102390000446406889B005460EF0FBFC814601F01A
:1023A000ABFC0290D0F84880D0F88070466E02A84E
:1023B00001F00CFD2068172853D008DC0E283AD015
:1023C0000F2811D014284CD015283DD149E01E28E3
:1023D0001ED01F282AD0222840D0312834D10020F6
:1023E000E06009B0BDE8F0836FF070414046884579
:1023F00003D007F04DFE01F017FE002EF1D0D4E916
:1024000002122068CDE90405CDE9061204A81FE0F8
:10241000E0680028E5D02FB1AF4203D038460FF076
:102420006BFADEE728460FF0BBFADAE721464846AA
:102430000DF0AAFFD5E7E0684168002904DD0068D7
:102440000928EFD00A2805D05EB12046C4F80490D0
:10245000B047C6E728460FF0B2FAC2E7C4F80C80CE
:10246000BFE720460EF066FABBE7000070B54C48A7
:1024700088B0016841F080010160016801F08001CD
:102480000791016841F480710160006802A900248D
:1024900000F4807007908020012681E8510003201D
:1024A0000590404804F0EAFD3502CDE902563E4E63
:1024B00002A9304604F0E2FDFEF75CFF0022294647
:1024C000304604F0CEFE142016F030FC01222946DE
:1024D000304604F0C6FE322016F028FC022269467F
:1024E000A1208DF8004000F06FF89DF80010302911
:1024F00003D19DF80100032831D09DF80100012887
:102500002DD002282BD00422694648F2401000F05A
:10251000ADFD26A069468DF80440FDF70DFF264865
:1025200048F2400500990122C0F8021002206946D5
:102530008DF80000284600F0EDFE01226946E81DF6
:1025400000F094FD0A2016F0F1FB012269462846AE
:102550008DF8004000F0DEFE08B0002070BDC0B273
:1025600000EB012115A0FDF7E7FE012269460020DE
:1025700000F078F901226946A42000F073F91620D2
:10258000694601228DF80000802000F06BF90C20D4
:10259000694601228DF80000882000F063F9DBE72E
:1025A00030380240001C02400020024043545020BA
:1025B00049443A25730D0A005C0002204354502020
:1025C00049443A25780D0A002DE9F04115460F4699
:1025D0000446FEF79DFF7020FEF75EFFFEF7EAFF60
:1025E000E0B2FEF759FFFEF7E5FFFEF791FF71201D
:1025F000FEF752FFFEF7DEFF00246E1E09E0B44234
:1026000001D0012000E00020FEF70EFF3855641CC9
:10261000E4B2AC42F3D3BDE8F041FEF7A5BF000041
:102620002DE9F1478A4D83B000274FF00A0A894C03
:10263000B8468DF804706878401CC0B26870B0FB72
:10264000FAF20AFB120109B10A2870D2804882A16D
:10265000801CFEF79BF803A94FF0010208B302208B
:10266000FFF7B2FF9DF80C00010760D000F00F01EA
:10267000287881425BD8FF2294F8209004EB400038
:102680008A40D14341F0C00184F82010A1894181E2
:10269000E18A8182042016F049FB704E8DF80470A7
:1026A00085E048F24E16304600F0E0FC9DF80C0044
:1026B0000106D7D5297800F00F008842D2D8012230
:1026C000304601A98DF8047000F024FECAE701220B
:1026D00094F820108240114264D05D485EA1801CB5
:1026E000FEF754F820B35E4804229DF8041030F839
:1026F00011006946FFF768FF94F830009DF800105C
:10270000C0079DF8010001F00F0139D000EB012155
:102710009DF8040004EB4000C1829DF802209DF862
:10272000031002F00F0201EB022181813AE058E030
:102730004B4804229DF804100A3030F81100694615
:1027400000F094FC94F830009DF80110C0079DF84B
:10275000000000EB01219DF8040004EB400005D0CF
:1027600081819DF802109DF8032018E0C1829DF838
:1027700003209DF8021001EB02213288511AD4E7A0
:1027800000EB01203188091A9DF8040004EB400099
:1027900081819DF802209DF8031002F00F0201EBE9
:1027A0000221C1829DF80400401C8DF804009DF8B0
:1027B0000400297888428AD3A0894FF00108318823
:1027C000884203D8E08A7188884209D99DF80C00B4
:1027D00000F00F00012812D9E089A081208BE0824F
:1027E0006F701DA11A48801CFDF7D0FF00289DF8CE
:1027F0000C004FF6FF710FD0C00624D01AE02878E5
:1028000004EB40004189A181808AE08280208DF81C
:102810000C0084F82090E4E700F08F00802812D0AC
:1028200008E020F0800003E0A18100F0E000E182F8
:1028300084F820006878F02801D985F801A004B058
:102840004046BDE8F08794F820000206ECD5E8E7A2
:102850005C00022028000220393131006808022083
:10286000E8D601082DE9F041002715460E4604463A
:10287000FEF74EFE7020FEF70FFEFEF79BFEE0B265
:10288000FEF70AFEFEF796FE002408E0305DFEF734
:1028900003FEFEF78FFE070003D1641CE4B2AC42D6
:1028A000F4D3FEF761FE3846BDE8F0812DE9F04330
:1028B0000446C56887B090468946002002F07AFF3A
:1028C000064625B1287910B146F0020001E026F055
:1028D000020002F06FFF2069012558B1D4E902120D
:1028E0008DE826000395638822880468414648469F
:1028F000A0471EE0124F134B214638681B68427CEC
:10290000E068984730B9E088012801D0002001E054
:102910003868806BA288E388A1680095CDE904102F
:10292000CDE902320195638822884146484606F087
:1029300099FC07B03046BDE8F04302F03BBF000011
:10294000B8000220B00002201CB50024019401ACA4
:10295000009400F0E7F81CBD2DE9FF4F83B08146DD
:1029600006988A46A0EB0A08109E00200090A2EB71
:1029700009043568934654EA080018D02046FEF74B
:10298000E4F807464046FEF7E0F887420BDA2046B7
:10299000444680464846D14682465846DDF818B03F
:1029A000069001200090002C07DD204606E007B0CD
:1029B0004846BDE8F04F00F03BB96042A0420AD063
:1029C0004846D9466442C8F1000883464FF0FF37B5
:1029D000DDF818A000E001275148B8F1000F11D030
:1029E00004EBD4714FEA610B01DACBF1000B4C48D8
:1029F0000068807E88B3002F02DA3068204430609F
:102A000000257BE000990029016821D0897E11B161
:102A10000027804615E007B05A4649465046BDE8B3
:102A2000F04F06F0E5BD28466D1C14F08BFE38B95A
:102A3000D8F8000009EB0701406E42685046904705
:102A40007F1CA742EFDD6D1E356007B0BDE8F08F3B
:102A50008A7E1AB10027804617E019E0486E5A4670
:102A60005146036807B04846BDE8F04F184728466E
:102A70006D1C14F067FE38B9D8F8001009EB070098
:102A8000496E4A68514690477F1CA742EFDDDAE75E
:102A900000250FE008FB05B090FBF4F101EB0A0004
:102AA000009951B11E4A09EB05011268526E526835
:102AB00090476D1CA542EDDDC7E7194909EB0503F9
:102AC0000968496E4A6801461846F1E708FB05B0F7
:102AD00090FBF4F101EB0A0001903068384430605B
:102AE00014F030FE48B9009890B10D4809EB05018B
:102AF0000068406E4268019890476D1CA542E5DD74
:102B00003068002F01DA20443060C01B30609CE741
:102B1000034909EB05000968496E4A680199EBE72A
:102B2000B80002202DE9FF470F464049164680466F
:102B300009680C981D460A7E012A1CD0A8EB0600E5
:102B4000791B50EA01031CD0A2F1010915F00CFF1A
:102B500000F58060824604F04EFA00FB09F450460E
:102B600004F04EFA00FB09F1002C0CDAC4F50070F9
:102B7000801240420AE00090324639464046FFF754
:102B8000EBFEBDE8FF8704F50074A012002904DA0B
:102B9000C1F5007189124C4202E001F500718C12FE
:102BA000002804DD411C01EBD171491003E000EB6A
:102BB000D0714910401E00EBD0704210002C04DD93
:102BC000601C00EBD070401003E004EBD4704010A8
:102BD000641E04EBD47308EB0104ADF800403C180C
:102BE000ADF80240A8EB02045B10B21AADF8044045
:102BF000ADF808203144FC1AEA1AADF80C1028444C
:102C0000ADF80A20ADF80E000023ADF806401A46D4
:102C10000421684600F07AF83946404611F06CFE0F
:102C20002946304611F068FEABE70000B8000220EC
:102C3000064A13681A7E012A05D0521E02EBD27290
:102C4000521000F005B85A6E52681047B8000220C2
:102C50002DE9F05F0646884640F2C32002FB00F1F2
:102C60004FF47A7091FBF0F702FB02F102EBD270A5
:102C700001EB600B1446B118234A301B7F1C12680D
:102C8000526E13680A4641469847012538E000BF56
:102C900005FB05F004FB040159451CDDBC4219DDB0
:102CA000194B06EB050AA6EB05091B68AAF1010200
:102CB00008EB04015B6E09F101001B689847124B99
:102CC000AAF10102A8EB04011B6809F101005B6E87
:102CD0001B689847641E0C4B3219301B1B689246C8
:102CE00008EB05015B6E81461B689847064B524610
:102CF000A8EB05011B6848465B6E1B6898476D1C76
:102D0000BD42C5DDBDE8F09FB80002202DE9FF4FB0
:102D100043F6FF740F46664283B09B46814600210E
:102D20000BE000BF09EB8100B0F90200A04200DA1D
:102D30000446B04200DD0646491CB942F2DB674852
:102D40000068406900280DD0B0F906101A46A1EBC2
:102D50000B01B14200DA0E46B0F90200801AA0421F
:102D600000DD0446B4E0DFF878A100200546CAF88B
:102D7000000088E0781E854201DA6B1C00E0002329
:102D800009EB850C09EB8302BCF90200B2F90210D1
:102D9000A04244D1A14215D139F92330059A39F91D
:102DA000251003EB020C4D4A05981268084404EB09
:102DB0000B01526E6045136801DA62462AE0024652
:102DC000604627E02846A4464FF000087A1E0BE034
:102DD00008B1401E00E0781E09EB8003B3F9023011
:102DE000634504D108F101089045F1DB2346A34275
:102DF00048D01A1B39F92500A1EB040C059B92EA77
:102E00000C0F09D4354A184404EB0B011268526EBA
:102E100013680246984735E00FF0AEFC32E0A1425D
:102E200030D001DBA04203DDA0422BDBA14229DC34
:102E3000E04688420ADC0346A04223DC0846A14261
:102E400020DBB8F900C0B2F9001008E00B46A1423F
:102E500018DCA04216DBB2F900C0B8F90010E21A83
:102E6000A1EB0C0151430029A0EB030202DD01EBB1
:102E7000620102E0A1EB6201491CC01A91FBF0F073
:102E80006044C9E76D1CBD42FFF674AF0598009021
:102E900004EB0B00019000208046054613E0114929
:102EA000B8F1000F31F915A009D0009901EB0A0221
:102EB00008440A490968496E0B680199984788F0E7
:102EC000010850466D1C064909688D42E7DB641C09
:102ED000B4427FF748AF07B0BDE8F08FB8000220DA
:102EE0007C05022018B4042010B5002002F046FC36
:102EF0006FF07F4002F04DFC012002F0B5FC002095
:102F000002F0C0FC002002F0CDFC002002F052FCD8
:102F10000448006802F05AFCBDE81040002002F0AE
:102F200075BC0000B40002202DE9F043414889B08F
:102F3000016841F080010160016801F080010791A2
:102F4000016841F480710160006801AADFF8E8902F
:102F5000802500F4807007900024009501266946C2
:102F60000327484682E8D00004F088F84FF48078C0
:102F70006946CDE90086314E304604F07FF8FEF711
:102F8000F9F900224146304604F06BF90A2015F0A9
:102F9000CDFE01224146304604F063F90A2015F0C7
:102FA000C5FECDE90054CDE902476946484604F024
:102FB00065F8642015F0BAFE042248F2401005A915
:102FC00000F054F805A98DF818401DA0FDF7B4F9DC
:102FD0001EA105A8FDF7DAFB40BB022048F2400520
:102FE00001228DF8140005A9284600F093F901226A
:102FF000E81D05A900F03AF89DF8141060290BD2DD
:1030000014A0FDF799F918488088A0F5AA41103955
:1030100002D1012000F058F90A2015F087FE0122A4
:10302000284605A98DF8144000F074F909B0002075
:10303000BDE8F08330380240001C0240002002400E
:103040004354502049443A25730D0A00393134372E
:103050000000000044656661756C74205665723A24
:1030600025640D0A00000000680802202DE9F041E7
:1030700015460F460446FEF74BFA2820FEF70CFAD9
:10308000FEF798FA200AFEF707FAFEF793FAE0B285
:10309000FEF702FAFEF78EFAFEF73AFA2920FEF75B
:1030A000FBF9FEF787FA00246E1E09E0B44201D056
:1030B000012000E00020FEF7B7F93855641CE4B2A7
:1030C000AC42F3D3BDE8F041FEF74EBA2DE9F14F23
:1030D000794E00244FF00A0B784D82B0A14630782B
:1030E000401CC0B23070B0FBFBF20BFB120109B107
:1030F0000A2876D248F24E170122384602A9FFF775
:10310000B5FF9DF808004FF0000801060AD500F051
:103110000F00062806D20122384601A98DF8048046
:1031200000F0F8F89DF8080001075AD000F00F01F0
:10313000062956D2FF20624F4FF0010988408DF8D2
:103140000400C04395F820A040F0C00085F820009E
:10315000A889A882E88AE88395F8201009FA04F083
:10316000014266D057480422694630F81400FFF740
:103170007DFFB888A0F5AA41103906D0A0F5864198
:10318000423918D042392DD053E095F83000C007AD
:103190002CD09DF801109DF8000000EB012105EBFB
:1031A0004400C1829DF803209DF8021001EB02212A
:1031B000C1F548713CE095F83000C00716D19DF884
:1031C00001109DF8000000EB012105EB4400C182D5
:1031D0009DF803209DF8021001EB0221C1F58871D2
:1031E00026E041E095F83000C00710D09DF80110AE
:1031F0009DF8000000EB012105EB440081819DF862
:1032000003209DF8021001EB0221C18211E09DF81C
:1032100001109DF8000000EB012105EB4400C18284
:103220009DF803209DF8021001EB0221C1F5F07119
:103230008181641CE4B2052C8ED3A9894FF0010969
:103240003A882846914203D8C18A7A88914209D99E
:103250009DF8081001F00F0101290CD9C189818165
:10326000018BE98286F800809DF8080000F08F004D
:1032700080280AD018E0818A8181C18BC182802197
:103280008DF8081085F820A0EEE795F820000106DB
:1032900002D520F0800005E04FF6FF71A98100F013
:1032A000E000E98285F820003078F02801D986F81E
:1032B00000B04846BDE8FE8F6300022028000220CF
:1032C00068080220B4D7010808B500218DF8001065
:1032D0008DF801000E489DF80020435C491CC9B2DE
:1032E000B8291A448DF80020F5D3D0B20849C0435C
:1032F000401C8DF80000B82248F2470000F00AF8A0
:103300000222694648F2FF0000F004F8002008BDE0
:10331000FCD601082DE9F041002715460E4604466B
:10332000FEF7F6F82820FEF7B7F8FEF743F9200A73
:10333000FEF7B2F8FEF73EF9E0B2FEF7ADF8FEF7A1
:1033400039F9002408E0305DFEF7A6F8FEF732F9FF
:10335000070003D1641CE4B2AC42F4D3FEF704F9D5
:103360003846BDE8F08100002DE9F0433F4889B0C0
:10337000016841F080010160016801F0800107915E
:10338000016841F480710160006801AADFF8E090F3
:10339000802500F48070079000240095012669467E
:1033A0000327484682E8D00003F068FE4FF4807897
:1033B0006946CDE900862F4E304603F05FFEFDF7EB
:1033C000D9FF00224146304603F04BFF0A2015F09A
:1033D000ADFC01224146304603F043FF0A2015F0C0
:1033E000A5FCCDE90054CDE902476946484603F003
:1033F00045FE642015F09AFC042248F2401005A90D
:1034000000F050F805A98DF818401BA0FCF794FFB8
:103410001DA105A8FDF7BAF918B1012009B0BDE852
:10342000F083022048F2400501228DF8140005A91E
:103430002846FFF76FFF0122E81D05A9FFF716FEDA
:103440009DF81410412905D211A0FCF775FF012049
:1034500000F02EF90A2015F069FC0122284605A982
:103460008DF81440FFF756FF0020D7E730380240B0
:10347000001C0240002002404354502049443A2599
:10348000730D0A0D0A0000003932373100000000C8
:1034900044656661756C74205665723A25640D0A40
:1034A000000000002DE9F04115460F460446FEF7E6
:1034B0002FF82820FDF7F0FFFEF77CF8200AFDF733
:1034C000EBFFFEF777F8E0B2FDF7E6FFFEF772F8E4
:1034D000FEF71EF82920FDF7DFFFFEF76BF800244A
:1034E0006E1E09E0B44201D0012000E00020FDF78B
:1034F0009BFF3855641CE4B2AC42F3D3BDE8F04105
:10350000FEF732B82DE9F14783B000258DF8005061
:103510004FF00A0A624C2F46624E4FF6FF79207830
:10352000401CC0B22070B0FBFAF20AFB120109B1D4
:103530000A287DD248F24E180122404603A9FFF71F
:10354000B1FF9DF80C0001060AD500F00F000B2812
:1035500006D28DF8005001226946404600F0CEF8B0
:103560009DF80C00010771D000F00F000B286DD200
:1035700009FA00F196F82080C84340F0C00086F8B0
:103580002000B089F083F08A30858DF8005042E049
:1035900096F820009DF8002001219140084235D086
:1035A00041499DF80000062231F8100001A9FFF7FB
:1035B00079FF96F830009DF80710C0079DF80600C7
:1035C00000EB012010D09DF8001006EB4101C882ED
:1035D0009DF805009DF8041001EB00209DF80010F7
:1035E00006EB4101888111E09DF80010C0F548709C
:1035F00006EB410188819DF805109DF8040000EB61
:1036000001209DF8001006EB4101C8829DF80000E2
:10361000401C8DF800009DF800000A28B8D323480C
:103620000127B1890288914205D8F18A408800E0DB
:103630000CE0814209D99DF80C0000F00F00012830
:103640000BD9F089B081308BF08225709DF80C0089
:1036500000F08F0080280AD018E0F08BB081308D08
:10366000F08280208DF80C0086F82080EEE796F836
:103670002000010604D520F0800086F8200005E037
:10368000A6F80C90A6F8169086F820502078F0281E
:1036900001D984F800A004B03846BDE8F0870000E6
:1036A000650002202800022082D801086808022054
:1036B00008B500218DF800108DF801000E489DF826
:1036C0000020435C491CC9B2B8291A448DF8002077
:1036D000F5D3D0B20849C043401C8DF80000BA228F
:1036E00048F2470000F00AF80222694648F2FF005B
:1036F00000F004F8002008BDC8D701082DE9F0410A
:10370000002715460E460446FDF702FF2820FDF768
:10371000C3FEFDF74FFF200AFDF7BEFEFDF74AFF8F
:10372000E0B2FDF7B9FEFDF745FF002408E0305D8B
:10373000FDF7B2FEFDF73EFF070003D1641CE4B2C3
:10374000AC42F4D3FDF710FF3846BDE8F08100002D
:103750002DE9F04FDFF828B191B04FF0FF35DBF8DD
:103760000030B3F922100691DE69B3F92490F469B0
:10377000A189814206D8E289824203D3471AD4F84C
:10378000008012E0D4E9018100296FD00A888242CA
:103790006CD84D88854269D3801A82B2486800EBA4
:1037A0008200B0F90070B0F90250781C5ED0307E13
:1037B000A17C10FB01FA217CCDE90701B3F92A6055
:1037C000304606F039FDC0B20E90DBF8000007FB72
:1037D0000A81A37C826B0127CDE90412CDE9027333
:1037E000C069089AC17E807ECDE90001DDE906034B
:1037F000494605F037FD681C18D046F0020006F077
:103800001BFDDBF80000A37C05FB0A81826BCDE980
:103810000273CDE90412C069089AC17E807ECDE9A9
:103820000001DDE90603494605F01CFDDBF8000058
:103830005D46C069417E007E814214D9022E12D0BD
:1038400086F0040006F0F8FC2868C069027EC37E9A
:1038500012FB0391437E857E089A06984B4412FB27
:10386000050205F0F9FF0E9806F0E6FCDBF8000013
:10387000627C418C1144418411B0BDE8F08F00009E
:10388000B800022004480068C069C06909B1027C20
:103890000A60407C70470000B800022002200880C7
:1038A0007047C06982898A4202D8C2898A4210D28E
:1038B000806880B102888A420DD843888B420AD33F
:1038C000406800EB8100A0EB8200B0F90000002806
:1038D00001DB012070470020704700002DE9F04314
:1038E000304C034687B020681946B0F92A60C06999
:1038F000C06900F086F8002850D041680088181A86
:1039000001EBC0053046AF7806F096FC8146206892
:103910006A680123816BCDE90237CDE90421C169D1
:10392000CB7E8A7ECDE900230B7EB0F924102A7865
:10393000B0F9220005F096FC2068C069417E027E45
:1039400091421FD9C07E11FB00F812FB00F7022E36
:1039500018D001F092F8064601F058F801F019FF6E
:1039600021682A78CB69B1F92200DB7E12FB0302C1
:10397000B1F9241001EB0803394405F06DFF30461E
:1039800001F007FF484606F057FC20686A78C369D3
:10399000B0F922109B7E12FB0311418407B0BDE8F1
:1039A000F0830000B800022030B50F4C05460B46EE
:1039B00020682946C069C06900F023F8002812D0A9
:1039C0004168008824682A1A0120E46900EBC200DB
:1039D000085CA47E10FB04F0002B04D011F8321018
:1039E00011FB04F1196030BDB800022001200880ED
:1039F000704700B5C06900F004F8002800D001202D
:103A000000BD06E002888A4202D842888A4202D279
:103A100080680028F6D1704770B50025124C19E077
:103A200020691249C5EB051600EBC6007022096833
:103A3000001DFCF749FE2069002140F8361000EB1C
:103A4000C60000F10C018161011D0A1DC0E90F12C1
:103A50006D1C4164A0688542E2DB01F0A7F8BDE877
:103A6000704002F01BBB000070020220B800022070
:103A700070B50F490D480860084603F0C5F90C4CB5
:103A8000143CA068C0EB0010C500284600F0A6F862
:103A90002A460021206103F030FA4FF0FF30206009
:103AA00002F045FBBDE8704012F052BA39670108D8
:103AB00084020220F8B50C0005460FD001F076F81C
:103AC000204600F017F8060010D000F015F9224645
:103AD00000902DB12946FCF770FD04E00020F8BDF0
:103AE000002103F00AFA684600F070F902F0D6FAF5
:103AF0003046F8BD10B5040009D001F057F8204653
:103B00000EF014FF044602F0C9FA204610BD002052
:103B100010BD38B5054601F049F82846FFF7EAFF21
:103B2000040009D000F0E8F82A460021009003F0D4
:103B3000E4F9684600F04AF902F0B0FA204638BDD0
:103B4000024A106021F003005060704740B2042028
:103B500010B5040016D001F029F80B48406B10F89E
:103B6000341059B1022909D2042101EBC401415892
:103B700048680EF01DFE204613F000FCBDE8104022
:103B800002F08CBA10BD000080B10420002805D0DE
:103B9000034AD16B016001B14860D06370470000F7
:103BA00080B1042010B5044601F000F82068FFF74A
:103BB000CFFF00202060BDE8104002F06FBA000087
:103BC00070B50D460646002405E000BF06EB8400F4
:103BD000FFF7E8FF641CAC42F8DB70BD2DE9F04153
:103BE000044612F005FB2848E41C24F00305016C90
:103BF0002D1DA94200D90D46C46B13E054F8042CC6
:103C0000AA420ED184B1216809B162684A60616834
:103C100009B122680A60C26BA24231D12168C16336
:103C20002EE02468002CE9D18046816BC0680F1813
:103C300057F8040C3E1A306838B1002013F008FC25
:103C400057F8040C3E1A3068D0B97068A84217DBE8
:103C50003044441B3046241D13F0B2FBD8F80C103E
:103C6000491BC8F80C10D8F814102944C8F81410CF
:103C70007068401B02D031460EF09AFD44F8045C97
:103C80002046BDE8F081000080B1042010B500247A
:103C900012F0AEFA0C490F2001EBC002526C1AB1BF
:103CA00001EBC000406C08E0401EF5D508E041681B
:103CB000A14200D90C46806810B180680028F6D176
:103CC000A4F10C0010BD000080B10420002138B127
:103CD0000449042202EBC000496B085841680C39C2
:103CE0000846704780B1042002488169491C8161FF
:103CF0007047000080B104200549CA69521CCA619E
:103D0000496B01EBC0010A78521C0A7000F076B8CA
:103D100080B104207CB506460C460846FFF7EAFE53
:103D2000050020D0FEB13046FFF7D0FFA04200DAF8
:103D3000044600F03BFF2846FFF7DEFF00903046C8
:103D4000FFF7DAFF0146019022460098FCF735FCA8
:103D5000684600F03BF801A800F038F83046FFF75D
:103D6000F7FE02F09BF928467CBD000010B500F07C
:103D70001DFFFFF78BFF64220849B0F5800F04D9BF
:103D800090FBF2F4086A444303E0096A4143B1FB43
:103D9000F2F402F083F9204610BD000080B1042047
:103DA0000549102805D94A68B0EB520F02D35008D4
:103DB00000E010208860704740B20420024881690A
:103DC000491E81617047000080B104200A490268E1
:103DD0004B6B52F8082C03EBC2021378022B03D36F
:103DE000CB690BB15B1ECB611178491E11700021AC
:103DF000016008467047000080B10420002806D00A
:103E00000349042202EBC000496B08580830704790
:103E100080B104202DE9FC414FF000060B465FEA1B
:103E2000000834462BD032B111461846FFF742FE47
:103E3000060000D101244046FFF75EFF009007888E
:103E400045686846FFF7C2FFCCB9B9002846091D8E
:103E5000FFF760FF050015D0FFF74EFF019040F817
:103E6000276001A8FFF7B2FF4046FFF745FF00902B
:103E700045600188491C01806846FFF7A7FF20467E
:103E8000BDE8FC813046FFF763FE0124F7E7082018
:103E9000FFF73FBE7CB5050023D0FFF72DFF009054
:103EA0004068C0B1FFF728FF0024019005E00198A9
:103EB00000EB8400FFF776FE641C00980088A042A7
:103EC000F5DC01A8FFF782FF0098001DFFF76AFEEE
:103ED0000099002008806846FFF778FF2846FFF722
:103EE00037FE7CBD38B5002430B1FFF705FF0090E8
:103EF00004886846FFF76AFF204638BD38B50D468E
:103F0000002448B1FFF7F8FE2946009000F016F8AB
:103F100004466846FFF75AFF204638BD38B50D46BF
:103F2000002448B1FFF7E8FE2946009000F018F899
:103F300004466846FFF74AFF204638BD38B50D46AF
:103F400001880024A94209D9406838B1FFF7D4FE9E
:103F5000009050F825406846FFF738FF204638BDEE
:103F600010B50024FFF7EAFF10B1FFF7C5FE0446C5
:103F7000204610BD70B514460D46064600F016FEEC
:103F8000204600F087FD0300174804EB840109D0A8
:103F900050F8210041688068711A2A1A184601F009
:103FA00025FC1CE000EB8104A268B24201D0012292
:103FB00000E00022E368AB4201D0012300E00023CF
:103FC0001A430CD0236943B150F82100816840683E
:103FD0006A1A311A184601F08DFBC4E90265BDE882
:103FE000704002F05BB8000084B3042010B5C2B288
:103FF000CBB2D21A00D5524293B25B43C0F3072230
:10400000C1F30724121B00D55242000C92B2A0EB60
:10401000114002FB023200B2002801DA404200B235
:1040200080B200FB002010BD10B50021084600F052
:104030008FFD43F6FF725042BDE810401346014623
:10404000AFF300802DE9FC411C4615460E4607469D
:1040500000F0ACFD042006F0EFF880461248C0687E
:10406000C16C006D0F4406440D440444ADF800706B
:10407000ADF80450ADF80260ADF8064068460DF0AA
:1040800017FF07E023462A463146384605F0E4FB91
:104090000DF0C2FE0028F5D1404606F0CDF801F043
:1040A000FDFFBDE8FC810000AC000220B0F9063045
:1040B000B0F90420B0F90210B0F90000FFF7C2BF58
:1040C0002DE9F8431C00DDE9089816460F46054621
:1040D00002D10CF07DFD044600962E6843464A4608
:1040E00021462846B047060039D00CF066FD8146CF
:1040F000698A30460CF0DCF930460DF057FD484631
:104100000DF054FD4FF000080CE000BFCDF800802A
:1041100055F81CCF00231A4649462846E04700B30D
:104120000DF044FD7F1E002FF0DC1D2148460DF0F0
:104130003EFB601C12D000F039FD0CF08DFD30B15B
:10414000FFF75CFE8469B44201D02000F8D1B4428C
:1041500002D030460DF024FC01F0A0FF3046BDE84F
:10416000F88330460CF01EFC0020F8E72DE9F04102
:104170001C4616460D460746022B02DB0020BDE812
:10418000F0811C20FFF72AFD0028F8D00DB1056151
:104190000AE0094A52F8241009B905E011460A68F4
:1041A000002AFBD1096901618461868200210160D6
:1041B0004160C0E90217E2E7D000022070B51D4659
:1041C000FFF7D4FF040009D000F00EF8E0680068A3
:1041D00020B90348006800EB85008465204670BD67
:1041E000B8000220FFF7D2BC70B590B38269022AF2
:1041F00030DA1E4C54F8221019B944F8220032E08B
:1042000019464B68002BFBD106E0CB68C5681B68DC
:104210002D68AB4203DD09680029F6D11AE0C1B16F
:10422000CB68C6681B683668B3420CD1838A012B01
:1042300005D008E01946DB681B68AB4203DB0B685E
:10424000002BF7D129B14B6833B118604A6842603E
:1042500004E0FFE7012070BD44F822004860884276
:1042600000D100210160002070BD0000D0000220BC
:1042700010B503E00468FFF7B7FF20460028F9D126
:1042800010BD13F0C5BE00002DE9F0410026DFF897
:1042900034800D4F354600BF58F8254009E0E068EE
:1042A0000068385C20B1204613F0B2FE2660264636
:1042B0002468002CF3D16D1C022DEDDB3046BDE8E7
:1042C000F0810000D0000220F4D90108022801DBAF
:1042D00000207047054951F8200004E0C1680968D2
:1042E0000029F6D000680028F8D17047D0000220DD
:1042F0002DE9F8431D461646884604000CD0FFF70A
:10430000FBFC0090006807686846FFF75FFD2B46DE
:10431000324641462046B847BDE8F8832DE9F041D2
:10432000044601F0FDFE06191EE000BF00F0BCFAD5
:10433000052F00DD052700F039FC11480568FFF75F
:10434000D3FC2C0017D000BF01F0A8FE641EFBD1E7
:10435000384601F0D7FE1DB100F028FC6D1EFBD1E0
:10436000FFF72CFD01F09AFE01F0DAFE371A002F5C
:10437000DCDCBDE8F081384601F0C4FEF0E7000067
:104380007C02022047F6FF73AFF300802DE9FC4169
:104390001F4690460D4606004FF000041AD000F06C
:1043A00005FC65B128460DF0A7FB040007D00246C6
:1043B0002946684602F02BFC68460DF09DFB3B4603
:1043C00042462946304602F093F820460DF094FB11
:1043D00001F064FEBDE8FC812DE9FF4F87B09046F7
:1043E000894607007DD000F0E1FBD9F80040D9F8FC
:1043F000045021B228B2401A401C029000F054FB35
:10440000064618F00C0F1ED038460A9A029901F0A1
:104410004FFE08F00C01042904D0082902D00C2911
:1044200011D104E0291400FB1610401C09E02114EE
:10443000C1EB254200FB1620401C00EBD07001EBC5
:10444000600060F31F4448460DF056FB5FEA000B26
:1044500009D00246494604A8CDE9044502F0D7FB3D
:1044600004A80DF049FBA6F1010A38460A9A029900
:1044700002F012FD03900AEB244060F31F45CDE9E2
:1044800000453846039902F02BFB18F003010ED0CB
:1044900001292CD002290ED1B9F90420B9F9001054
:1044A000521A101A00EBD07001EB600001E0B9F86D
:1044B0000000ADF800006A463846039901F0C0FFDD
:1044C00038460A9A029902F0DDFC074406EB2440C4
:1044D00060F31F4438780028C7D158460DF00CFB14
:1044E00000E001E001F0DAFD0BB0BDE8F08FB9F8B3
:1044F0000410081A401CDCE77CB514460D4606463D
:1045000000F054FB11480068C16C006D0D44044478
:104510003188681E0844ADF80400ADF80050718879
:10452000601E0844ADF80600ADF8024068460DF084
:10453000BFFC06E0224629463046FEF7B7F90DF0EB
:104540006BFC0028F6D101F0A9FD7CBDB80002206B
:104550001CB50A460146684602F048FC00F026FBFE
:104560002548BDF80010006830F84C2F1144ADF814
:104570000010BDF8021082881144ADF80210BDF899
:10458000041002881144ADF80410BDF806108088AC
:104590000844ADF8060068460DF08AFC27E000BF2D
:1045A000BDF900400BE000BFBDF90210204604F049
:1045B000D3FFBDF90610204604F0CEFFA41CBDF9C0
:1045C0000400A042F0DABDF902400AE0BDF90000A3
:1045D000214604F0C1FFBDF90400214604F0BCFFF0
:1045E000A41CBDF90600A042F0DA0DF015FC00286D
:1045F000D6D101F053FD1CBDB80002202DE9F04FCB
:1046000087B09B46DDE9109892460C46054600F0BF
:10461000CDFA16480168C86C096D47190E1900EBF0
:104620000A0501EB0B04ADF81070ADF81450ADF8AD
:104630001260ADF8164004A80DF03AFC88B1DFF81E
:1046400030B04FF0000ACDE90098CDE902BA2B4610
:1046500022463946304610F025F80DF0DDFB0028E3
:10466000F1D101F01BFD07B0BDE8F08FB8000220CA
:10467000F19500082DE9F04F87B09B46DDE91098D1
:1046800092460C46054600F091FA16480168C86C3F
:10469000096D47190E1900EB0A0501EB0B04ADF883
:1046A0001070ADF81450ADF81260ADF8164004A8C3
:1046B0000DF0FEFB88B1DFF830B04FF0010ACDE914
:1046C0000098CDE902BA23462A46314638460FF013
:1046D000E9FF0DF0A1FB0028F1D101F0DFFC07B0EC
:1046E000BDE8F08FB8000220699400082DE9FC4174
:1046F00014460D46064600F059FA114F3968C86C49
:10470000096D054404440E44ADF80050ADF8044072
:10471000ADF80260ADF8066068460DF0C9FB08E030
:10472000386822463146406E0368284698470DF0A7
:1047300073FB0028F4D101F0B1FCBDE8FC8100005E
:10474000B80002202DE9F0411C4615460E460746EA
:1047500000F02CFA0C480168C86C096D0744054448
:104760000E440C4400200DF0A3FB07E023462A462C
:1047700031463846FEF7E8F80DF04EFB0028F5D13B
:10478000BDE8F04101F08ABCB80002207CB50C46BF
:10479000064600F00BFA0F4D2868C16C006D0E4400
:1047A0000444ADF80460ADF80060ADF80640ADF823
:1047B000024068460DF07CFB07E028682146406E09
:1047C0004268304690470DF027FB0028F5D101F0F4
:1047D00065FC7CBDB80002202DE9FC411C46164654
:1047E0000D46074600F0E2F91A480168087ECA6CD7
:1047F000096D17440D440C44401E391A1644ADF897
:1048000000103118ADF80410291A2044ADF8060044
:10481000ADF8021068460DF04BFB15E03246294614
:10482000384604F021FE32462146384604F01CFE8C
:10483000621E691C384604F0DBFE621E691C3046AD
:1048400004F0D6FE0DF0E8FA0028E7D101F026FCCE
:10485000BDE8FC81B80002207CB514460D46064632
:1048600000F0A4F90F480068C16C006D0E440544C7
:104870000444ADF80060ADF80460ADF80250ADF846
:10488000064068460DF014FB06E0224629463046F5
:1048900004F0AEFE0DF0C0FA0028F6D101F0FEFBE8
:1048A0007CBD0000B800022010B5002400E0012407
:1048B00000F004F80028FAD1204610BD094810B5D0
:1048C0000068002410B1804700B101240CF0F4F816
:1048D00000B101240448006810B1804700B10124F0
:1048E000204610BDDC000220D80002202DE9FC414A
:1048F0001C4615460E46074600F058F91048006859
:10490000C16C006D0F4406440D440444ADF80070C2
:10491000ADF80450ADF80260ADF8064068460DF001
:10492000C7FA07E023462A463146384604F094FF8A
:104930000DF072FA0028F5D101F0B0FBBDE8FC8162
:10494000B8000220B0F90630B0F90420B0F9021026
:10495000B0F90000FFF7CABF08B50B46002805D024
:10496000009281888268C08800F001F808BD10B507
:104970000828029C30D008DC04FB01F401280AD08E
:10498000022813D0042804D11CE0102828D02028A5
:104990002CD0002010BD04EBD30003F00701105C05
:1049A000C1F10701C84000F0010010BD04EB930005
:1049B0000621105C01EA4301C1F10601C84000F084
:1049C000030010BD04EB5300D907105C02D000F0C7
:1049D0000F0010BD000910BD04FB0130105C10BDBC
:1049E000481004FB003032F8100010BD881004FBA2
:1049F000003052F8200010BD034951F82000C16872
:104A00008A6A082110470000D000022010B500F08B
:104A1000CDF804F051FF04F0E9FF044601F03EFB3D
:104A2000204610BD10B5044600F0C0F8054800212E
:104A30000068C069426820469047044601F02EFB9A
:104A4000204610BDB800022070B50C46054600F0A7
:104A5000ADF8064821460068C0694268284690477C
:104A6000044601F01BFB204670BD0000B800022088
:104A7000002801D00CF07EB8704710B500F096F811
:104A800004F022FF04F0B2FF044601F007FB2046C9
:104A900010BD00000021022802D2024951F8201066
:104AA000084670476802022010B500F07FF80448FD
:104AB0000068C069447E01F0F1FA204610BD000094
:104AC000B800022070B514460D46064600F06EF898
:104AD00022462946304604F02BFF10B10020286002
:104AE0002060BDE8704001F0D9BA70B50C460546AB
:104AF00000F05CF82146284602F046F8BDE8704018
:104B000001F0CCBA10B5044602F030F80146204658
:104B1000BDE8104001F0E4BF01F002BB417EC07E61
:104B200011FB00F07047017EC07E11FB00F0704762
:104B3000024951F82000006900687047D000022047
:104B4000024951F82000006940687047D0000220F7
:104B500070B50D46044600F029F8204611F07EFAA3
:104B60000446284611F082FA044301F097FA2046E1
:104B700070BD000010B501F093FB0A492E200870AB
:104B800001F0D4FA084811F0E5FA04F055FF0446A4
:104B90000021084600F048FE0CF08EFBFEF73CFFBB
:104BA000204610BDAC0002204CB2042070B5184C59
:104BB000E06820B101F0B1FA6168884204D001F0E8
:104BC000B7FA01F0AAFA6060E068401CE0600128D2
:104BD0001CD111F0BDF905462068854216D0002889
:104BE00013DBFFF751FB01462068C0EB0012206980
:104BF00000EBC2025167C5EB0511064A00EBC1008C
:104C0000011D1160406FFFF733FB256070BD000090
:104C100070020220B80002201CB5040004D10E4826
:104C20000068046E002C16D0FFF7C0FF2046FFF787
:104C300063F8009044696846FFF7C8F84CB1204615
:104C4000FFF75AF8019081688968884701A8FFF743
:104C5000BDF801F023FA1CBDB800022001490A4644
:104C600000F002B801F0FFFF2DE9F04387B01546D0
:104C70000C465FEA000846D0FFF798FF002000F0DE
:104C800099FD814621480068066E4046FFF734F8DA
:104C900000900068806900F055FD074640F6FF70FF
:104CA000C44204D10098B0F90440B0F9065000980D
:104CB000611E0289ADF804401144ADF80810418925
:104CC000681E0844ADF80650ADF80A000BF0E6FC8B
:104CD0006846FFF77BF801A80DF0EAF806E02A46DF
:104CE0002146404600F082FB0DF096F80028F6D1F0
:104CF000384600F027FD304600F08AF9484600F0BB
:104D000059FD01F0CBF907B0BDE8F083B8000220EF
:104D10002DE9FE4F984691468A46834600270C9E11
:104D2000FFF744FF184819490068407C51F82040BB
:104D3000E1680968042903D02468002CF8D100E058
:104D40001CB9FFF7C3FA04001BD0E0680121C26A56
:104D500020469047050011D02469A0688047401C78
:104D600002D10B4C46F001060096CDE901544346B2
:104D70004A465146584600F0DFF9074601F08EF9E1
:104D80003846BDE8FE8F0000B8000220D0000220A7
:104D9000E43C020838B504001CD0FFF707FF0E48BA
:104DA0000068006EA04201D100F0BEFC2046FEF774
:104DB000A3FF0090406908B101F059F9009800681C
:104DC000FFF710FA6846FFF701F82046FEF7C0FE2D
:104DD00001F064F938BD0000B80002202DE9FF4F52
:104DE000DFF83891074683B0D9F800009A468B4621
:104DF000447C4B4800570128204606DD04F0C0FDE6
:104E00000546204604F0C8FD05E004F0A7FD054670
:104E1000204604F0A9FD04461FB302A901A8FFF72C
:104E200064FEB7F90000002800DA0020B7F902603C
:104E30008046002E00DA002601984119B7F90400D7
:104E4000491E11F00BFB054602980119B7F906003F
:104E5000491E11F003FBA5EB0802841B521C641CC5
:104E600003E04FF0000846462A46BAF1000F01D190
:104E7000C4F1000A002A4FDD002C4DDD109800908F
:104E8000534631464046FFF743FF5FEA000A10D021
:104E900000F078F80746A04206D0D9F80000806CF0
:104EA00010B132210DF09EFB504600F0B1F8002504
:104EB00021E0594605988847012007B0BDE8F08FEA
:104EC000611BB94202DA504600F086F83DB1721912
:104ED0004146504600F0C4F85046FFF79DFE594643
:104EE000059888470F48016809B100208847504657
:104EF000FFF7B4FE3D44A542E2DB5046FFF74AFF10
:104F0000002000F085F8A74206D0D9F80000806C98
:104F100010B133210DF066FB0020CEE7B80002206F
:104F2000F0000220B402022038B505004FF0000462
:104F300011D0FFF73BFE2846FEF7DEFE009000682A
:104F400000698068804705F07DFC04466846FEF7EE
:104F50003DFF01F0A3F8204638BD38B504000ED05F
:104F6000FFF724FE2046FEF7C7FE00F1180400906C
:104F70006846FEF72BFF01F091F8204638BD00206F
:104F800038BD000038B504460025FFF70FFE1CB9F8
:104F900008480068046E44B12046FEF7ADFE00905C
:104FA000B0F90A506846FEF711FF01F077F828467D
:104FB00038BD0000B800022070B505460024284620
:104FC0000DF07EFF641C18B1BDE8704000F07AB8A7
:104FD000052CF4DB70BD000038B50C46050004D18B
:104FE0000A480068056E002D0FD0FFF7DFFD284648
:104FF000FEF782FE0090B0F90A10A14200DD448164
:105000006846FEF7E3FE01F049F838BDB80002201B
:10501000F8B50546FFF7CAFD104E3068046ECDB1F5
:105020000CB100F081FB0BF075FC2846FEF764FE26
:10503000009031680D660068FFF7D6F86846FEF705
:10504000C5FE05F02BFA05F04DF800BF01F026F87B
:105050002046F8BD00F068FBF8E70000B800022029
:105060007CB515460E46040004D115480068046E50
:10507000002C24D0FFF79AFD2046FEF73DFE2DB20E
:105080000090C58034B2848005F02CF80098406907
:1050900080B1FEF731FE009A0190B2F908108180CC
:1050A000B2F90A20C28011B10AB10480458001A87A
:1050B000FEF78CFE6846FEF789FE00F0EFFF7CBD30
:1050C000B800022001490A4600F002B801F0FFFFD3
:1050D0007FB515460C4606002DD0FFF767FD30461C
:1050E000FEF70AFE40F6FF710190CC4203D1B0F901
:1050F0000440B0F906500289611E1144ADF8084021
:10510000ADF80C104189681E0844ADF80E00ADF8EA
:105110000A5001A8FEF75AFE02A80CF0C9FE06E0EC
:105120002A462146304600F049F90CF075FE002869
:10513000F6D100F0B3FF7FBD2DE9FF4FDFF8E8B0F7
:1051400083B01C46DBF80010DDE9106092464FF09A
:1051500000084B7C42461299FFF708F8050060D022
:1051600028698068804705F06DFB81460AFB09F1DC
:10517000C91DCF08FEF7FAFDF10705D1C11700EBF5
:105180009170801000EB4000002C09DC1FB1183832
:10519000B0FBF7F000E000206442A04200DC0446CF
:1051A000F00707D10090DDE903012346524600F0E5
:1051B000E3FE8046002C03DC2846FFF713F830E0BE
:1051C00004FB07F01830F10702D0FEF793FC01E072
:1051D000FEF79FFC06001CD0FEF78EFD01900560D7
:1051E000039981800499C180A0F808A04481C0F887
:1051F0001480C0E9037901A8FEF7E8FD1298AE60BB
:105200002861DBF80000407CA861304607B0BDE8AB
:10521000F08F2846FEF7E6FF5FEA080001D0FEF7B0
:1052200097FC0020F2E70000B80002202DE9F74FBC
:105230008EB0144689460E98FEF75EFD0990B0F9CF
:1052400008B0B0F90A600068006940680C9009A8CD
:10525000FEF7BCFD564D574F2868407C57F820009C
:10526000C1688A6A082190470790182801D3202036
:1052700007902868407C57F820000069069003C812
:105280000B904D48814201D0012000E000200A909F
:10529000002000F04FFF00287DD1286809EB0B01AA
:1052A000B0F90C20891A491E002902DDABEB01057B
:1052B00000E05D46B0F90810494505DDA1EB0901A4
:1052C00089446D1A089101E000210891002D6BDDE1
:1052D000B0F90E20A119891A491E002902DDA6EB9A
:1052E000010800E0B046B0F90A00A04204DD061B48
:1052F0003444A8EB060800E00026B8F1000F53DDA7
:10530000089801900DA95F46DDF830A00E98009135
:10531000FFF723FE774300EB870101982B4601EB53
:10532000800200994846CDE900A1214601F090F99C
:105330000090002838D00A98E8B1DDE90632294605
:10534000009800F0A7FFB0B90698009FDA46D0F8A1
:1053500010C0BCF1000F05D004235A463946384628
:10536000E04708E00B993868884701C7AAF10100B7
:105370005FEA000AF6D100990020079ACDE90301FF
:10538000059001200090CDE9010221460346641CEE
:105390002A46484600E007E003F064FFA8F1010058
:1053A000761C5FEA0008ABD111B0BDE8F08F0000B9
:1053B000B8000220D00002200B9A0008F8B515466C
:1053C0000E460746FEF798FC009000681621C0685C
:1053D000426A0020904704466846FEF7F7FC002C1E
:1053E00003D02A4631463846A047F8BDF8B51646E0
:1053F0000F46050012D0FEF77FFC00904469684616
:10540000FEF7E4FC2846FFF78FFD0346082800DD81
:105410002CB132463946284612F08AFEF8BD324693
:105420003946284613F024F8F8BD00000248006809
:10543000407C00F003B80000B8000220F8B51D4918
:10544000096809B1002200E002461B498D56012D72
:105450002EDD1849143151F822305B1C41F82230FE
:10546000012B25D1A1F108030026103953F8224061
:1054700051F8221053F822707F1C43F82270AF427B
:1054800001D143F8226053F822708F42F2D03D469A
:10549000FEF71CFF009000280AD0C0682121426A54
:1054A00068469047030003D02A4621460098984753
:1054B000F8BD000034020220F0000220024800681B
:1054C000407C00F003B80000B800022038B5144951
:1054D000096809B1002200E00246124989560129F3
:1054E0001CDD0F49143151F822305B1E41F8223087
:1054F00014D1083951F82240103141F82240FEF70A
:10550000E5FE0090002809D0C0682221426A684662
:105510009047020002D021460098904738BD000015
:1055200034020220F000022010B5002821D009B377
:105530000AB3B1F90040B2F900309C4200DA2346C8
:105540000380B1F90240B2F902309C4200DA2346EE
:105550004380B1F90440B2F904309C4200DD234697
:105560008380B1F90610B2F90620914200DC1146A1
:10557000C18010BD11460A6802604968416010BDD3
:1055800000280BD003880B44038083881944818052
:10559000418811444180C1881144C1807047000096
:1055A00070B50E4D0446D5E90001884209D10C4979
:1055B000884201D13C3000E00C3807C884E807007D
:1055C00006E090E80E0084E80E0010F065FD28600B
:1055D000207A002800D0012070BD00005C04022069
:1055E000ACB304200448D0E90010814201D101206D
:1055F00070470020704700005C040220054A10B587
:105600000349116012F0E6FBBDE8104000F05AB902
:10561000CD0E0108E000022070B50025FFF7C6FAA4
:10562000094CD4E9002082420AD0D2E90056104643
:1056300010F03CFD2060314628460BF0AFFF0125FD
:1056400000F02CFD284670BD580202202DE9FC41D7
:10565000154DDDE908742D68B5F90860864200DD56
:105660003046B5F90C60964200DA3246824219DBC8
:10567000B5F90A608E4200DD3146B5F90E509D4203
:1056800000DA2B468B420DDB00E02C46E5682D68E6
:1056900025B1042D02D02568002DF6D1CDE9007486
:1056A00004F000FBBDE8FC81B8000220B0F9022044
:1056B000B1F906309A4213DCB1F90220B0F9063094
:1056C0009A420DDCB0F90020B1F904309A4207DCAF
:1056D000B1F90010B0F90400814201DC01207047EB
:1056E000002070470146024870220068FAF7ECBFBC
:1056F000B800022070B515460E4604000AD0FFF728
:1057000055FA2A463146204612F0D4F8BDE87040DA
:1057100000F0C4BC70BD0000024970220968FAF7AD
:10572000D3BF0000B800022010B5FFF73FFA04F025
:105730008FFC04F0B3FE0AF0B1FFBDE8104000F0AA
:10574000ADBC000070B50B4D04462868467CFFF7E1
:105750002DFA022C09D22046FEF7B8FD28B12868A0
:105760004474FFF7E1FF0448046000F097FC304602
:1057700070BD0000B8000220C401022010B504462C
:10578000FFF714FA204604F083FCBDE8104000F057
:1057900085BC10B50446FFF709FA204604F0B0FCBA
:1057A000BDE8104000F07ABC0149886070470000F5
:1057B000AC00022010B50446FFF7F8F9204604F0CB
:1057C0003BFD044600F06AFC204610BD70B504465F
:1057D000FFF7ECF904480068C56904B1C46100F042
:1057E0005DFC284670BD0000B800022070B514466C
:1057F0000D460646FFF7DAF922462946304604F000
:1058000037FD044600F04AFC204670BD70B50546E1
:10581000FFF7CCF903480068847E857600F03EFCF3
:10582000204670BDB800022070B50C460546FFF753
:10583000BDF90948224605800848048008480068E8
:10584000417C084850F82100C1680B6A29469847F6
:10585000BDE8704000F022BCF8000220FA000220EF
:10586000B8000220D000022070B50546FFF79EF96F
:1058700003480068047E057600F010FC204670BDE9
:10588000B800022070B50446FFF790F9044800689C
:10589000B0F92C50848500F001FC284670BD000052
:1058A000B800022070B50446FFF780F9044800688C
:1058B000B0F92A50448500F0F1FB284670BD000085
:1058C000B800022002480068002800D00047704756
:1058D0009402022002498A6802B98860FFF7F2BF89
:1058E000580202202DE9FC41984616460D4607460F
:1058F000FFF75CF91C20FEF70CF904002DD01C49C1
:105900001A4808602046FEF7F7F9009015B9FFF72E
:1059100003F9054600980760C0E90465A0F80C800B
:105920006846FEF753FA204610F0F6FC114DA868C1
:1059300040B90120A86005F10C010F480860084635
:1059400001F062FA2046FEF7D7F90190296849B1C3
:1059500081602C6001A8FEF739FA00F09FFB204619
:10596000BDE8FC8100212C608160F3E7A5590008A7
:10597000DC000220680402208967010810B50400D9
:105980000ED0FFF713F9204611F034FD204612F037
:1059900017FB2046FEF7DCF8BDE8104000F07EBBA8
:1059A00010BD00002DE9F04188B00025FFF7FEF89A
:1059B000184C676825E000BFFFF7AEF80646606840
:1059C000FEF79AF901904169891B002915DC61688D
:1059D000029604910169039146686660D0F80080E0
:1059E00001A8FEF7F3F902A84146884766B160684E
:1059F0000125B84205D1002506E001A8FEF7E6F929
:105A000002E060680028D7D100F048FB08B02846C3
:105A1000BDE8F0816804022038B50C46050011D0BD
:105A2000FFF7C4F82846FEF767F900908089204206
:105A300001D0012400E000246846FEF7C7F900F019
:105A40002DFB00E00124204638BD38B5040017D0F6
:105A5000FFF7ACF82046FEF74FF90090FFF75CF82F
:105A6000014600988269114441616846FEF7AEF92B
:105A7000204612F0A5FA204610F04EFC00F00EFB76
:105A800038BD38B50C4605000BD0FFF78FF8284617
:105A9000FEF732F9009084616846FEF797F900F04E
:105AA000FDFA38BD38B50546002028600648046870
:105AB00044B12046FEF720F900900069286068464E
:105AC000FEF784F9204638BD6804022038B504008A
:105AD0004FF000000D46086011D02046FEF70CF98B
