:020000040800F2
:10000000280A0220AD020008FD8100086F410008A7
:10001000B902000875090008C5A300080000000027
:100020000000000000000000000000005D870008E4
:10003000790C000800000000B98500081588000848
:10004000C7020008C7020008C7020008C70200086C
:10005000C7020008C7020008C7020008C70200085C
:10006000C7020008C7020008C7020008C70200084C
:10007000C7020008C7020008C7020008C70200083C
:10008000C7020008C7020008C7020008C70200082C
:10009000C7020008C7020008C7020008C70200081C
:1000A000C7020008C7020008C7020008C70200080C
:1000B000C7020008C7020008C7020008C7020008FC
:1000C000C7020008C7020008C7020008C7020008EC
:1000D000C702000825A30008C7020008C7020008DD
:1000E000C7020008C7020008C7020008C7020008CC
:1000F000C7020008C7020008C7020008C7020008BC
:10010000C7020008C7020008C7020008C7020008AB
:10011000C7020008C7020008C7020008C70200089B
:10012000C7020008C7020008C7020008C70200088B
:10013000C7020008C7020008C7020008C70200087B
:10014000C7020008C7020008C7020008C70200086B
:10015000C7020008C7020008C7020008C70200085B
:10016000C7020008C7020008C7020008C70200084B
:10017000C7020008C7020008C7020008000000000C
:10018000C7020008C7020008C7020008C70200082B
:10019000C7020008C7020008C7020008C70200081B
:1001A000C7020008C7020008C7020008C70200080B
:1001B000C7020008C7020008C7020008C7020008FB
:1001C000C7020008C702000800000000C7020008BC
:1001D000C7020008C7020008C7020008C7020008DB
:1001E000C7020008C7020008C7020008C7020008CB
:1001F000C7020008C702000800F002F800F047F844
:100200000AA090E8000C82448344AAF10107DA4571
:1002100001D100F03CF8AFF2090EBAE80F0013F07C
:10022000010F18BFFB1A43F001031847C8F1000083
:10023000E8F10000103A24BF78C878C1FAD8520714
:1002400024BF30C830C144BF04680C607047000050
:100250000023002400250026103A28BF78C1FBD8CF
:10026000520728BF30C148BF0B607047642900F0B7
:10027000AF80782900F0E880732900F0AA8200207E
:1002800070471FB50AF0C6FB1FBD10B510BD00F0CA
:10029000C3FA1146FFF7F5FF0AF0A6FA00F0E1FAFB
:1002A00003B4FFF7F2FF03BC0AF0C8F8094880471F
:1002B00009480047FEE7FEE7FEE7FEE7FEE7FEE748
:1002C000FEE7FEE7FEE7FEE704480549054A064B60
:1002D000704700001D880008F9010008280402206A
:1002E000280A022028060220280602207047000063
:1002F0000FB4044910B503AA029800F06FFA10BCBD
:100300005DF814FB0C0002200FB41CB5074B06AAC5
:100310007B4469460090059800F031FA0020694658
:1003200000F040FA1CBC5DF814FB000091040000D2
:1003300070B5044685690068C10601D5302600E025
:100340002026C00707D070BDD4E901213046904770
:10035000206A401C20626D1EF6D570BD70B5044643
:1003600085690078C00707D170BDD4E9012120203C
:100370009047206A401C20626D1EF6D570BD70B596
:100380000C460546012A05D02878800600D5EA6982
:10039000002302E0012305E05B1C934202D2E05CF3
:1003A0000028F9D1A869E618C01AA861286A18447B
:1003B00028622846FFF7BCFF04E0D5E9012114F8C4
:1003C000010B9047B442F8D32846FFF7C7FF70BD32
:1003D0002DE9F0410646002410687529314616A51E
:1003E00010D0AFF30080002802DA404213A507E0E6
:1003F00031688A0701D512A502E0490704D511A585
:10040000012401E0AFF3008000210A2206F1240755
:1004100009E0B0FBF2FCB0FBF2F302FB1C00303051
:1004200078541846491C0028F3D123462A46304602
:10043000BDE8F04100F045B9000000002D000000CB
:100440002B0000002000000070B504460D46214638
:100450001068AFF300802188090502D50F4A7A445D
:1004600002E00E4A7A440E32002104F1240305E032
:1004700000F00F060009965D5E54491C0028F7D174
:1004800020780023000704D5702D02D009B1022383
:1004900011322046BDE8704000F013B9DAEE0000DA
:1004A0002DE9F05F894604464FF0000ADFF824B1D9
:1004B000FB44C0F820A02046E168884700287DD092
:1004C000252806D0D4E901219047206A401C2062EB
:1004D000F1E700255F462046E16888472028064668
:1004E00007DB312E05D2B81910F8200C08B10543EE
:1004F000F1E7A80701D525F00405C4F81CA00027E2
:10050000C4F818A02A2E09D0304609F090FF38B35D
:1005100004EB8708303EC8F8186019E059F8041B4E
:10052000204604EB87029161E1688847012F064667
:1005300018D1E069002820DA25F020051DE0D8F860
:10054000180000EB800006EB40003038C8F81800B7
:100550002046E1688847064609F069FF0028EED189
:10056000012F0AD02E2E08D12046E16888477F1C33
:100570000646022F45F02005C4DBA069002803DAF7
:10058000404245F00105A061E80701D025F01005C3
:10059000A6B1A6F14100192802D8203645F400651D
:1005A0004A463146204625604D46FFF75FFE60B162
:1005B000012807D0ED1D25F0070000E007E000F15D
:1005C000080978E705F1040975E730467AE7206AFB
:1005D000BDE8F09FB0EE000010B5203AC0F00B80EF
:1005E000B1E81850203AA0E81850B1E81850A0E837
:1005F0001850BFF4F5AF5FEA027C24BFB1E8185091
:10060000A0E8185044BF18C918C0BDE810405FEA00
:10061000827C24BF51F8043B40F8043B08BF70477C
:10062000D20728BF31F8023B48BF11F8012B28BF81
:1006300020F8023B48BF00F8012B70474FF0013C07
:1006400050F8042B51F8043B9A4215D1A2EB0C034D
:10065000934313EACC130BD150F8042B51F8043B0D
:100660009A4209D1A2EB0C03934313EACC13E7D0CF
:100670004FF00000704700BFD01A01BAB1FA81F103
:1006800001F0180122FA01F0CB40C1F12001DBB2E8
:10069000C0B2C01A2CFA01F3D11A914311EAC31166
:1006A000E6D17047704770477047704710B500F04B
:1006B000A7F8006810BD10B5044600F0A1F804606A
:1006C00010BD2DE9F0470D4699469246044600F1CB
:1006D00024080168880604D5E06921F01001216032
:1006E00000E00120A84201DD471B00E00027A169CE
:1006F0007A1902EB0900081AA0612078C00602D41A
:100700002046FFF715FE002608E0D4E901211AF87B
:1007100006009047206A401C761C20624E45F4DBA0
:100720002078C0060AD52046FFF702FE06E0D4E98D
:10073000012130209047206A401C2062381EA7F11A
:100740000107F4DC07E0D4E9012118F8050090471F
:10075000206A401C2062281EA5F10105F3DC20461A
:10076000FFF7FCFD2078000602D50220BDE8F087E7
:100770000120FBE701694A1C02610878704700B557
:100780008FB0CDE901310021059105497944CDE9CA
:10079000031011466846FFF783FE0FB000BD00004E
:1007A000E5FFFFFF0A6802F8010B0A60704710B509
:1007B000436913B1AFF3008001E0FFF7E0FD0120D2
:1007C00010BD127800F124010A7000224A70012243
:1007D000EDE711684FF0FF32E9E70000074B70B515
:1007E0000D467B44FFF7CBFF0446284600F00CF88B
:1007F00010B14FF0FF3070BD204670BD3F9E00002D
:1008000000487047C8030220007B00F0800070475A
:1008100000487047C80302207546FFF7F9FFAE464F
:1008200005006946534620F00700854618B020B5FC
:10083000FFF74AFDBDE820404FF000064FF00007EB
:100840004FF000084FF0000B21F00701AC46ACE878
:10085000C009ACE8C009ACE8C009ACE8C0098D46E5
:1008600070470446AFF300802046FFF719FD10B52E
:1008700003F0AAFC10BD2DE9F04107460C46002606
:10088000002509E036023919491B491E88B200F0DB
:1008900008F80644681CC5B2A542F3DB3046BDE843
:1008A000F08170B50446002603F058FD2546E11797
:1008B00004EB11610912A02202EB4101C8B203F05E
:1008C0000FFD03F09FFDE11704EB11610912A4EB8A
:1008D0000121C8B203F004FD03F094FD03F03EFDD6
:1008E000A12003F0FDFC03F08DFD002003F0C2FC0D
:1008F000064603F05DFD304670BD2DE9F04105462A
:100900000E461746002409E0E20026FA02F2D1B2B0
:100910002A1990B200F006F8601CC4B2BC42F3DBA6
:10092000BDE8F08170B504460E4603F017FD25467C
:10093000E11704EB11610912A02202EB4101C8B2D8
:1009400003F0CEFC03F05EFDE11704EB1161091228
:10095000A4EB0121C8B203F0C3FC03F053FD304601
:1009600003F0BEFC03F04EFD03F022FD0A2009F067
:1009700029FE70BD00BFFEE710B5022009F02EFE73
:1009800010BD000010B5002208210D4801F0BAFB8F
:10099000FFF7F2FF012240210A4801F0B3FBFFF705
:1009A000EBFF00224021074801F0ACFBFFF7E4FF1A
:1009B00001220821024801F0A5FBFFF7DDFF10BD71
:1009C00000200240001C024000B587B000BF17485D
:1009D000006840F08000154908600846006800F093
:1009E0008000019000BF00BF00BF0846006840F4CF
:1009F000807008600846006800F48070019000BFB5
:100A000000BF402002901120039001200490032099
:100A1000059002A9064801F05DFA0820029002A99B
:100A2000044801F057FA07B000BD0000303802401A
:100A3000001C02400020024010B5012208210A4893
:100A400001F060FBFFF798FF01224021074801F009
:100A500059FBFFF791FF00224021044801F052FBAF
:100A6000FFF78AFF10BD000000200240001C02407A
:100A700070B505460024002618E06006040E012229
:100A800040210F4801F03EFBFFF776FF08210D489B
:100A900001F02CFB08B1601CC4B2002240210848C0
:100AA00001F030FBFFF768FF701CC6B2082EE4DBD4
:100AB00015B9FFF7C1FF01E0FFF764FF204670BDE5
:100AC000001C02400020024070B5044600251EE0D4
:100AD000E00928B101220821114801F013FB04E0CC
:100AE000002208210E4801F00DFBFFF745FF01220F
:100AF00040210C4801F006FBFFF73EFF0022402199
:100B0000084801F0FFFA6006040E681CC5B2082D03
:100B1000DEDB01220821024801F0F4FA70BD00007A
:100B200000200240001C024010B5012208210C48A0
:100B300001F0E8FA012240210A4801F0E3FAFFF748
:100B40001BFF00220821064801F0DCFAFFF714FF22
:100B500000224021034801F0D5FAFFF70DFF10BD38
:100B600000200240001C024010B5002208210A4863
:100B700001F0C8FAFFF700FF01224021074801F009
:100B8000C1FAFFF7F9FE01220821034801F0BAFA81
:100B9000FFF7F2FE10BD000000200240001C0240E2
:100BA00070B50024002501220821134801F0AAFA9B
:100BB000FFF7E2FE01224021104801F0A3FAFFF7FF
:100BC000DBFE09E0601CC4B2FA2C03DDFFF7CCFFAA
:100BD000012507E0FFF7D0FE0821074801F086FA5B
:100BE0000028EFD100BF00224021044801F08AFA1A
:100BF000FFF7C2FE284670BD00200240001C0240E4
:100C000010B500BF00BF00BF00BF00BFBFF34F8FD4
:100C100000BF00BF00BF00BF00BF00BFBFF36F8FAA
:100C200000BF00BF00BF00201149086011480068E4
:100C300040F400300F49086000BF00BF00BFBFF3A1
:100C40004F8F00BF00BF00BF00BF00BF00BFBFF39A
:100C50006F8F00BF00BF00BF00BF07F0AFFC0448AC
:100C60004C30006840F0040001494C31086010BD70
:100C700050EF00E014ED00E07047000070B504464E
:100C80001D460023B5F5804F13D154F822300C488F
:100C90000340D1E9000640EA06108E6840EA0620CB
:100CA0008E8940EA06408E693043034344F822307F
:100CB00003E06FF0704044F82200002070BD000097
:100CC0000000F0CF10B502460023086852F820302B
:100CD0001B480340D1E901042043CC6820430C6940
:100CE00020434C6920438C692043CC6920430C6A23
:100CF00020434C6A20438C6A2043CC6A20430C6B0F
:100D000020438C6B20434C6B2043034388680828A6
:100D100001D143F04003086842F82030086BB0F579
:100D2000801F05D1086818B110680C6B2043106053
:100D3000086818B110684C6B20431060002010BD8B
:100D40008004C0FF30B5034614460022601C53F8EF
:100D5000202002F04042D1E9000540EA05108D68EC
:100D600040EA05208D8940EA0545088A401E45EA8B
:100D70000055087D801E45EA00608D6928430243C6
:100D8000601C43F82020186800F4801038B15868BF
:100D900020F47002088A401E42EA00525A60002085
:100DA00030BD30B50246002300240868012816D063
:100DB00013686FF30E03D1E901052843CD6828437A
:100DC0000D6928434D6928438D692843CD6928431F
:100DD0000D6A28434D6A28430343136019E01368E2
:100DE00023F4F843D1E9070528434D6A2843034318
:100DF00054686FF30E04D1E901052843CD682843F8
:100E00000D6928434D6928438D69284304431360C5
:100E10005460002030BD0246506940EA41005061F4
:100E200000207047F8B506460C4615460020009095
:100E30000027D4E900010843A168491E40EA411097
:100E4000E16840EA412000900098306101F060F9CB
:100E5000074609E0681C38B125B101F059F9C01BFB
:100E6000A84201D90320F8BDB06900F02000002895
:100E7000F0D100BFF7E7000070B503461546002229
:100E80000024012D1FD09A6802F070420868401EAD
:100E90004E68761E40EA06168868401E46EA00261E
:100EA000C868401E46EA0036088A401E46EA0046E8
:100EB000888A401E46EA0056087E401E46EA0060C8
:100EC00002439A6022E09A6811480240C868401EB6
:100ED0000603888A401E46EA00500243DC6804F09C
:100EE00070440868401E4E68761E40EA0616886800
:100EF000401E46EA0026088A401E46EA0046087E52
:100F0000401E46EA006004439A60DC60002070BD29
:100F1000FF0F0FFF10B588B0012400BF55480068CF
:100F200040F08000534908600846006800F08000E7
:100F3000009000BF00BF00BF0846006840F480700A
:100F400008600846006800F48070009000BF00BF91
:100F50008020019000200290012003900320049043
:100F600001A9454800F0B6FF20020190012002903F
:100F700001A9424800F0AEFFFFF726FD0022210242
:100F80003E4801F0BFF8142009F01CFB01221102B9
:100F90003A4801F0B7F8322009F014FB00208DF830
:100FA0001800022206A9A12000F078F89DF8180088
:100FB000302803D19DF81900032807D09DF81900A7
:100FC000012803D09DF81900022824D19DF81900AA
:100FD0009DF8182000EB022129A0FFF789F90122D2
:100FE00006A9002000F03AFA012206A9A42000F088
:100FF00035FA16208DF81800012206A9802000F08D
:101000002DFA0C208DF81800012206A9882000F086
:1010100025FA00242BE0042206A948F2401000F033
:10102000FBFA00208DF81C0006A918A0FFF760F954
:1010300019480699016002208DF81800012206A9BE
:1010400048F2400000F0C0FC012206A948F2470027
:1010500000F0E2FA0A2009F0B5FA00208DF8180035
:10106000012206A948F2400000F0AEFC0024204610
:1010700008B010BD30380240001C02400020024081
:101080004354502049443A25780D0A0043545020D7
:1010900049443A25730D0A00240002202DE9F0414D
:1010A00006460F461546FFF73FFD7020FFF70CFD83
:1010B000FFF776FDF0B2FFF707FDFFF771FDFFF7D1
:1010C00033FD7120FFF700FDFFF76AFD00240BE000
:1010D000691EA14201D0012100E000210846FFF76E
:1010E000C7FC3855601CC4B2AC42F1DBFFF73CFDD5
:1010F000BDE8F08171B583B0002001900026CF4893
:101100000078401CCD490870084600780A2190FB01
:10111000F1F201FB120018B1C84800780A287DDA04
:10112000C7A1C848FFF78AFAD8B9012203A948F233
:101130004E1000F071FA9DF80C0000F08000A8B18C
:101140009DF80C0000F00F00BF49097888420DDCC3
:1011500000200190012201A948F24E1000F034FC59
:1011600004E0012203A90220FFF798FF9DF80C007C
:1011700000F00F00002851D09DF80C0000F00F0087
:10118000B1490978884249DC9DF80C0000F00F0154
:10119000FF208840C4B2AD48858EE04380B240F065
:1011A000C000AA49888608468289A7480078401E60
:1011B0000C3121F81020A548028CA3480078401E6D
:1011C000143121F81020042009F0FCF900200190CE
:1011D000AAE09E48808E9DF804200121914008409D
:1011E00000282FD096A19748FFF728FAE8BB984926
:1011F0009DF8042031F81200042202A900F00CFA34
:10120000924890F8440000F00100E0B19DF8080019
:101210009DF8091000EB012081B200E0C2E08B488C
:101220000C309DF8042020F812109DF80A009DF85B
:101230000B1000EB012081B2844820309DF804207F
:1012400020F812106BE09DF808009DF8091000EBE3
:10125000012081B27D4820309DF8042020F8121032
:101260009DF80A009DF80B1000E00CE000EB012057
:1012700078490988081A81B274480C309DF8042016
:1012800020F812104BE074499DF8042031F8120048
:10129000042202A9FFF702FF6C4890F8440000F016
:1012A0000100E0B19DF809009DF8081001F00F0160
:1012B00000EB0120654920319DF8042021F812003F
:1012C0009DF80B009DF80A1001F00F0100EB0120C2
:1012D0005E490C319DF8042021F812001FE09DF8B2
:1012E00009009DF8081001F00F0100EB0120594999
:1012F0000988081A81B255480C309DF8042020F85E
:1013000012109DF80B009DF80A1001F00F0100EB80
:1013100001204E4920319DF8042021F812009DF84B
:101320000400401CC0B201909DF8040046490978B1
:101330008842FFF64EAF0126444880894549098816
:10134000884205DC4148008C42494988884226DDB4
:101350009DF80C0000F00F0001280ADD3B48C08911
:101360003A4988810846408C088400203349087037
:1013700018E035480078401E34490C3131F810002F
:101380000C39888130480078401E203131F8100037
:1013900020390884802003900846858602E00020DA
:1013A0002649087026A12748FFF748F9F0B99DF8AB
:1013B0000C0000F08F00802835D1244890F83400CC
:1013C00000F0800030B12148808E20F080001F495D
:1013D000888628E04FF6FF701C49888108840846FB
:1013E00090F8340000F0E00088861CE09DF80C00C6
:1013F00000F01F00B8B9154890F8340000F08000E4
:1014000030B11248808E20F08000104988860AE0B2
:101410004FF6FF700D4988810884084690F8340023
:1014200000F0E000888605480078F02802DD0A20F8
:1014300002490870304604B070BD00002A00022046
:10144000393131002400022029000220300002201E
:1014500094F10008400202208AF100082DE9F041D1
:1014600005460E4617464FF00008FFF75DFB70205B
:10147000FFF72AFBFFF794FBE8B2FFF725FBFFF726
:101480008FFB00240BE0305DFFF71EFBFFF788FBAE
:101490008046B8F1000F00D003E0601CC4B2BC422B
:1014A000F1DB00BFFFF760FB4046BDE8F0810000C4
:1014B00000B589B000BF4A48006840F08000484944
:1014C00008600846006800F08000019000BF00BF7F
:1014D00000BF0846006840F4807008600846006855
:1014E00000F48070019000BF00BF802002900020B7
:1014F0000390012004900320059002A9394800F0D0
:10150000E9FC4FF4807002900120039002A9364854
:1015100000F0E0FCFFF758FA00224FF480713248E7
:1015200000F0F0FD0A2009F04DF8012211022E48CA
:1015300000F0E8FD0A2009F045F880200290002024
:10154000039004900320059002A9264800F0C2FCF5
:10155000642009F037F8042207A948F2401000F08F
:101560005BF800208DF8200007A920A0FEF7C0FE40
:1015700021A107A8FFF762F878BB02208DF81C00B4
:10158000012207A948F2400000F01EFA012207A933
:1015900048F2470000F040F89DF81C0060280DDA82
:1015A0009DF81C1016A0FEF7A3FE1A48808845F28D
:1015B0001051884202D1012000F0D8F90A2009F028
:1015C00001F800208DF81C00012207A948F2400014
:1015D00000F0FAF9002009B000BDFFE70020FAE7AB
:1015E00030380240001C024000200240435450208A
:1015F00049443A25730D0A003931343700000000A0
:1016000044656661756C74205665723A25640D0AEE
:1016100000000000400202202DE9F04105460F467F
:101620001646FFF781FA2820FFF74EFAFFF7B8FABF
:101630002812FFF749FAFFF7B3FAE8B2FFF744FAC6
:10164000FFF7AEFAFFF770FA2920FFF73DFAFFF730
:10165000A7FA00240BE0711EA14201D0012100E095
:1016600000210846FFF704FA3855601CC4B2B442A2
:10167000F1DBFFF779FABDE8F081000071B583B0C6
:1016800000240026B5480078401CB449087008467C
:1016900000780A2190FBF1F201FB120018B1AF486B
:1016A00000780A2871DA012203A948F24E10FFF7E8
:1016B000B3FF9DF80C0000F0800068B19DF80C00AD
:1016C00000F00F00062807DA00200190012201A98E
:1016D00048F24E1000F078F99DF80C0000F00F0071
:1016E000002852D09DF80C0000F00F000628D9DA2F
:1016F0009DF80C0000F00F01FF208840C0B201905F
:10170000974890F834509DF80400C04380B240F0F0
:10171000C00093498886084681898182018C0185B1
:101720000024C3E08E48808E0121A140084000289B
:101730002AD08C4931F81400042202A9FFF76CFF6B
:101740008948808845F21051884236D1844890F803
:10175000440000F00100C8B19DF808009DF8091090
:1017600000EB012081B27E48203020F814109DF853
:101770000A009DF80B1000EB0120C0F5487081B203
:1017800077480C3020F814108EE0BFE09DF8080078
:101790009DF8091000EB012081B271480C3020F84F
:1017A00014109DF80A009DF80B1000EB012081B287
:1017B0006B48203020F8141076E06B48808844F2A3
:1017C0004231884235D1664890F8440000F001006B
:1017D000B0B19DF808009DF8091000EB012081B21E
:1017E0005F480C3020F814109DF80A009DF80B108B
:1017F00000EB012081B25A48203020F8141053E049
:101800009DF808009DF8091000EB012081B25448B2
:10181000203020F814109DF80A009DF80B1000EB02
:101820000120C0F5887081B24D480C3020F81410AA
:101830003AE04D48808844F28431884234D14848A7
:1018400090F8440000F00100B0B19DF808009DF848
:10185000091000EB012081B241480C3020F814102F
:101860009DF80A009DF80B1000EB012081B23C4866
:10187000203020F8141017E09DF808009DF809109A
:1018800000EB012081B23648203020F814109DF87A
:101890000A009DF80B1000EB0120C0F5F07081B23A
:1018A0002F480C3020F81410601CC4B2052CFFF631
:1018B00039AF01262A4880892B490988884205DCEE
:1018C0002748008C2849498888421CDD9DF80C0077
:1018D00000F00F0001280ADD2148C08920498881D5
:1018E0000846408C088400201C4908700EE01C4803
:1018F000808A1B4988810846008D088480200390D7
:101900000846858602E00020144908709DF80C0006
:1019100000F08F00802817D1114890F8340000F0B3
:10192000800030B10E48808E20F080000C498886FF
:101930000AE04FF6FF700A4988810884084690F84B
:10194000340000F0E000888604480078F02802DDCA
:101950000A2002490870304604B070BD2B000220F6
:101960003000022056F200084002022038B5054639
:10197000002400208DF800008DF8015000BF09E020
:101980009DF800000F49095D0844C0B28DF80000C1
:10199000601CC4B2B82CF3D39DF80000C043401CB7
:1019A000C0B28DF80000B822064948F2470000F0A6
:1019B0000BF80222694648F2FF0000F005F800200B
:1019C00038BD00009EF100082DE9F04104460E46A6
:1019D00017464FF00008FFF7A7F82820FFF774F824
:1019E000FFF7DEF82012FFF76FF8FFF7D9F8E0B243
:1019F000FFF76AF8FFF7D4F800250BE0705DFFF7FA
:101A000063F8FFF7CDF88046B8F1000F00D003E08F
:101A1000681CC5B2BD42F1DB00BFFFF7A5F8404628
:101A2000BDE8F08100B589B000BF4748006840F0CC
:101A30008000454908600846006800F08000019079
:101A400000BF00BF00BF0846006840F48070086017
:101A50000846006800F48070019000BF00BF80203D
:101A6000029000200390012004900320059002A919
:101A7000364800F02FFA4FF4807002900120039056
:101A800002A9334800F026FAFEF79EFF00224FF429
:101A900080712F4800F036FB0A2008F093FD0122E8
:101AA00011022B4800F02EFB0A2008F08BFD80204D
:101AB00002900020039004900320059002A923487F
:101AC00000F008FA642008F07DFD042207A948F21E
:101AD000401000F055F800208DF8200007A91DA047
:101AE000FEF706FC1FA107A8FEF7A8FD48BB0220D1
:101AF0008DF81C00012207A948F24000FFF764FF9F
:101B0000012207A948F24700FFF786FD9DF81C0057
:101B1000412807DA9DF81C1014A0FEF7E9FB01200C
:101B200000F068F90A2008F04DFD00208DF81C0037
:101B3000012207A948F24000FFF746FF002009B044
:101B400000BD0120FBE7000030380240001C0240CD
:101B5000002002404354502049443A25730D0A0D99
:101B60000A00000039323731000000004465666128
:101B7000756C74205665723A25640D0A00000000E9
:101B80002DE9F04105460F461646FEF7CDFF282009
:101B9000FEF79AFFFFF704F82812FEF795FFFEF70D
:101BA000FFFFE8B2FEF790FFFEF7FAFFFEF7BCFF7B
:101BB0002920FEF789FFFEF7F3FF00240BE0711EDA
:101BC000A14201D0012100E000210846FEF750FFAC
:101BD0003855601CC4B2B442F1DBFEF7C5FFBDE866
:101BE000F081000071B583B00020019000267D488F
:101BF0000078401C7B490870084600780A2190FB59
:101C0000F1F201FB120018B1764800780A286EDA6A
:101C1000012203A948F24E10FFF7B2FF9DF80C0015
:101C200000F0800068B19DF80C0000F00F000B2858
:101C300007DA00200190012201A948F24E1000F0BD
:101C400007F99DF80C0000F00F0000284FD09DF818
:101C50000C0000F00F000B28D9DA9DF80C0000F002
:101C60000F014FF6FF70884084B25F48858EE043D5
:101C700080B240F0C0005C49888608468189C183F3
:101C8000018C41860020019053E05748808E9DF8DA
:101C9000042001219140084040B354499DF804209C
:101CA00031F81200062202A9FFF76AFF4E4890F8A9
:101CB000440000F00100D8B19DF80A009DF80B1017
:101CC00000EB012081B2484820309DF8042020F824
:101CD00012109DF808009DF8091000EB012081B258
:101CE00041480C309DF8042020F812101CE051E00F
:101CF0009DF80A009DF80B1000EB0120C0F548701C
:101D000081B239480C309DF8042020F812109DF85B
:101D100008009DF8091000EB012081B23248203004
:101D20009DF8042020F812109DF80400401CC0B259
:101D300001909DF804000A28A7DB01262A48808923
:101D40002B490988884205DC2748008C28494988A6
:101D500088421CDD9DF80C0000F00F0001280ADD10
:101D60002148C089204988810846408C0884002089
:101D70001C4908700EE01C48C08B1B49888108462E
:101D8000408E0884802003900846858602E000206B
:101D9000144908709DF80C0000F08F00802816D1BF
:101DA000114890F8340000F0800030B10E48808E69
:101DB00020F080000C49888609E04FF6FF700A4940
:101DC000888108840846808E00F460408886054833
:101DD0000078F02802DD0A2002490870304604B07D
:101DE00070BD00002C000220300002201AF3000811
:101DF0004002022038B50546002400208DF800007E
:101E00008DF8015000BF09E09DF800000F49095D01
:101E10000844C0B28DF80000601CC4B2B82CF3D3E3
:101E20009DF80000C043401CC0B28DF80000BA22EB
:101E3000064948F2470000F00BF80222694648F2D2
:101E4000FF0000F005F8002038BD000060F2000837
:101E50002DE9F04104460E4617464FF00008FEF704
:101E600063FE2820FEF730FEFEF79AFE2012FEF7F2
:101E70002BFEFEF795FEE0B2FEF726FEFEF790FE83
:101E800000250BE0705DFEF71FFEFEF789FE804621
:101E9000B8F1000F00D003E0681CC5B2BD42F1DB11
:101EA00000BFFEF761FE4046BDE8F081014691F8B3
:101EB0003500022803D080204865012070470520A6
:101EC00081F835000868006820F001000A68106099
:101ED0000020F3E7F8B502460B4600210025002458
:101EE000002000BFE4E0012606FA01F51E6806EABC
:101EF0000504AC4271D15E68022E02D05E68122EDB
:101F000013D1CF0802F1200656F827004E07F70E2E
:101F10000F26BE40B0434F07FF0E1E69BE40304340
:101F2000CF0802F1200646F8270010684F0003266C
:101F3000BE40B0431E7906F003064F00BE4030435A
:101F400010605E68012E08D05E68022E05D05E68C3
:101F5000112E02D05E68122E13D190684F00032616
:101F6000BE40B0434F00DE68BE40304390605068D2
:101F700001268E40B0431E79C6F300168E403043D2
:101F80005060D0684F000326BE40B0434F009E68AB
:101F9000BE403043D0605E6806F08056B6F1805F88
:101FA000A8D100BF444E366846F48046424F3E609A
:101FB0003E46366806F48046009600BF00BF3F4E9E
:101FC0008F0856F827008E07370F0F26BE40B04304
:101FD0003B4EB24202D100262EE068E0394EB242BA
:101FE00001D1012628E0384EB24201D1022623E079
:101FF000364EB24201D103261EE0354EB24201D127
:10200000042619E0334EB24201D1052614E0324EC7
:10201000B24201D106260FE0304EB24201D107266E
:102020000AE02F4EB24201D1082605E02D4EB24201
:1020300001D1092600E00A268F073F0FBE4030433A
:102040001E4E8F0846F82700274E3068A0435E6872
:1020500006F48036B6F5803F00D12043224E306032
:10206000361D3068A0435E6806F40036B6F5003FC2
:1020700000D120431C4E361D3060361D3068A04311
:102080005E6806F48016B6F5801F00D12043164E18
:1020900008363060361D3068A0435E6806F40016CE
:1020A000B6F5001F00D120430F4E0C363060491C9E
:1020B0001029FFF418AFF8BD443802400838014039
:1020C000000002400004024000080240000C0240F0
:1020D000001002400014024000180240001C0240A0
:1020E0000020024000240240003C014002461369E7
:1020F0000B400BB1012000E00020704742694A40CC
:10210000426170470AB1816101E00B04836170474D
:10211000014800687047000004000220024800687F
:10212000401C0149086070470400022010B50848AF
:10213000006840F4007006490860052000F06CFA61
:102140000F2000F007F800F01BFA002010BD00007F
:10215000003C024070B50446074800684FF47A71AD
:10216000B0FBF1F5284601F0ADFC00222146501EDF
:1021700000F014FA002070BD0000022070B5044683
:102180000E46154600BF94F8A000012801D1022098
:1021900070BD012084F8A00000BF022084F8A100D7
:1021A00005EB850101EBC50204F1380101EB82006A
:1021B00034223146FEF710FA2A463146204605F011
:1021C000E9FE01202168486284F8A10000BF0020D8
:1021D00084F8A00000BF00BFDAE7000070B5044635
:1021E000002500260CB9012070BD94F8A10028B983
:1021F000002084F8A000204600F084F8022084F833
:10220000A1002068806920F0704021688861D4E9CD
:1022100001010843E168084321690843216889698D
:102220000843216888612068806835490840216832
:102230008860A08A050420688068A1692943084352
:10224000216888602068C0682D4908402168C860FE
:10225000A08B05042068C068216A294308432168CF
:10226000C860206800692649084021680861A08C80
:10227000050420680069A16A2943084321680861B0
:10228000206840691E49084021684861A08D050406
:1022900020684069216B294308432168486194F80C
:1022A0003500050294F8360006042068C06A00F084
:1022B0007F402168C86246EA050094F8341008435C
:1022C0002168C96A08432168C8622068406B40F0F1
:1022D0000400216848632068406B40F002002168D8
:1022E00048632068806940F001002168886100200F
:1022F000C4F8A400012084F8A100002074E70000C5
:1023000000F800F010B586B0044600BF47480068EA
:1023100040F08060454908600846006800F0806031
:10232000009000BF00BF00BF40481438006840F470
:1023300000003E49143908600846006800F40000B7
:10234000009000BF00BF00BF0846006840F00200D8
:1023500008600846006800F00200009000BF00BF5F
:1023600000BF0846006840F020000860084600688A
:1023700000F02000009000BF00BF00BF08460068CA
:1023800040F0400008600846006800F040000090FF
:1023900000BF00BF00BF0846006840F08000086032
:1023A0000846006800F08000009000BF00BF00BF3A
:1023B0000846006840F4807008600846006800F431
:1023C0008070009000BF00BF20200190012002908B
:1023D00003900320049001A91548FFF77BFD4FF4FB
:1023E000806001900220029000200390032004905E
:1023F0000E20059001A90F48FFF76CFD4FF40C600B
:10240000019001A90C48FFF765FD4FF47E40019053
:1024100001A90A48FFF75EFD40F2F760019001A9AB
:102420000748FFF757FD06B010BD000044380240D2
:10243000000402400014024000180240001C024048
:10244000002002402DE9F04104460E46174698460A
:1024500000BF94F8A000012802D10220BDE8F0815D
:10246000012084F8A00000BF022084F8A10008EB3E
:10247000880000EBC80104F1380000EB81052E60F4
:10248000A86A30446860AF60E86A3844E860424651
:102490002946204605F07EFD01202168486284F827
:1024A000A10000BF002084F8A00000BF00BFD5E756
:1024B0002DE9F04105460E461746984600BF95F8AF
:1024C000A000012802D10220BDE8F081012085F89A
:1024D000A00000BF022085F8A10008EB880000EBF7
:1024E000C80105F1380000EB81040020206020685D
:1024F000304460600020A060A0683844E060A662BC
:10250000E76242462146284605F044FD012029683D
:10251000486285F8A10000BF002085F8A00000BF38
:1025200000BFD1E74178154A11600178F9B1121D59
:1025300041681160017B0907C27A41EA0261827A2F
:1025400041EAC241427B41EA8241827B41EA424107
:10255000C27B41EA0241427A41EA0221027A41EA1F
:10256000420102781143054A0832116005E000215A
:10257000024A121D1160121D1160704798ED00E0B3
:10258000704700BF00F01F020121914042099200F4
:1025900002F1E022C2F8001100BF70472DE9F05FA0
:1025A00080460D461646002705F02AFE07463946A6
:1025B0002A46334601F00700C0F1070ABAF1040FBA
:1025C00002D94FF0040A01E0C0F1070AD14600F138
:1025D000040ABAF1070F02D24FF0000A01E0A0F19D
:1025E000030AD4464FF0010A0AFA09FAAAF1010ACD
:1025F0000AEA020A0AFA0CFA4FF0010B0BFA0CFB7A
:10260000ABF1010B0BEA030B4AEA0B0421464046EF
:1026100005F0FEFDBDE8F09F00BF00F00702064B8D
:1026200019684FF6FF031940044B0B4343EA02219C
:10263000014B196000BF70470CED00E00000FA0587
:1026400038B5002400BF2048006840F080501E4983
:1026500008600846006800F08050009000BF00BF8E
:102660001A48006840F4803018490860FFF750FDB0
:10267000044607E0FFF74CFD001BB0F57A7F01D957
:10268000032038BD1148406800F48030B0F5803F29
:10269000F0D10E48006840F400300C490860FFF7A4
:1026A00037FD044607E0FFF733FD001BB0F57A7FE6
:1026B00001D90320E5E70548406800F40030B0F593
:1026C000003FF0D10020DCE74038024000700040BD
:1026D0002DE9F8430446002600250027A846A94610
:1026E000207800F0010088B100BFFE48006820F4A7
:1026F0000000FC49086008460068616B0843F9491E
:10270000086000BF606B08B94FF00108206800F452
:102710000020B0F5002F13D1F2488430006820F477
:102720004010E16B0843EF4984310860E06BB0F57D
:10273000801F01D14FF00108E06B08B94FF001098B
:10274000206800F48010B0F5801F13D1E548843074
:10275000006820F44000216C0843E249843108609D
:10276000206CB0F5800F01D14FF00108206C08B942
:102770004FF00109206800F08070B0F1807F01D136
:102780004FF00108207800F02000202870D100BF11
:10279000D4483830006840F08050D2493831086061
:1027A0000846006800F08050009000BF00BFCE488F
:1027B000006840F48070CC490860FFF7A9FC064629
:1027C00007E0FFF7A5FC801B642802D90320BDE8C1
:1027D000F883C548006800F480700028F1D0C14833
:1027E0006830006800F4407585B3208E00F44070B6
:1027F000A8422BD0BB486830006820F44075B94827
:102800006830006840F48030B64968310860084696
:10281000006820F48030086008460560006800F019
:10282000010098B1FFF774FC064608E0FFF770FC62
:10283000801B41F28831884201D90320C7E7A948AB
:1028400068300068C0F340000028EFD000BF208E41
:1028500000F44070B0F5407F0BD1A248006820F42E
:10286000F810A24A216B114008439E49086006E017
:1028700010E09C48006820F4F8109A4908609948D4
:1028800068300068218EC1F30B0108439549683117
:10289000086000BF207800F01000102810D100BFA1
:1028A00090488430006820F080708E498431086040
:1028B00008460068A16B08438A498431086000BF5C
:1028C000208800F48040B0F5804F09D185488830D9
:1028D000006820F44030616E084382498831086006
:1028E000208800F40040B0F5004F09D17D488830C1
:1028F000006820F44020A16E08437A4988310860BE
:10290000206800F48030B0F5803F09D175488830E8
:10291000006820F44010E16E084372498831086075
:10292000206800F40030B0F5003F09D16D488830D0
:10293000006820F44000216F08436A49883108602C
:10294000207800F04000402809D1664888300068AF
:1029500020F00300616C08436249883108602078E8
:1029600000F08000802809D15E488830006820F09F
:102970000C00A16C08435B4988310860208800F492
:102980008070B0F5807F09D156488830006820F00B
:102990003000E16C0843534988310860208800F416
:1029A0000070B0F5007F09D14E488830006820F0F3
:1029B000C000216D08434B4988310860208800F42D
:1029C0008060B0F5806F09D146488830006820F4F7
:1029D0004070616D0843434988310860208800F4E5
:1029E0000060B0F5006F09D13E488830006820F4DF
:1029F0004060A16D08433B4988310860208800F49D
:102A00008050B0F5805F09D136488830006820F4E6
:102A10004050E16D0843334988310860208800F454
:102A20000050B0F5005F09D12E488830006820F4CE
:102A30004040216E08432B4988310860206800F42B
:102A40008000B0F5800F09D126488830006820F05A
:102A50008060A16F0843234988310860206800F432
:102A60000010B0F5001F0FD11E488830006820F01C
:102A70000060E16F08431B4988310860E06FB0F1E6
:102A8000006F01D14FF00109207800F008000828FC
:102A900001D14FF00109206800F48020B0F5802FAB
:102AA00009D110488830006820F04070616F0843F9
:102AB0000C4988310860206800F40000B0F5000F70
:102AC0000AD108488830006820F08050D4F880107F
:102AD0000843044988310860206800F08060B0F144
:102AE000806F05E00838024000700040FFFCFF0FD7
:102AF00008D1FE48006820F00050D4F88410084344
:102B0000FA490860206800F00060B0F1006F0AD157
:102B1000F648001F006820F00070D4F888100843C1
:102B2000F249091F0860206800F08050B0F1805F12
:102B30000AD1EE48001F006820F08060D4F88C10A5
:102B40000843EA49091F0860B8F1010F03D0206863
:102B5000B0F1007F7DD1E5489038006820F08060BA
:102B6000E24990390860FFF7D3FA064606E0FFF71E
:102B7000CFFA801B642801D9032028E6DB4890386F
:102B80000068C0F3C0600028F1D1207800F0010097
:102B9000F0B3606BE0BBD5480C38006800F44030FF
:102BA0004FF4403191FAA1F1B1FA81F120FA01F527
:102BB000CE480C38006800F070604FF0706191FAF8
:102BC000A1F1B1FA81F120FA01F747F6C07191FA4B
:102BD000A1F1B1FA81F1606888404FF4403191FA77
:102BE000A1F1B1FA81F105FA01F108434FF07061EA
:102BF00091FAA1F1B1FA81F107FA01F108434FF01E
:102C0000E04292FAA2F2B2FA82F2A168914000E0A8
:102C100003E00843B5490C390860206800F400203F
:102C2000B0F5002F03D1E06BB0F5801F09D020680C
:102C300000F48010B0F5801F50D1206CB0F5800FEB
:102C40004CD1AA480C38006800F440304FF44031B1
:102C500000E0CFE091FAA1F1B1FA81F120FA01F59B
:102C6000A2480C38006800F0E0404FF0E04191FAD3
:102C7000A1F1B1FA81F120FA01F747F6C07191FA9A
:102C8000A1F1B1FA81F1606888404FF4403191FAC6
:102C9000A1F1B1FA81F105FA01F108434FF0706238
:102CA00092FAA2F2B2FA82F2E168914008434FF040
:102CB000E04191FAA1F1B1FA81F107FA01F108437B
:102CC0008A490C3908608948001F006820F01F00FD
:102CD000616A491E08438549091F0860206800F0A1
:102CE0008070B0F1807F3FD180480C38006800F0E0
:102CF00070604FF0706191FAA1F1B1FA81F120FAA0
:102D000001F57A480C38006800F0E0404FF0E041EF
:102D100091FAA1F1B1FA81F120FA01F747F6C071F9
:102D200091FAA1F1B1FA81F1606888404FF4403224
:102D300092FAA2F2B2FA82F22169914008434FF06E
:102D4000706191FAA1F1B1FA81F105FA01F108433C
:102D50004FF0E04191FAA1F1B1FA81F107FA01F1E6
:102D6000084362490C390860206800F00070B0F137
:102D7000007F25D147F6C07191FAA1F1B1FA81F136
:102D8000606888404FF4403292FAA2F2B2FA82F2BE
:102D90002169914008434FF0706292FAA2F2B2FAB0
:102DA00082F2E168914008434FF0E04292FAA2F2C9
:102DB000B2FA82F2A168914008434C490C3908608C
:102DC0004A489038006840F080604849903908606F
:102DD000FFF79EF9064606E0FFF79AF9801B642884
:102DE00001D90320F3E4414890380068C0F3C06083
:102DF0000028F1D0B9F1010F69D13C489038006842
:102E000020F08050394990390860FFF781F9064673
:102E100006E0FFF77DF9801B642801D90320D6E482
:102E2000324890380068C0F340700028F1D1206823
:102E300000F40020B0F5002F01D1E06B38B120681C
:102E400000F48010B0F5801F4FD1206CF0BB2748F4
:102E50000838006800F440304FF4403191FAA1F195
:102E6000B1FA81F120FA01F520480838006800F035
:102E7000E0404FF0E04191FAA1F1B1FA81F120FA7E
:102E800001F747F6C07191FAA1F1B1FA81F16069D9
:102E900088404FF4403191FAA1F1B1FA81F105FA7D
:102EA00001F108434FF0706292FAA2F2B2FA82F294
:102EB000A169914008434FF0E04191FAA1F1B1FAC4
:102EC00081F107FA01F10843084901E00DE0BBE098
:102ED00008390860081D006820F4F851A06A401EF7
:102EE00041EA00200149091F086001E090380240D2
:102EF000206800F40010B0F5001F40D1E06FB0F181
:102F0000006F3CD15148006800F070604FF0706174
:102F100091FAA1F1B1FA81F120FA01F54B4800686C
:102F200000F0E0404FF0E04191FAA1F1B1FA81F1F7
:102F300020FA01F747F6C07191FAA1F1B1FA81F1D7
:102F4000606988404FF4403292FAA2F2B2FA82F2FB
:102F5000216A914008434FF0706191FAA1F1B1FAF2
:102F600081F105FA01F108434FF0E04191FAA1F136
:102F7000B1FA81F107FA01F1084334490860207879
:102F800000F00800082845D13048006800F0706063
:102F90004FF0706191FAA1F1B1FA81F120FA01F5D7
:102FA0002A48006800F440304FF4403191FAA1F112
:102FB000B1FA81F120FA01F747F6C07191FAA1F157
:102FC000B1FA81F1606988404FF4403191FAA1F182
:102FD000B1FA81F107FA01F108434FF0706191FAFB
:102FE000A1F1B1FA81F105FA01F108434FF0E04295
:102FF00092FAA2F2B2FA82F2E169914008431349CF
:103000000860081D006820F44030E16A08430F4959
:10301000091D08600D488838006840F080500B4951
:1030200088390860FFF774F8064606E0FFF770F885
:10303000801B642801D903209FE504488838006874
:10304000C0F340700028F1D0002096E58838024097
:1030500070B504460D4600266648006800F00F0073
:10306000A8420ED26348006820F00F00284361494F
:1030700008600846006800F00F00A84201D0012057
:1030800070BD207800F00200022807D15A4800687D
:1030900020F0F000A168084357490860207800F04C
:1030A0000100002860D06068012807D15248083824
:1030B0000068C0F34040A0B90120E1E76068022841
:1030C00007D14D4808380068C0F3406048B9012076
:1030D000D6E7494808380068C0F3400008B9012025
:1030E000CEE74548006820F0030061680843424984
:1030F0000860FFF70DF806466068012810D108E067
:10310000FFF706F8801B41F28831884201D903207D
:10311000B6E73948006800F00C000428F0D123E03D
:103120006068022810D108E0FEF7F2FF801B41F230
:103130008831884201D90320A2E72F48006800F0B7
:103140000C000828F0D10FE008E0FEF7E1FF801B3B
:1031500041F28831884201D9032091E7264800686E
:1031600000F00C000028F0D12248006800F00F00A9
:10317000A8420ED91F48006820F00F0028431D49BF
:1031800008600846006800F00F00A84201D0012046
:1031900076E7207800F00400042807D1164800687C
:1031A00020F4E050E168084313490860207800F0FB
:1031B0000800082808D11048006820F46040216900
:1031C00040EAC1000C49086000F04EF80A4909685D
:1031D00001F0F001F02292FAA2F2B2FA82F2D140AA
:1031E000064A515CC840064908600F20FEF7B2FF4E
:1031F000002045E7003C02400838024032AA00089F
:103200000000022001480068704700000000022012
:1032100000B5FFF7F7FF0749096801F4E0514FF4E3
:10322000E05292FAA2F2B2FA82F2D140024A515C22
:10323000C84000BD0838024042AA000800B5FFF7A8
:10324000E1FF0749096801F460414FF4604292FAD6
:10325000A2F2B2FA82F2D140024A515CC84000BDEB
:103260000838024042AA000870B50021002200235D
:103270000020274C246804F00C0424B1042C04D052
:10328000082C41D103E0234840E023483EE0204C95
:10329000241F246804F03F011D4C241F246804F4FB
:1032A000800484B11C4CB4FBF1F5194C241F246834
:1032B00047F6C076344096FAA6F6B6FA86F6F4409B
:1032C00005FB04F20FE0134CB4FBF1F5104C241F86
:1032D000246847F6C076344096FAA6F6B6FA86F623
:1032E000F44005FB04F20A4C241F246804F4403423
:1032F0004FF4403595FAA5F5B5FA85F5EC40641C18
:103300006300B2FBF3F001E0024800BF00BF70BDF4
:10331000083802400024F40040787D0138B50446A6
:103320000025207800F00100002871D0FE480068D8
:1033300000F00C0004280DD0FB48006800F00C00E1
:10334000082813D1F848001F006800F48000B0F589
:10335000800F0BD1F44808380068C0F340400028C3
:1033600069D06068002866D1012038BD00BF606860
:10337000B0F5803F08D1EC480838006840F4803050
:10338000E949083908602EE0606868B9E6480838FD
:10339000006820F48030E449083908600846006875
:1033A00020F4802008601EE06068B0F5A02F0DD1E9
:1033B000DD480838006840F48020DB49083908609F
:1033C0000846006840F4803008600CE0D6480838B1
:1033D000006820F48030D449083908600846006845
:1033E00020F48020086000BF606890B1FEF790FE76
:1033F000054606E0FEF78CFE401B642801D9032039
:10340000B3E7C94808380068C0F340400028F1D04D
:1034100011E0FEF77DFE054606E0FEF779FE401B53
:10342000642801D90320A0E7BF4808380068C0F32A
:1034300040400028F1D1207800F00200022873D12A
:10344000B948006800F00C0058B1B748006800F0B7
:103450000C00082821D1B448001F006800F4800047
:10346000D8B9B14808380068C0F3400020B1E0681E
:10347000012801D0012078E7AB480838006820F027
:10348000F800F82292FAA2F2B2FA82F2216991408F
:103490000843A5490839086046E0E06850B3A248EF
:1034A0000838006840F001009F4908390860FEF7BD
:1034B0002FFE054606E0FEF72BFE401B022801D931
:1034C000032052E7984808380068C0F340000028FD
:1034D000F1D095480838006820F0F800F82292FAF8
:1034E000A2F2B2FA82F22169914008438E4908396A
:1034F000086019E08C480838006820F001008A490B
:1035000008390860FEF704FE054606E0FEF700FEF7
:10351000401B022801D9032027E7834808380068A8
:10352000C0F340000028F1D1207800F008000828FE
:1035300036D16069D0B17C486C30006840F0010041
:1035400079496C310860FEF7E3FD054606E0FEF7B9
:10355000DFFD401B022801D9032006E772486C30CA
:103560000068C0F340000028F1D019E06E486C30CC
:10357000006820F001006C496C310860FEF7C8FD5E
:10358000054606E0FEF7C4FD401B022801D90320D2
:10359000EBE665486C300068C0F340000028F1D1CC
:1035A000207800F00400042871D100BF5E48383054
:1035B000006840F080505C49383108600846006877
:1035C00000F08050009000BF00BF5848006840F4F1
:1035D000807056490860FEF79BFD054606E0FEF741
:1035E00097FD401B642801D90320BEE64F480068C0
:1035F00000F480700028F2D000BFA068012808D134
:1036000049486830006840F0010047496831086067
:103610002DE0A06868B944486830006820F00100D7
:103620004149683108600846006820F004000860DD
:103630001DE0A06805280DD13B486830006840F0C7
:1036400004003949683108600846006840F001000C
:1036500008600CE034486830006820F0010032490E
:10366000683108600846006820F00400086000BF68
:10367000A068A8B1FEF74CFD054609E0FEF748FD3D
:10368000401B41F28831884202D903206DE61BE0DD
:10369000254868300068C0F340000028EED013E0F1
:1036A000FEF736FD054608E0FEF732FD401B41F20D
:1036B0008831884201D9032057E61B4868300068EA
:1036C000C0F340000028EFD1A06988B31648006815
:1036D00000F00C00082873D0A069022864D11248B9
:1036E0000838006820F080700F4908390860FEF73C
:1036F0000FFD054606E0FEF70BFD401B022801D931
:10370000032032E6084808380068C0F3406000280B
:10371000F1D1D4E90701084347F6C07292FAA2F248
:10372000B2FA82F2616A04E0083802400070004098
:1037300058E0914008430122A16AC2EB51014FF4C5
:10374000403292FAA2F2B2FA82F2914008434FF06C
:10375000706292FAA2F2B2FA82F2E16A91400843F0
:103760004FF0E04292FAA2F2B2FA82F2216B91405B
:1037700008431D490860081F006840F08070091F59
:103780000860FEF7C5FC054606E0FEF7C1FC401BDD
:10379000022801D90320E8E51348001F0068C0F3A0
:1037A00040600028F1D01DE00F48001F006820F0A5
:1037B00080700D49091F0860FEF7AAFC054607E066
:1037C0000EE0FEF7A5FC401B022801D90320CCE542
:1037D0000548001F0068C0F340600028F1D101E0F7
:1037E0000120C2E50020C0E50438024070B504465F
:1037F0000D460CB9012070BD94F82C0028B90020AA
:1038000084F82D00204600F011F8022084F82C00E6
:10381000211D2068FDF7C5FA2946D4E90002FDF70D
:103820002BFB012084F82C000020E4E710B586B0C3
:10383000044600BF3E48006840F001003C49086073
:103840000846006800F00100009000BF00BF00BF04
:1038500037480838006840F00400354908390860E6
:103860000846006800F00400009000BF00BF00BFE1
:103870000846006840F0080008600846006800F04C
:103880000800009000BF00BF00BF0846006840F07D
:10389000100008600846006800F01000009000BFAB
:1038A00000BF00BF0846006840F0200008600846DE
:1038B000006800F02000009000BF00BF00BF084675
:1038C000006840F0400008600846006800F04000D2
:1038D000009000BF00BF0D20019002200290012047
:1038E0000390032004900C20059001A91148FEF7D5
:1038F000F1FA4CF20370019001A90F48FEF7EAFAC1
:103900004FF68370019001A90C48FEF7E3FA4FF6D9
:103910003F00019001A90A48FEF7DCFA48F237108F
:10392000019001A90748FEF7D5FA06B010BD0000C6
:103930003838024000080240000C024000100240EB
:10394000001402400018024070B504460D4694F879
:103950002C00022800D170BD022084F82C002946DA
:103960002068FDF758FA012084F82C000020F2E7C7
:1039700070B504460D46164694F82C00022800D176
:1039800070BD022084F82C00324629462068FDF7DD
:1039900049FA2868022803D1052084F82C0002E0A7
:1039A000012084F82C000020EAE770B504460E469A
:1039B00015460CB9012070BD94F8450028B90020C7
:1039C00084F84400204600F01DF804F10801206846
:1039D000FDF778F93146A2682068FDF7B3F929466A
:1039E000E36AD4E90102FDF749F9A168206850F8BB
:1039F000210040F00100A268216841F82200002067
:103A0000D9E7000010B586B0044600BF2048006822
:103A100040F001001E4908600846006800F00100FF
:103A2000009000BF00BF00BF19480838006840F090
:103A300008001749083908600846006800F00800C7
:103A4000009000BF00BF00BF0846006840F01000B3
:103A500008600846006800F01000009000BF00BF3A
:103A60004EF2B370019002200290012003900320D7
:103A700004900C20059001A90648FEF72BFA4FF69A
:103A80008070019001A90448FEF724FA06B010BD29
:103A900038380240000C024000100240042808D1CF
:103AA0004FF0E021096941F004014FF0E02211617B
:103AB00007E04FF0E021096921F004014FF0E02216
:103AC0001161704770B504462546681EB0F1807FCD
:103AD00001D301200FE0681E4FF0E02148610F2163
:103AE0004FF0FF3004F094FB00204FF0E02188619C
:103AF00007200861002070BD70B504460D461646CB
:103B000000BF94F83800012801D1022070BD0120C7
:103B100084F8380000BF022084F839000C2E51D000
:103B200005DC4EB1042E1ED0082E7AD133E0102EC3
:103B300060D0142EF9D175E02946206804F046FFC4
:103B40002068806940F008002168886120688069E9
:103B500020F0040021688861206880692969084391
:103B60002168886177E02946206804F069FF2068B1
:103B7000806940F40060216888612068806920F4D1
:103B800080602168886120688069296940EA012095
:103B9000216888615FE02946206804F08FFF206873
:103BA000C06940F008002168C8612068C06920F041
:103BB00004002168C8612068C06929690843216838
:103BC000C86148E02946206804F0B6FF2068C06953
:103BD00040F400602168C8612068C06920F48060FA
:103BE0002168C8612068C069296940EA012021680C
:103BF000C86130E02946206804F0D0FF2068406D9D
:103C000040F00800216848652068406D20F00400FD
:103C1000216848652068406D296908432168486526
:103C200019E017E02946206804F0E4FF2068406DA1
:103C300040F40060216848652068406D20F4806091
:103C4000216848652068406D296940EA01202168A3
:103C5000486500E000BF00BF012084F8390000BFC4
:103C6000002084F8380000BF00BF4FE710B50446BD
:103C70000CB9012010BD94F8390028B9002084F84F
:103C80003800204600F00CF8022084F83900211D8D
:103C9000206804F01BFE012084F839000020E9E7C9
:103CA00010B586B0044600BF1648006840F0020018
:103CB000144908600846006800F00200009000BF48
:103CC00000BF00BF0F481038006840F002000D49E7
:103CD000103908600846006800F00200009000BF3C
:103CE00000BF402001900220029001200390032099
:103CF00004900220059001A90348FEF7EBF806B0F6
:103D000010BD0000403802400000024030B50446BB
:103D10000D4601222946206804F04AFE0C4920681D
:103D2000884203D00B492068884201D1012000E07D
:103D3000002028B12068406C40F4004021684864AD
:103D40002068006840F0010021680860002030BD54
:103D5000000001400004014030B504460D46002239
:103D60002946206804F024FE1B492068884203D0BD
:103D70001A492068884201D1012000E0002090B15A
:103D800000BF2068006A41F21111084050B9206854
:103D9000006A8910084028B92068406C20F400406F
:103DA0002168486400BF00BF2068006A41F2111119
:103DB000084050B92068006A8910084028B9206876
:103DC000006820F001002168086000BF012084F82D
:103DD0003900002030BD0000000001400004014017
:103DE000704700002DE9F04104462068C56920684D
:103DF00006682068876805F00F08B8F1000F0AD13F
:103E000005F0200038B106F0200020B1204606F071
:103E100012F8BDE8F081B8F1000F79D040F201103E
:103E20003840002874D005F0010048B106F48070D5
:103E300030B1012021680862E06E40F00100E066C8
:103E400005F0020048B107F0010030B102202168FE
:103E50000862E06E40F00400E06605F0040048B13E
:103E600007F0010030B1042021680862E06E40F0E4
:103E70000200E06605F0080060B106F0200010B90D
:103E800007F0010030B1082021680862E06E40F0C0
:103E90000800E066E06E58B305F0200028B106F097
:103EA000200010B1204605F0C6FFE06E00F00800CB
:103EB00020B92068806800F0400018B3204605F063
:103EC0009AFF2068806800F04000B8B120688068E0
:103ED00020F0400021688860606E50B11748616E24
:103EE0000865606EFDF7E2FF10B1606E016D8847F6
:103EF0000DE02046FFF774FF09E009E02046FFF7D8
:103F00006FFF04E02046FFF76BFF0020E06680E7CC
:103F100005F0800030B106F0800018B1204606F0B0
:103F200095F976E705F0400030B106F0400018B191
:103F3000204605F070FF6CE700BF6AE7DF9D0008D0
:103F400010B504460CB9012010BDA06900B100E015
:103F500000BF94F8690028B9002084F86800204662
:103F600000F02AF8242084F869002068006820F016
:103F7000010021680860204605F0A2FF012800D159
:103F8000E2E7606A10B1204605F07AFE20684068DA
:103F900020F49040216848602068806820F02A0062
:103FA000216888602068006840F00100216808608E
:103FB000204605F0DAFEC7E710B586B0044623496F
:103FC0002068884240D100BF2148006840F00100CD
:103FD0001F4908600846006800F00100009000BF1B
:103FE00000BF00BF1A481430006840F010001849A4
:103FF000143108600846006800F01000009000BF0F
:1040000000BF481501900220029001200390022079
:1040100004900720059001A90E48FDF75BFF4FF4BF
:104020008060019001A90B48FDF754FF20680068EB
:1040300040F02000216808602520FEF7A2FA032244
:1040400011462520FEF7AAFA06B010BD0010014067
:1040500030380240000002402DE9F84F04460D467A
:10406000164699464FF0000A94F86A0020287AD143
:1040700005B116B90120BDE8F88F00BF94F86800BB
:10408000012801D10220F6E7012084F8680000BF72
:104090000020583460612220A074FEF739F882466F
:1040A00026806680583C00BFA068B0F5805F0AD1CA
:1040B000206920B940F2FF10A4F85C001CE0FF204A
:1040C000A4F85C0018E0A06848B9206918B9FF207E
:1040D000A4F85C0010E07F20A4F85C000CE0A0686D
:1040E000B0F1805F08D1206918B97F20A4F85C0086
:1040F00002E03F20A4F85C0000BFB4F85C8024E03C
:10410000B4F85A00401EA4F85A0053460022202159
:104110002046CDF8009006F0CEF808B10320AAE7BB
:10412000A068B0F5805F09D1206938B92F462068B2
:10413000406A00EA08003880AD1C06E02068406A4A
:1041400008F0FF01084005F8010BB4F85A000028F8
:10415000D6D1202084F86A0000BF002084F86800CF
:1041600000BF88E7FFE7022085E77047704700BF80
:10417000FEE7000010B5002210211248FDF7C2FF33
:104180001048006820F440600E4908600846006846
:1041900040F480600860002220210A48FDF7B2FF49
:1041A000022006F01BFA012210210648FDF7AAFFA3
:1041B000022006F013FA002210210248FDF7A2FFA8
:1041C00010BD0000001C024000B587B000BF1248BF
:1041D000006840F08000104908600846006800F060
:1041E0008000019000BF00BF3020029001200390AA
:1041F00004900220059002A90848FDF76BFE0122F9
:1042000020210648FDF77EFF012210210348FDF71B
:1042100079FF07B000BD000030380240001C0240AA
:1042200010B5002210211248FDF76CFF10480068FD
:1042300020F440600E4908600846006840F4806041
:104240000860012220210A48FDF75CFF022006F0E9
:10425000C5F9012210210648FDF754FF022006F09F
:10426000BDF9002210210248FDF74CFF10BD0000EF
:10427000001C024070B5054600241848006820F470
:1042800040601649086008460068086000261AE089
:10429000002210211148FDF735FF022006F09EF99B
:1042A000012210210D48FDF72DFF6006040E20218C
:1042B0000A48FDF71BFF08B1601CC4B2012006F0DC
:1042C0008DF9701CC6B2082EE2DB15B9FFF7A8FF06
:1042D00001E0FFF74FFF204670BD0000001C0240C8
:1042E00070B504461C48006820F440601A49086014
:1042F0000846006840F480600860002210211648DB
:10430000FDF700FF002523E0E00928B1012220216C
:104310001148FDF7F7FE04E0002220210E48FDF7CA
:10432000F1FE6006040E022006F058F90122102169
:104330000948FDF7E7FE022006F050F9002210219F
:104340000548FDF7DFFE022006F048F9681CC5B2FB
:10435000082DD9DB70BD0000001C024010B51348C9
:10436000006820F44060114908600846006840F485
:1043700080600860012220210C48FDF7C3FE012265
:1043800010210A48FDF7BEFE042006F027F900229E
:1043900020210648FDF7B6FE042006F01FF9002292
:1043A00010210248FDF7AEFE10BD0000001C0240C7
:1043B00010B51348006820F44060114908600846B1
:1043C000006840F480600860002210210C48FDF76E
:1043D00099FE002220210A48FDF794FE042006F0F1
:1043E000FDF8012210210648FDF78CFE042006F09E
:1043F000F5F8012220210248FDF784FE10BD0000DF
:10440000001C024010B500241748006820F44060EA
:1044100015490860084600680860012220211248FA
:10442000FDF770FE012006F0D9F8012210210E4898
:10443000FDF768FE012006F0D1F807E0601CC4B269
:10444000FA2C03DDFFF7B4FF012010BD2021064840
:10445000FDF74CFE0028F1D1002210210248FDF7A3
:1044600051FE0020F1E70000001C024000B587B0BB
:1044700000BF2448006840F0010022490860084657
:10448000006800F00100019000BF00BF00BF0846B7
:10449000006840F0040008600846006800F004006E
:1044A000019000BF00BF00BF0846006840F08000D8
:1044B00008600846006800F08000019000BF00BF5F
:1044C0000120029000200390022004900320059018
:1044D00002A90D48FDF7FEFC4FF4005002900020A9
:1044E0000390012004900320059002A90748FDF7DE
:1044F000F1FC0C20029002A90548FDF7EBFC07B087
:1045000000BD0000303802400000024000080240B8
:10451000001C024010B50446012C01D12D49087041
:104520002C480078002839D008212B48FDF7DEFD03
:1045300080B104212848FDF7D9FD58B14FF400514E
:104540002648FDF7D3FD28B101212548FDF7CEFD12
:10455000012823D10A2006F035F800201D490870F3
:1045600008211D48FDF7C2FD08B9012010BD042136
:104570001948FDF7BBFD08B90220F7E74FF40051D9
:104580001648FDF7B3FD08B90320EFE701211448F1
:10459000FDF7ACFD01281BD10420E7E708210E48F8
:1045A000FDF7A4FD012813D104210B48FDF79EFD62
:1045B00001280DD141030948FDF798FD012807D1D5
:1045C00001210748FDF792FD10B90120014908704B
:1045D0000020CBE713000220001C0240000802402C
:1045E0000000024070B5044600260D4805880D48BD
:1045F000006818B1204603F0AFF90FE00848408882
:1046000045430021084602F093FF03F067F90026B6
:1046100002E005490C80761CAE42FAD370BD000062
:1046200040020220500302200000086010B504463A
:10463000624884716248006850B1204603F0B2F9C4
:104640005F48C08A5D4908805D48008B488010BD86
:10465000002C57D1F020594908804FF4A0704880B1
:104660000846808849F2413188420BD053488088FF
:1046700045F21031884205D05048808847F2897150
:10468000884214D12C204D4908812A2048812B20B2
:1046900088810846808845F21031884206D14FF45F
:1046A000A070464908804FF4F070488081E043488C
:1046B000808845F21051884210D14FF430503F4964
:1046C00008814FF4285048814FF42C5088814FF4D2
:1046D000F07008804FF4487048806AE0374880885E
:1046E00041F66311884264D12C20344908812B2083
:1046F00048812A2088814FF4F07008804FF4487078
:10470000488056E04FF4A0702C490880F020488083
:104710000846808849F2413188420BD0274880887A
:1047200045F21031884205D02448808847F28971CB
:10473000884207D12C20214908812A2048812B203A
:10474000888129E01D48808845F21051884210D1A7
:104750004FF43050194908814FF4285048814FF4E4
:104760002C5088814FF4487008804FF4F0704880D6
:1047700012E01248808841F6631188420CD12C2047
:104780000E4908812A2048812B2088814FF44870E7
:1047900008804FF4F07048800848808845F2103156
:1047A000884206D14FF4F070044908804FF4A0709D
:1047B0004880002002F07CFD00BF48E74002022054
:1047C000500302202DE9FF4F85B081468A46002024
:1047D000049003900798A0EB09050898A0EB0A063F
:1047E000CDF80890CDF804A0002D01DD012705E0EB
:1047F0000DB9002702E04FF0FF376D42002E02DDB9
:104800004FF0010806E016B94FF0000802E04FF043
:10481000FF387642B54201DD2C4600E034464FF0C9
:10482000000B21E0019A91B2029A90B200F022F8B6
:104830000498284404900398304403900498A042BC
:1048400005DD0498001B04900298384402900398F8
:10485000A04205DD0398001B03900198404401909D
:104860000BF101001FFA80FB601C8345DADD09B003
:10487000BDE8F08F70B504460D460A48006830B1B7
:10488000094829460268204603F0A2F809E02946B3
:10489000204602F04DFE03F021F80348008803494A
:1048A000088070BD50030220140002200000086040
:1048B0002DE9F04706460F46904600244546032062
:1048C000A0EB48093CE07A1B91B2321990B2FFF795
:1048D000D1FF3A1B91B2721990B2FFF7CBFF3A1990
:1048E00091B2721990B2FFF7C5FF7A1991B23219DD
:1048F00090B2FFF7BFFF7A1991B2321B90B2FFF767
:10490000B9FF3A1991B2721B90B2FFF7B3FF7A1B4D
:1049100091B2321B90B2FFF7ADFF3A1B91B2721BFE
:1049200090B2FFF7A7FF641CB9F1000F03DAA000F3
:10493000801D814404E0601B80000A3081446D1EAC
:10494000AC42C0DDBDE8F08770B504460D461646A2
:104950004648006828B132462946204603F038F818
:1049600070BD4348808849F2413188420BD04048AD
:10497000808845F21031884205D03D48808847F252
:104980008971884214D13A49488902F09BFF20126C
:1049900002F08CFFE0B202F089FF3549888902F00D
:1049A00091FF281202F082FFE8B202F07FFF54E08C
:1049B0002F48808845F21051884220D12C494889DF
:1049C00002F080FF201202F071FF29494989491C39
:1049D00088B202F077FFE0B202F068FF24498889CC
:1049E00002F070FF281202F061FF21498989491CF9
:1049F00088B202F067FFE8B202F058FF2DE01C48D1
:104A0000808841F66311884227D11948807920B9FE
:104A100017480088401E001B84B21549488902F0DF
:104A200051FF201202F042FFE0B202F03FFF2012DD
:104A300002F03CFFE0B202F039FF0D49888902F034
:104A400041FF281202F032FFE8B202F02FFF2812D5
:104A500002F02CFFE8B202F029FF05480089054961
:104A60000880891C0E8000BF7AE7000050030220F6
:104A700040020220FEFF07602DE9F84F05460E4672
:104A800017469846DDF828904FF0000B1448006850
:104A900040B143463A4631462846CDF8009002F0F0
:104AA000BFFF1BE0781B401C1FFA80FB344613E05D
:104AB0002146284602F03CFD02F010FF4FF0000AAC
:104AC00006E00849A1F800900AF101001FFA80FAF7
:104AD000DA45F6DB601C84B24445E9DDBDE8F88FB9
:104AE000500302200000086000B595B003F0E6F91D
:104AF000FE4988800846808818B103F035F802F036
:104B000002BB00BFFA48006840F00200F8490860A4
:104B10000846006800F00200019000BF00BF20209E
:104B200010900120119012900320139010A9F148C9
:104B3000FDF7D0F902F03CFB4FF02040EE49086051
:104B4000EE484860002088600021EB48C1600161A8
:104B500010214161090241628900C1620F20099060
:104B600000200A9050200B9000200F900F20029000
:104B7000002003900F2004900020089002AA09A9A9
:104B8000DD48FEF712FF322005F01CFDD32002F0B5
:104B900099FE02F05BFBD549888002F057FBD349B0
:104BA000888002F053FBD1498880084680884FF600
:104BB000FF7101EA0020CD49888002F047FBCB4914
:104BC00089880843C94988800846808849F241316C
:104BD00088427DD0042002F075FE02F037FBC34905
:104BE000888002F033FBC149888002F02FFBBF4967
:104BF0008880084680884FF6FF7101EA0020BB4993
:104C0000888002F023FBB94989880843B749888026
:104C10000846808848F25251884203D147F2897091
:104C2000B2498880B148808847F289718842D0D0E3
:104C3000D42002F047FE02F009FBAC49888002F064
:104C400005FBAA49888002F001FBA8498880084634
:104C500080884FF6FF7101EA0020A449888002F0A5
:104C6000F5FAA24989880843A049888008468088C7
:104C700045F2103188426BD055214FF4704002F05C
:104C800037FEAA214FF2010002F032FE52214FF20C
:104C9000020002F02DFE08214FF2030002F028FE70
:104CA00001214FF2040002F023FE4FF4454002F0D0
:104CB00009FE02F0CBFA8D498880084680884FF6BD
:104CC000FF7101EA0020894988804CF2015000E020
:104CD0003EE002F0F7FD02F0B9FA84498988084302
:104CE00082498880052005F06DFC80488088B0F5F9
:104CF000004F03D145F210507C4988807B48808862
:104D000045F21051884223D0A12002F0DBFD02F0D1
:104D10009DFA7649888002F099FA7449888008469D
:104D200080884FF6FF7101EA00207049888002F008
:104D30008DFA6E49898808436C49888008468088C6
:104D400045F26171884203D141F66310674988805A
:104D5000664881886AA0FBF7CBFA6448808849F2EC
:104D6000413188427ED1CF2002F0ACFD002002F01C
:104D70009DFDC12002F09AFD302002F097FDED204C
:104D800002F0A0FD642002F091FD032002F08EFDF0
:104D9000122002F08BFD812002F088FDE82002F055
:104DA00091FD852002F082FD102002F07FFD7A2027
:104DB00002F07CFDCB2002F085FD392002F076FD6B
:104DC0002C2002F073FD002002F070FD342002F070
:104DD0006DFD022002F06AFDF72002F073FD202035
:104DE00002F064FDEA2002F06DFD002002F05EFD9D
:104DF000002002F05BFDC02002F064FD1B2002F0E9
:104E000055FDC12002F05EFD012002F04FFDC520DE
:104E100002F058FD302002F049FD302002F046FD3E
:104E2000C72002F04FFDB72002F040FD362002F00F
:104E300049FD482002F03AFD3A2002F043FD55209A
:104E400002F034FDB12002F03DFD002002F02EFD05
:104E50001A2002F02BFDB62002F034FD0A2002F0E9
:104E600025FD00E0A9E0A22002F020FDF22002F0E2
:104E700029FD002002F01AFD262002F023FD01206A
:104E800002F014FDE02002F01DFD0F2002F00EFDE7
:104E90002A2002F00BFD282002F008FD082002F075
:104EA00005FD0E2002F002FD082002F0FFFC542058
:104EB00002F0FCFCA92002F0F9FC432002F0F6FC11
:104EC0000A2002F0F3FC0F2002F0F0FC002002F0B8
:104ED000EDFC002002F0EAFC002002F0E7FC0020DC
:104EE00002F0E4FCE12002F0EDFC11E040020220BF
:104EF0003038024000040240F4010220040100A006
:104F0000204C43442049443A25780D0A0000000013
:104F1000002002F0CBFC152002F0C8FC172002F0A4
:104F2000C5FC072002F0C2FC112002F0BFFC0620E5
:104F300002F0BCFC2B2002F0B9FC562002F0B6FCBB
:104F40003C2002F0B3FC052002F0B0FC102002F07F
:104F5000ADFC0F2002F0AAFC3F2002F0A7FC3F208E
:104F600002F0A4FC0F2002F0A1FC2B2002F0AAFC0E
:104F7000002002F09BFC002002F098FC012002F0CF
:104F800095FC3F2002F092FC2A2002F09BFC0020BE
:104F900002F08CFC002002F089FC002002F086FC6C
:104FA000EF2002F083FC112002F08CFC782005F049
:104FB00009FB292002F086FCA1E5FE48808847F223
:104FC000897188427ED1112002F07CFC782005F0A6
:104FD000F9FA362002F076FC002002F067FC3A2055
:104FE00002F070FC052002F061FCB22002F06AFCC5
:104FF0000C2002F05BFC0C2002F058FC002002F0B8
:1050000055FC332002F052FC332002F04FFCB72055
:1050100002F058FC352002F049FCBB2002F052FCA3
:10502000322002F043FCC02002F04CFC0C2002F0C5
:105030003DFCC22002F046FC012002F037FCC320F8
:1050400002F040FC102002F031FCC42002F03AFCD7
:10505000202002F02BFCC62002F034FC0F2002F0CE
:1050600025FCD02002F02EFCA42002F01FFCA12081
:1050700002F01CFCE02002F025FCD02002F016FC1F
:10508000002002F013FC022002F010FC072002F0C6
:105090000DFC0A2002F00AFC282002F007FC322056
:1050A00002F004FC442002F001FC422002F0FEFB6E
:1050B000062002F0FBFB0E2002F0F8FB122002F0AB
:1050C000F5FB00E054E0142002F0F0FB172002F0A2
:1050D000EDFBE12002F0F6FBD02002F0E7FB002020
:1050E00002F0E4FB022002F0E1FB072002F0DEFB0D
:1050F0000A2002F0DBFB282002F0D8FB312002F06E
:10510000D5FB542002F0D2FB472002F0CFFB0E204B
:1051100002F0CCFB1C2002F0C9FB172002F0C6FBFA
:105120001B2002F0C3FB1E2002F0C0FB2A2002F06D
:10513000C9FB002002F0BAFB002002F0B7FB002000
:1051400002F0B4FBEF2002F0B1FB2B2002F0BAFB1F
:10515000002002F0ABFB002002F0A8FB012002F0CF
:10516000A5FB3F2002F0A2FB292002F0ABFBC6E426
:105170009048808845F21031884240F07C87ED20CD
:1051800002F0A0FB012002F091FBFE2002F08EFB5A
:10519000EE2002F097FBDE2002F088FB212002F0D7
:1051A00085FBF12002F08EFB012002F07FFBDF2067
:1051B00002F088FB102002F079FBC42002F082FB91
:1051C0008F2002F073FBC62002F07CFB002002F06F
:1051D0006DFBE22002F06AFBE22002F067FBE220B6
:1051E00002F064FBBF2002F06DFBAA2002F05EFB20
:1051F000B02002F067FB0D2002F058FB002002F007
:1052000055FB0D2002F052FB002002F04FFB112055
:1052100002F04CFB002002F049FB192002F046FB93
:10522000002002F043FB212002F040FB002002F0AE
:105230003DFB2D2002F03AFB002002F037FB3D2021
:1052400002F034FB002002F031FB5D2002F02EFB67
:10525000002002F02BFB5D2002F028FB002002F072
:1052600025FBB12002F02EFB802002F01FFB002066
:1052700002F01CFB8B2002F019FB002002F016FB51
:10528000962002F013FB002002F010FBB22002F087
:1052900019FB002002F00AFB002002F007FB0220AD
:1052A00002F004FB002002F001FB032002F0FEFAF2
:1052B000002002F0FBFAB32002F004FB002002F011
:1052C000F5FA002002F0F2FA002002F0EFFA0020D6
:1052D00002F0ECFA002002F0E9FA002002F0E6FA0F
:1052E000002002F0E3FA002002F0E0FA002002F0D1
:1052F000DDFA002002F0DAFA002002F0D7FA0020EE
:1053000002F0D4FA002002F0D1FA002002F0CEFA26
:10531000002002F0CBFA002002F0C8FA002002F0D0
:10532000C5FA002002F0C2FA002002F0BFFA002005
:1053300002F0BCFA002002F0B9FA002002F0B6FA3E
:10534000002002F0B3FA002002F0B0FAB42002F01C
:10535000B9FA8B2002F0AAFA002002F0A7FA9620F0
:1053600002F0A4FA002002F0A1FAA12002F09EFAB5
:10537000002002F09BFAB52002F0A4FA022002F00D
:1053800095FA002002F092FA032002F08FFA002032
:1053900002F08CFA042002F089FA002002F086FA6A
:1053A000B62002F08FFA002002F080FA002002F00E
:1053B0007DFA01E040020220B72002F083FA0020CB
:1053C00002F074FA002002F071FA3F2002F06EFA47
:1053D000002002F06BFA5E2002F068FA002002F072
:1053E00065FA642002F062FA002002F05FFA8C2075
:1053F00002F05CFA002002F059FAAC2002F056FAF2
:10540000002002F053FADC2002F050FA002002F0F3
:105410004DFA702002F04AFA002002F047FA90207C
:1054200002F044FA002002F041FAEB2002F03EFACA
:10543000002002F03BFADC2002F038FA002002F0F3
:1054400035FAB82002F03EFA002002F02FFA0020D0
:1054500002F02CFA002002F029FA002002F026FACD
:10546000002002F023FA002002F020FA002002F0CF
:105470001DFA002002F01AFABA2002F023FA2420C2
:1054800002F014FA002002F011FA002002F00EFAE5
:10549000002002F00BFAC12002F014FA202002F0E2
:1054A00005FA002002F002FA542002F0FFF9002071
:1054B00002F0FCF9FF2002F0F9F9002002F0F6F901
:1054C000C22002F0FFF90A2002F0F0F9002002F0F9
:1054D000EDF9042002F0EAF9002002F0E7F9C32018
:1054E00002F0F0F93C2002F0E1F9002002F0DEF9D0
:1054F0003A2002F0DBF9002002F0D8F9392002F05E
:10550000D5F9002002F0D2F9372002F0CFF90020BF
:1055100002F0CCF93C2002F0C9F9002002F0C6F9F3
:10552000362002F0C3F9002002F0C0F9322002F068
:10553000BDF9002002F0BAF92F2002F0B7F90020DF
:1055400002F0B4F92C2002F0B1F9002002F0AEF91B
:10555000292002F0ABF9002002F0A8F9262002F081
:10556000A5F9002002F0A2F9242002F09FF9002002
:1055700002F09CF9242002F099F9002002F096F93B
:10558000232002F093F9002002F090F93C2002F071
:105590008DF9002002F08AF9362002F087F9002008
:1055A00002F084F9322002F081F9002002F07EF945
:1055B0002F2002F07BF9002002F078F92C2002F075
:1055C00075F9002002F072F9292002F06FF900202D
:1055D00002F06CF9262002F069F9002002F066F969
:1055E000242002F063F9002002F060F9242002F088
:1055F0005DF9002002F05AF9232002F057F900204B
:1056000002F054F9C42002F05DF9622002F04EF974
:10561000002002F04BF9052002F048F9002002F0CA
:1056200045F9842002F042F9002002F03FF9F02011
:1056300002F03CF9002002F039F9182002F036F9A6
:10564000002002F033F9A42002F030F9002002F02B
:105650002DF9182002F02AF9002002F027F9502035
:1056600002F024F9002002F021F90C2002F01EF9CA
:10567000002002F01BF9172002F018F9002002F0B8
:1056800015F9952002F012F9002002F00FF9F3202D
:1056900002F00CF9002002F009F9E62002F006F908
:1056A000002002F003F9C52002F00CF9322002F0CC
:1056B000FDF8002002F0FAF8442002F0F7F800208C
:1056C00002F0F4F8652002F0F1F8002002F0EEF8A4
:1056D000762002F0EBF8002002F0E8F8882002F0D3
:1056E000E5F8002002F0E2F8C62002F0EBF82020F6
:1056F00002F0DCF8002002F0D9F8172002F0D6F80A
:10570000002002F0D3F8012002F0D0F8002002F0CF
:10571000CDF8C72002F0D6F8002002F0C7F800202C
:1057200002F0C4F8002002F0C1F8002002F0BEF838
:10573000C82002F0C7F8002002F0B8F8002002F0FC
:10574000B5F8002002F0B2F8002002F0AFF8C9204E
:1057500002F0B8F8002002F0A9F8002002F0A6F844
:10576000002002F0A3F8002002F0A0F8002002F0D0
:105770009DF8002002F09AF8002002F097F800202F
:1057800002F094F8002002F091F8002002F08EF868
:10579000002002F08BF8002002F088F8002002F0D0
:1057A00085F8002002F082F8002002F07FF8002047
:1057B00002F07CF8E02002F085F8162002F076F87E
:1057C000002002F073F81C2002F070F8002002F0B4
:1057D0006DF8212002F06AF8002002F067F8362008
:1057E00002F064F8002002F061F8462002F05EF852
:1057F000002002F05BF8522002F058F8002002F07E
:1058000055F8642002F052F8002002F04FF87A2098
:1058100002F04CF8002002F049F88B2002F046F824
:10582000002002F043F8992002F040F8002002F036
:105830003DF8A82002F03AF8002002F037F8B9202D
:1058400002F034F8002002F031F8C42002F02EF803
:10585000002002F02BF8CA2002F028F8002002F005
:1058600025F8D22002F022F8002002F01FF8D920FB
:1058700002F01CF8002002F019F8E02002F016F8FF
:10588000002002F013F8F32002F010F8002002F0DC
:105890000DF8E12002F016F8162002F007F80020BB
:1058A00002F004F81C2002F001F8002001F0FEFFD5
:1058B000222001F0FBFF002001F0F8FF362001F06C
:1058C000F5FF002001F0F2FF452001F0EFFF00207E
:1058D00001F0ECFF522001F0E9FF002001F0E6FFAB
:1058E000642001F0E3FF002001F0E0FF7A2001F0E6
:1058F000DDFF002001F0DAFF8B2001F0D7FF002050
:1059000001F0D4FF992001F0D1FF002001F0CEFF7B
:10591000A82001F0CBFF002001F0C8FFB92001F062
:10592000C5FF002001F0C2FFC42001F0BFFF00202E
:1059300001F0BCFFCA2001F0B9FF002001F0B6FF62
:10594000D22001F0B3FF002001F0B0FFD82001F019
:10595000ADFF002001F0AAFFE02001F0A7FF00202A
:1059600001F0A4FFF32001F0A1FF002001F09EFF51
:10597000E22001F0A7FF052001F098FF002001F0D0
:1059800095FF0B2001F092FF002001F08FFF1B20FC
:1059900001F08CFF002001F089FF342001F086FF28
:1059A000002001F083FF442001F080FF002001F07F
:1059B0007DFF4F2001F07AFF002001F077FF61208A
:1059C00001F074FF002001F071FF792001F06EFFFB
:1059D000002001F06BFF882001F068FF002001F03B
:1059E00065FF972001F062FF002001F05FFFA62015
:1059F00001F05CFF002001F059FFB72001F056FFD5
:105A0000002001F053FFC22001F050FF002001F000
:105A10004DFFC72001F04AFF002001F047FFD120D1
:105A200001F044FF002001F041FFD62001F03EFFCD
:105A3000002001F03BFFDD2001F038FF002001F0E5
:105A400035FFF32001F032FF002001F02FFFE320AB
:105A500001F038FF052001F029FF002001F026FFAA
:105A60000A2001F023FF002001F020FF1C2001F09C
:105A70001DFF002001F01AFF332001F017FF002066
:105A800001F014FF442001F011FF002001F00EFF8F
:105A9000502001F00BFF002001F008FF622001F010
:105AA00005FF002001F002FF782001F0FFFE00203A
:105AB00001F0FCFE882001F0F9FE002001F0F6FE66
:105AC000972001F0F3FE002001F0F0FEA62001F087
:105AD000EDFE002001F0EAFEB72001F0E7FE002015
